{
	"Raindrop.sol": {
		"RaindropEscrow": {
			"abi": [
				{
					"inputs": [
						{
							"internalType": "address",
							"name": "_feeRecipient",
							"type": "address"
						}
					],
					"stateMutability": "nonpayable",
					"type": "constructor"
				},
				{
					"inputs": [
						{
							"internalType": "address",
							"name": "owner",
							"type": "address"
						}
					],
					"name": "OwnableInvalidOwner",
					"type": "error"
				},
				{
					"inputs": [
						{
							"internalType": "address",
							"name": "account",
							"type": "address"
						}
					],
					"name": "OwnableUnauthorizedAccount",
					"type": "error"
				},
				{
					"inputs": [
						{
							"internalType": "address",
							"name": "token",
							"type": "address"
						}
					],
					"name": "SafeERC20FailedOperation",
					"type": "error"
				},
				{
					"anonymous": false,
					"inputs": [
						{
							"indexed": true,
							"internalType": "address",
							"name": "previousOwner",
							"type": "address"
						},
						{
							"indexed": true,
							"internalType": "address",
							"name": "newOwner",
							"type": "address"
						}
					],
					"name": "OwnershipTransferred",
					"type": "event"
				},
				{
					"anonymous": false,
					"inputs": [
						{
							"indexed": true,
							"internalType": "string",
							"name": "raindropId",
							"type": "string"
						},
						{
							"indexed": false,
							"internalType": "uint256",
							"name": "participantCount",
							"type": "uint256"
						}
					],
					"name": "ParticipantsUpdated",
					"type": "event"
				},
				{
					"anonymous": false,
					"inputs": [
						{
							"indexed": true,
							"internalType": "string",
							"name": "raindropId",
							"type": "string"
						},
						{
							"indexed": true,
							"internalType": "address",
							"name": "host",
							"type": "address"
						},
						{
							"indexed": false,
							"internalType": "uint256",
							"name": "refundAmount",
							"type": "uint256"
						}
					],
					"name": "RaindropCancelled",
					"type": "event"
				},
				{
					"anonymous": false,
					"inputs": [
						{
							"indexed": true,
							"internalType": "string",
							"name": "raindropId",
							"type": "string"
						},
						{
							"indexed": true,
							"internalType": "address",
							"name": "host",
							"type": "address"
						},
						{
							"indexed": true,
							"internalType": "address",
							"name": "token",
							"type": "address"
						},
						{
							"indexed": false,
							"internalType": "uint256",
							"name": "totalAmount",
							"type": "uint256"
						},
						{
							"indexed": false,
							"internalType": "uint256",
							"name": "scheduledTime",
							"type": "uint256"
						}
					],
					"name": "RaindropCreated",
					"type": "event"
				},
				{
					"anonymous": false,
					"inputs": [
						{
							"indexed": true,
							"internalType": "string",
							"name": "raindropId",
							"type": "string"
						},
						{
							"indexed": false,
							"internalType": "uint256",
							"name": "participantCount",
							"type": "uint256"
						},
						{
							"indexed": false,
							"internalType": "uint256",
							"name": "amountPerParticipant",
							"type": "uint256"
						},
						{
							"indexed": false,
							"internalType": "uint256",
							"name": "totalDistributed",
							"type": "uint256"
						}
					],
					"name": "RaindropExecuted",
					"type": "event"
				},
				{
					"inputs": [],
					"name": "MAX_PARTICIPANTS",
					"outputs": [
						{
							"internalType": "uint256",
							"name": "",
							"type": "uint256"
						}
					],
					"stateMutability": "view",
					"type": "function"
				},
				{
					"inputs": [],
					"name": "MIN_AMOUNT_PER_PARTICIPANT",
					"outputs": [
						{
							"internalType": "uint256",
							"name": "",
							"type": "uint256"
						}
					],
					"stateMutability": "view",
					"type": "function"
				},
				{
					"inputs": [
						{
							"internalType": "string",
							"name": "raindropId",
							"type": "string"
						}
					],
					"name": "cancelRaindrop",
					"outputs": [],
					"stateMutability": "nonpayable",
					"type": "function"
				},
				{
					"inputs": [
						{
							"internalType": "string",
							"name": "raindropId",
							"type": "string"
						},
						{
							"internalType": "address",
							"name": "token",
							"type": "address"
						},
						{
							"internalType": "uint256",
							"name": "totalAmount",
							"type": "uint256"
						},
						{
							"internalType": "uint256",
							"name": "scheduledTime",
							"type": "uint256"
						}
					],
					"name": "createRaindrop",
					"outputs": [],
					"stateMutability": "nonpayable",
					"type": "function"
				},
				{
					"inputs": [
						{
							"internalType": "address",
							"name": "token",
							"type": "address"
						},
						{
							"internalType": "uint256",
							"name": "amount",
							"type": "uint256"
						}
					],
					"name": "emergencyRecoverToken",
					"outputs": [],
					"stateMutability": "nonpayable",
					"type": "function"
				},
				{
					"inputs": [
						{
							"internalType": "string",
							"name": "raindropId",
							"type": "string"
						}
					],
					"name": "executeRaindrop",
					"outputs": [],
					"stateMutability": "nonpayable",
					"type": "function"
				},
				{
					"inputs": [],
					"name": "feeRecipient",
					"outputs": [
						{
							"internalType": "address",
							"name": "",
							"type": "address"
						}
					],
					"stateMutability": "view",
					"type": "function"
				},
				{
					"inputs": [
						{
							"internalType": "string",
							"name": "raindropId",
							"type": "string"
						}
					],
					"name": "getParticipants",
					"outputs": [
						{
							"internalType": "address[]",
							"name": "",
							"type": "address[]"
						}
					],
					"stateMutability": "view",
					"type": "function"
				},
				{
					"inputs": [
						{
							"internalType": "string",
							"name": "raindropId",
							"type": "string"
						}
					],
					"name": "getRaindropDetails",
					"outputs": [
						{
							"internalType": "address",
							"name": "host",
							"type": "address"
						},
						{
							"internalType": "address",
							"name": "token",
							"type": "address"
						},
						{
							"internalType": "uint256",
							"name": "totalAmount",
							"type": "uint256"
						},
						{
							"internalType": "uint256",
							"name": "scheduledTime",
							"type": "uint256"
						},
						{
							"internalType": "bool",
							"name": "executed",
							"type": "bool"
						},
						{
							"internalType": "bool",
							"name": "cancelled",
							"type": "bool"
						},
						{
							"internalType": "uint256",
							"name": "participantCount",
							"type": "uint256"
						}
					],
					"stateMutability": "view",
					"type": "function"
				},
				{
					"inputs": [],
					"name": "owner",
					"outputs": [
						{
							"internalType": "address",
							"name": "",
							"type": "address"
						}
					],
					"stateMutability": "view",
					"type": "function"
				},
				{
					"inputs": [],
					"name": "platformFeeBps",
					"outputs": [
						{
							"internalType": "uint256",
							"name": "",
							"type": "uint256"
						}
					],
					"stateMutability": "view",
					"type": "function"
				},
				{
					"inputs": [
						{
							"internalType": "string",
							"name": "",
							"type": "string"
						}
					],
					"name": "raindropExists",
					"outputs": [
						{
							"internalType": "bool",
							"name": "",
							"type": "bool"
						}
					],
					"stateMutability": "view",
					"type": "function"
				},
				{
					"inputs": [
						{
							"internalType": "string",
							"name": "",
							"type": "string"
						}
					],
					"name": "raindrops",
					"outputs": [
						{
							"internalType": "string",
							"name": "raindropId",
							"type": "string"
						},
						{
							"internalType": "address",
							"name": "host",
							"type": "address"
						},
						{
							"internalType": "address",
							"name": "token",
							"type": "address"
						},
						{
							"internalType": "uint256",
							"name": "totalAmount",
							"type": "uint256"
						},
						{
							"internalType": "uint256",
							"name": "scheduledTime",
							"type": "uint256"
						},
						{
							"internalType": "bool",
							"name": "executed",
							"type": "bool"
						},
						{
							"internalType": "bool",
							"name": "cancelled",
							"type": "bool"
						},
						{
							"internalType": "uint256",
							"name": "participantCount",
							"type": "uint256"
						}
					],
					"stateMutability": "view",
					"type": "function"
				},
				{
					"inputs": [],
					"name": "renounceOwnership",
					"outputs": [],
					"stateMutability": "nonpayable",
					"type": "function"
				},
				{
					"inputs": [
						{
							"internalType": "address",
							"name": "newOwner",
							"type": "address"
						}
					],
					"name": "transferOwnership",
					"outputs": [],
					"stateMutability": "nonpayable",
					"type": "function"
				},
				{
					"inputs": [
						{
							"internalType": "address",
							"name": "newFeeRecipient",
							"type": "address"
						}
					],
					"name": "updateFeeRecipient",
					"outputs": [],
					"stateMutability": "nonpayable",
					"type": "function"
				},
				{
					"inputs": [
						{
							"internalType": "string",
							"name": "raindropId",
							"type": "string"
						},
						{
							"internalType": "address[]",
							"name": "participants",
							"type": "address[]"
						}
					],
					"name": "updateParticipants",
					"outputs": [],
					"stateMutability": "nonpayable",
					"type": "function"
				},
				{
					"inputs": [
						{
							"internalType": "uint256",
							"name": "newFeeBps",
							"type": "uint256"
						}
					],
					"name": "updatePlatformFee",
					"outputs": [],
					"stateMutability": "nonpayable",
					"type": "function"
				}
			],
			"devdoc": {
				"details": "Smart contract for escrowing tokens and executing batch transfers for raindrops Solves multiple issues: 1. Funds are locked at scheduling time (no balance changes during 24h window) 2. Batch transfers in single transaction (gas optimization) 3. Atomic execution (all or nothing, or partial with rollback) 4. Participant limits and validation",
				"errors": {
					"OwnableInvalidOwner(address)": [
						{
							"details": "The owner is not a valid owner account. (eg. `address(0)`)"
						}
					],
					"OwnableUnauthorizedAccount(address)": [
						{
							"details": "The caller account is not authorized to perform an operation."
						}
					],
					"SafeERC20FailedOperation(address)": [
						{
							"details": "An operation with an ERC-20 token failed."
						}
					]
				},
				"kind": "dev",
				"methods": {
					"cancelRaindrop(string)": {
						"details": "Cancel a raindrop and refund tokens to host",
						"params": {
							"raindropId": "The raindrop to cancel"
						}
					},
					"createRaindrop(string,address,uint256,uint256)": {
						"details": "Create and fund a raindrop escrow",
						"params": {
							"raindropId": "Unique identifier for the raindrop",
							"scheduledTime": "When the raindrop should execute (timestamp)",
							"token": "Token address to distribute",
							"totalAmount": "Total amount to distribute"
						}
					},
					"emergencyRecoverToken(address,uint256)": {
						"details": "Emergency function to recover stuck tokens (only owner)"
					},
					"executeRaindrop(string)": {
						"details": "Execute the raindrop batch transfer",
						"params": {
							"raindropId": "The raindrop to execute"
						}
					},
					"getParticipants(string)": {
						"details": "Get participants list"
					},
					"getRaindropDetails(string)": {
						"details": "Get raindrop details"
					},
					"owner()": {
						"details": "Returns the address of the current owner."
					},
					"renounceOwnership()": {
						"details": "Leaves the contract without owner. It will not be possible to call `onlyOwner` functions. Can only be called by the current owner. NOTE: Renouncing ownership will leave the contract without an owner, thereby disabling any functionality that is only available to the owner."
					},
					"transferOwnership(address)": {
						"details": "Transfers ownership of the contract to a new account (`newOwner`). Can only be called by the current owner."
					},
					"updateFeeRecipient(address)": {
						"details": "Update fee recipient (only owner)"
					},
					"updateParticipants(string,address[])": {
						"details": "Update participants list (can be called multiple times before execution)",
						"params": {
							"participants": "Array of participant addresses",
							"raindropId": "The raindrop to update"
						}
					},
					"updatePlatformFee(uint256)": {
						"details": "Update platform fee (only owner)"
					}
				},
				"title": "RaindropEscrow",
				"version": 1
			},
			"evm": {
				"assembly": "    /* \"Raindrop.sol\":696:10294  contract RaindropEscrow is ReentrancyGuard, Ownable {... */\n  mstore(0x40, 0x80)\n    /* \"Raindrop.sol\":1131:1133  10 */\n  0x0a\n    /* \"Raindrop.sol\":1099:1133  uint256 public platformFeeBps = 10 */\n  0x02\n  sstore\n    /* \"Raindrop.sol\":2203:2303  constructor(address _feeRecipient) Ownable (msg.sender){... */\n  callvalue\n  dup1\n  iszero\n  tag_1\n  jumpi\n  0x00\n  dup1\n  revert\ntag_1:\n  pop\n  mload(0x40)\n  sub(codesize, bytecodeSize)\n  dup1\n  bytecodeSize\n  dup4\n  codecopy\n  dup2\n  add\n  0x40\n  dup2\n  swap1\n  mstore\n  tag_2\n  swap2\n  tag_3\n  jump\t// in\ntag_2:\n    /* \"@openzeppelin/contracts/security/ReentrancyGuard.sol\":1716:1717  1 */\n  0x01\n    /* \"@openzeppelin/contracts/security/ReentrancyGuard.sol\":1821:1828  _status */\n  0x00\n    /* \"@openzeppelin/contracts/security/ReentrancyGuard.sol\":1821:1843  _status = _NOT_ENTERED */\n  sstore\n    /* \"Raindrop.sol\":2247:2257  msg.sender */\n  caller\n  dup1\n    /* \"@openzeppelin/contracts/access/Ownable.sol\":1269:1364  if (initialOwner == address(0)) {... */\n  tag_9\n  jumpi\n    /* \"@openzeppelin/contracts/access/Ownable.sol\":1322:1353  OwnableInvalidOwner(address(0)) */\n  mload(0x40)\n  shl(0xe0, 0x1e4fbdf7)\n  dup2\n  mstore\n    /* \"@openzeppelin/contracts/access/Ownable.sol\":1350:1351  0 */\n  0x00\n    /* \"@openzeppelin/contracts/access/Ownable.sol\":1322:1353  OwnableInvalidOwner(address(0)) */\n  0x04\n  dup3\n  add\n    /* \"#utility.yul\":455:506   */\n  mstore\n    /* \"#utility.yul\":428:446   */\n  0x24\n  add\n    /* \"@openzeppelin/contracts/access/Ownable.sol\":1322:1353  OwnableInvalidOwner(address(0)) */\n  mload(0x40)\n  dup1\n  swap2\n  sub\n  swap1\n  revert\n    /* \"@openzeppelin/contracts/access/Ownable.sol\":1269:1364  if (initialOwner == address(0)) {... */\ntag_9:\n    /* \"@openzeppelin/contracts/access/Ownable.sol\":1373:1405  _transferOwnership(initialOwner) */\n  tag_12\n    /* \"@openzeppelin/contracts/access/Ownable.sol\":1392:1404  initialOwner */\n  dup2\n    /* \"@openzeppelin/contracts/access/Ownable.sol\":1373:1391  _transferOwnership */\n  tag_13\n    /* \"@openzeppelin/contracts/access/Ownable.sol\":1373:1405  _transferOwnership(initialOwner) */\n  jump\t// in\ntag_12:\n  pop\n    /* \"Raindrop.sol\":2268:2280  feeRecipient */\n  0x03\n    /* \"Raindrop.sol\":2268:2296  feeRecipient = _feeRecipient */\n  dup1\n  sload\n  not(sub(shl(0xa0, 0x01), 0x01))\n  and\n  sub(shl(0xa0, 0x01), 0x01)\n  swap3\n  swap1\n  swap3\n  and\n  swap2\n  swap1\n  swap2\n  or\n  swap1\n  sstore\n    /* \"Raindrop.sol\":696:10294  contract RaindropEscrow is ReentrancyGuard, Ownable {... */\n  jump(tag_17)\n    /* \"@openzeppelin/contracts/access/Ownable.sol\":2912:3099  function _transferOwnership(address newOwner) internal virtual {... */\ntag_13:\n    /* \"@openzeppelin/contracts/access/Ownable.sol\":3004:3010  _owner */\n  0x01\n  dup1\n  sload\n  sub(shl(0xa0, 0x01), 0x01)\n    /* \"@openzeppelin/contracts/access/Ownable.sol\":3020:3037  _owner = newOwner */\n  dup4\n  dup2\n  and\n  not(sub(shl(0xa0, 0x01), 0x01))\n  dup4\n  and\n  dup2\n  or\n  swap1\n  swap4\n  sstore\n    /* \"@openzeppelin/contracts/access/Ownable.sol\":3052:3092  OwnershipTransferred(oldOwner, newOwner) */\n  mload(0x40)\n    /* \"@openzeppelin/contracts/access/Ownable.sol\":3004:3010  _owner */\n  swap2\n  and\n  swap2\n    /* \"@openzeppelin/contracts/access/Ownable.sol\":3020:3037  _owner = newOwner */\n  swap1\n    /* \"@openzeppelin/contracts/access/Ownable.sol\":3004:3010  _owner */\n  dup3\n  swap1\n    /* \"@openzeppelin/contracts/access/Ownable.sol\":3052:3092  OwnershipTransferred(oldOwner, newOwner) */\n  0x8be0079c531659141344cd1fd0a4f28419497f9722a3daafe3b4186f6b6457e0\n  swap1\n    /* \"@openzeppelin/contracts/access/Ownable.sol\":2985:3001  address oldOwner */\n  0x00\n  swap1\n    /* \"@openzeppelin/contracts/access/Ownable.sol\":3052:3092  OwnershipTransferred(oldOwner, newOwner) */\n  log3\n    /* \"@openzeppelin/contracts/access/Ownable.sol\":2975:3099  {... */\n  pop\n    /* \"@openzeppelin/contracts/access/Ownable.sol\":2912:3099  function _transferOwnership(address newOwner) internal virtual {... */\n  pop\n  jump\t// out\n    /* \"#utility.yul\":14:304   */\ntag_3:\n    /* \"#utility.yul\":84:90   */\n  0x00\n    /* \"#utility.yul\":137:139   */\n  0x20\n    /* \"#utility.yul\":125:134   */\n  dup3\n    /* \"#utility.yul\":116:123   */\n  dup5\n    /* \"#utility.yul\":112:135   */\n  sub\n    /* \"#utility.yul\":108:140   */\n  slt\n    /* \"#utility.yul\":105:157   */\n  iszero\n  tag_19\n  jumpi\n    /* \"#utility.yul\":153:154   */\n  0x00\n    /* \"#utility.yul\":150:151   */\n  dup1\n    /* \"#utility.yul\":143:155   */\n  revert\n    /* \"#utility.yul\":105:157   */\ntag_19:\n    /* \"#utility.yul\":179:195   */\n  dup2\n  mload\n  sub(shl(0xa0, 0x01), 0x01)\n    /* \"#utility.yul\":224:255   */\n  dup2\n  and\n    /* \"#utility.yul\":214:256   */\n  dup2\n  eq\n    /* \"#utility.yul\":204:274   */\n  tag_20\n  jumpi\n    /* \"#utility.yul\":270:271   */\n  0x00\n    /* \"#utility.yul\":267:268   */\n  dup1\n    /* \"#utility.yul\":260:272   */\n  revert\n    /* \"#utility.yul\":204:274   */\ntag_20:\n    /* \"#utility.yul\":293:298   */\n  swap4\n    /* \"#utility.yul\":14:304   */\n  swap3\n  pop\n  pop\n  pop\n  jump\t// out\n    /* \"#utility.yul\":309:512   */\ntag_17:\n    /* \"Raindrop.sol\":696:10294  contract RaindropEscrow is ReentrancyGuard, Ownable {... */\n  dataSize(sub_0)\n  dup1\n  dataOffset(sub_0)\n  0x00\n  codecopy\n  0x00\n  return\nstop\n\nsub_0: assembly {\n        /* \"Raindrop.sol\":696:10294  contract RaindropEscrow is ReentrancyGuard, Ownable {... */\n      mstore(0x40, 0x80)\n      callvalue\n      dup1\n      iszero\n      tag_1\n      jumpi\n      0x00\n      dup1\n      revert\n    tag_1:\n      pop\n      jumpi(tag_2, lt(calldatasize, 0x04))\n      shr(0xe0, calldataload(0x00))\n      dup1\n      0x7e90def7\n      gt\n      tag_21\n      jumpi\n      dup1\n      0xaa0b5988\n      gt\n      tag_22\n      jumpi\n      dup1\n      0xaa0b5988\n      eq\n      tag_16\n      jumpi\n      dup1\n      0xb28a9d6f\n      eq\n      tag_17\n      jumpi\n      dup1\n      0xf160d369\n      eq\n      tag_18\n      jumpi\n      dup1\n      0xf2fde38b\n      eq\n      tag_19\n      jumpi\n      dup1\n      0xf3baf070\n      eq\n      tag_20\n      jumpi\n      0x00\n      dup1\n      revert\n    tag_22:\n      dup1\n      0x7e90def7\n      eq\n      tag_12\n      jumpi\n      dup1\n      0x8da5cb5b\n      eq\n      tag_13\n      jumpi\n      dup1\n      0x9a43dc0c\n      eq\n      tag_14\n      jumpi\n      dup1\n      0x9b0f14b5\n      eq\n      tag_15\n      jumpi\n      0x00\n      dup1\n      revert\n    tag_21:\n      dup1\n      0x4898ba63\n      gt\n      tag_23\n      jumpi\n      dup1\n      0x4898ba63\n      eq\n      tag_7\n      jumpi\n      dup1\n      0x6b0db1fa\n      eq\n      tag_8\n      jumpi\n      dup1\n      0x715018a6\n      eq\n      tag_9\n      jumpi\n      dup1\n      0x72521d47\n      eq\n      tag_10\n      jumpi\n      dup1\n      0x79020194\n      eq\n      tag_11\n      jumpi\n      0x00\n      dup1\n      revert\n    tag_23:\n      dup1\n      0x02749be7\n      eq\n      tag_3\n      jumpi\n      dup1\n      0x0d12cba2\n      eq\n      tag_4\n      jumpi\n      dup1\n      0x22dcd13e\n      eq\n      tag_5\n      jumpi\n      dup1\n      0x46904840\n      eq\n      tag_6\n      jumpi\n    tag_2:\n      0x00\n      dup1\n      revert\n        /* \"Raindrop.sol\":2605:3757  function createRaindrop(... */\n    tag_3:\n      tag_24\n      tag_25\n      calldatasize\n      0x04\n      tag_26\n      jump\t// in\n    tag_25:\n      tag_27\n      jump\t// in\n    tag_24:\n      stop\n        /* \"Raindrop.sol\":1547:1592  mapping(string => bool) public raindropExists */\n    tag_4:\n      tag_28\n      tag_29\n      calldatasize\n      0x04\n      tag_30\n      jump\t// in\n    tag_29:\n      dup1\n      mload\n      0x20\n      dup2\n      dup4\n      add\n      dup2\n      add\n      dup1\n      mload\n      0x05\n      dup3\n      mstore\n      swap3\n      dup3\n      add\n      swap2\n      swap1\n      swap4\n      add\n      keccak256\n      swap2\n      mstore\n      sload\n      0xff\n      and\n      dup2\n      jump\n    tag_28:\n      mload(0x40)\n        /* \"#utility.yul\":2613:2627   */\n      swap1\n      iszero\n        /* \"#utility.yul\":2606:2628   */\n      iszero\n        /* \"#utility.yul\":2588:2629   */\n      dup2\n      mstore\n        /* \"#utility.yul\":2576:2578   */\n      0x20\n        /* \"#utility.yul\":2561:2579   */\n      add\n        /* \"Raindrop.sol\":1547:1592  mapping(string => bool) public raindropExists */\n    tag_32:\n      mload(0x40)\n      dup1\n      swap2\n      sub\n      swap1\n      return\n        /* \"Raindrop.sol\":1099:1133  uint256 public platformFeeBps = 10 */\n    tag_5:\n      tag_34\n      sload(0x02)\n      dup2\n      jump\n    tag_34:\n      mload(0x40)\n        /* \"#utility.yul\":2786:2811   */\n      swap1\n      dup2\n      mstore\n        /* \"#utility.yul\":2774:2776   */\n      0x20\n        /* \"#utility.yul\":2759:2777   */\n      add\n        /* \"Raindrop.sol\":1099:1133  uint256 public platformFeeBps = 10 */\n      tag_32\n        /* \"#utility.yul\":2640:2817   */\n      jump\n        /* \"Raindrop.sol\":1139:1166  address public feeRecipient */\n    tag_6:\n      sload(0x03)\n      tag_38\n      swap1\n      sub(shl(0xa0, 0x01), 0x01)\n      and\n      dup2\n      jump\n    tag_38:\n      mload(0x40)\n      sub(shl(0xa0, 0x01), 0x01)\n        /* \"#utility.yul\":2986:3018   */\n      swap1\n      swap2\n      and\n        /* \"#utility.yul\":2968:3019   */\n      dup2\n      mstore\n        /* \"#utility.yul\":2956:2958   */\n      0x20\n        /* \"#utility.yul\":2941:2959   */\n      add\n        /* \"Raindrop.sol\":1139:1166  address public feeRecipient */\n      tag_32\n        /* \"#utility.yul\":2822:3025   */\n      jump\n        /* \"Raindrop.sol\":964:1018  uint256 public constant MIN_AMOUNT_PER_PARTICIPANT = 1 */\n    tag_7:\n      tag_34\n        /* \"Raindrop.sol\":1017:1018  1 */\n      0x01\n        /* \"Raindrop.sol\":964:1018  uint256 public constant MIN_AMOUNT_PER_PARTICIPANT = 1 */\n      dup2\n      jump\n        /* \"Raindrop.sol\":3970:5758  function updateParticipants(... */\n    tag_8:\n      tag_24\n      tag_46\n      calldatasize\n      0x04\n      tag_47\n      jump\t// in\n    tag_46:\n      tag_48\n      jump\t// in\n        /* \"@openzeppelin/contracts/access/Ownable.sol\":2293:2394  function renounceOwnership() public virtual onlyOwner {... */\n    tag_9:\n      tag_24\n      tag_50\n      jump\t// in\n        /* \"Raindrop.sol\":8520:9256  function getRaindropDetails(string calldata raindropId) ... */\n    tag_10:\n      tag_51\n      tag_52\n      calldatasize\n      0x04\n      tag_53\n      jump\t// in\n    tag_52:\n      tag_54\n      jump\t// in\n    tag_51:\n      0x40\n      dup1\n      mload\n      sub(shl(0xa0, 0x01), 0x01)\n        /* \"#utility.yul\":4687:4719   */\n      swap9\n      dup10\n      and\n        /* \"#utility.yul\":4669:4720   */\n      dup2\n      mstore\n        /* \"#utility.yul\":4756:4788   */\n      swap8\n      swap1\n      swap7\n      and\n        /* \"#utility.yul\":4751:4753   */\n      0x20\n        /* \"#utility.yul\":4736:4754   */\n      dup9\n      add\n        /* \"#utility.yul\":4729:4789   */\n      mstore\n        /* \"#utility.yul\":4805:4823   */\n      swap5\n      dup7\n      add\n        /* \"#utility.yul\":4798:4832   */\n      swap4\n      swap1\n      swap4\n      mstore\n        /* \"#utility.yul\":4863:4865   */\n      0x60\n        /* \"#utility.yul\":4848:4866   */\n      dup6\n      add\n        /* \"#utility.yul\":4841:4875   */\n      swap2\n      swap1\n      swap2\n      mstore\n        /* \"#utility.yul\":4919:4933   */\n      iszero\n        /* \"#utility.yul\":4912:4934   */\n      iszero\n        /* \"#utility.yul\":4906:4909   */\n      0x80\n        /* \"#utility.yul\":4891:4910   */\n      dup5\n      add\n        /* \"#utility.yul\":4884:4935   */\n      mstore\n        /* \"#utility.yul\":4979:4993   */\n      iszero\n        /* \"#utility.yul\":4972:4994   */\n      iszero\n        /* \"#utility.yul\":4707:4710   */\n      0xa0\n        /* \"#utility.yul\":4951:4970   */\n      dup4\n      add\n        /* \"#utility.yul\":4944:4995   */\n      mstore\n        /* \"#utility.yul\":5026:5029   */\n      0xc0\n        /* \"#utility.yul\":5011:5030   */\n      dup3\n      add\n        /* \"#utility.yul\":5004:5039   */\n      mstore\n        /* \"#utility.yul\":4656:4659   */\n      0xe0\n        /* \"#utility.yul\":4641:4660   */\n      add\n        /* \"Raindrop.sol\":8520:9256  function getRaindropDetails(string calldata raindropId) ... */\n      tag_32\n        /* \"#utility.yul\":4366:5045   */\n      jump\n        /* \"Raindrop.sol\":10151:10292  function emergencyRecoverToken(address token, uint256 amount) external onlyOwner {... */\n    tag_11:\n      tag_24\n      tag_58\n      calldatasize\n      0x04\n      tag_59\n      jump\t// in\n    tag_58:\n      tag_60\n      jump\t// in\n        /* \"Raindrop.sol\":9312:9571  function getParticipants(string calldata raindropId) ... */\n    tag_12:\n      tag_61\n      tag_62\n      calldatasize\n      0x04\n      tag_53\n      jump\t// in\n    tag_62:\n      tag_63\n      jump\t// in\n    tag_61:\n      mload(0x40)\n      tag_32\n      swap2\n      swap1\n      tag_65\n      jump\t// in\n        /* \"@openzeppelin/contracts/access/Ownable.sol\":1638:1723  function owner() public view virtual returns (address) {... */\n    tag_13:\n        /* \"@openzeppelin/contracts/access/Ownable.sol\":1710:1716  _owner */\n      and(sub(shl(0xa0, 0x01), 0x01), sload(0x01))\n        /* \"@openzeppelin/contracts/access/Ownable.sol\":1638:1723  function owner() public view virtual returns (address) {... */\n      jump(tag_38)\n        /* \"Raindrop.sol\":5877:7661  function executeRaindrop(string calldata raindropId) external nonReentrant {... */\n    tag_14:\n      tag_24\n      tag_70\n      calldatasize\n      0x04\n      tag_53\n      jump\t// in\n    tag_70:\n      tag_71\n      jump\t// in\n        /* \"Raindrop.sol\":7787:8465  function cancelRaindrop(string calldata raindropId) external nonReentrant {... */\n    tag_15:\n      tag_24\n      tag_73\n      calldatasize\n      0x04\n      tag_53\n      jump\t// in\n    tag_73:\n      tag_74\n      jump\t// in\n        /* \"Raindrop.sol\":9638:9807  function updatePlatformFee(uint256 newFeeBps) external onlyOwner {... */\n    tag_16:\n      tag_24\n      tag_76\n      calldatasize\n      0x04\n      tag_77\n      jump\t// in\n    tag_76:\n      tag_78\n      jump\t// in\n        /* \"Raindrop.sol\":1497:1541  mapping(string => Raindrop) public raindrops */\n    tag_17:\n      tag_79\n      tag_80\n      calldatasize\n      0x04\n      tag_30\n      jump\t// in\n    tag_80:\n      tag_81\n      jump\t// in\n    tag_79:\n      mload(0x40)\n      tag_32\n      swap9\n      swap8\n      swap7\n      swap6\n      swap5\n      swap4\n      swap3\n      swap2\n      swap1\n      tag_83\n      jump\t// in\n        /* \"Raindrop.sol\":9875:10061  function updateFeeRecipient(address newFeeRecipient) external onlyOwner {... */\n    tag_18:\n      tag_24\n      tag_85\n      calldatasize\n      0x04\n      tag_86\n      jump\t// in\n    tag_85:\n      tag_87\n      jump\t// in\n        /* \"@openzeppelin/contracts/access/Ownable.sol\":2543:2758  function transferOwnership(address newOwner) public virtual onlyOwner {... */\n    tag_19:\n      tag_24\n      tag_89\n      calldatasize\n      0x04\n      tag_86\n      jump\t// in\n    tag_89:\n      tag_90\n      jump\t// in\n        /* \"Raindrop.sol\":843:892  uint256 public constant MAX_PARTICIPANTS = 100000 */\n    tag_20:\n      tag_34\n        /* \"Raindrop.sol\":886:892  100000 */\n      0x0186a0\n        /* \"Raindrop.sol\":843:892  uint256 public constant MAX_PARTICIPANTS = 100000 */\n      dup2\n      jump\n        /* \"Raindrop.sol\":2605:3757  function createRaindrop(... */\n    tag_27:\n        /* \"@openzeppelin/contracts/security/ReentrancyGuard.sol\":2261:2282  _nonReentrantBefore() */\n      tag_95\n        /* \"@openzeppelin/contracts/security/ReentrancyGuard.sol\":2261:2280  _nonReentrantBefore */\n      tag_96\n        /* \"@openzeppelin/contracts/security/ReentrancyGuard.sol\":2261:2282  _nonReentrantBefore() */\n      jump\t// in\n    tag_95:\n        /* \"Raindrop.sol\":2795:2809  raindropExists */\n      0x05\n        /* \"Raindrop.sol\":2810:2820  raindropId */\n      dup6\n      dup6\n        /* \"Raindrop.sol\":2795:2821  raindropExists[raindropId] */\n      mload(0x40)\n      tag_98\n      swap3\n      swap2\n      swap1\n      tag_99\n      jump\t// in\n    tag_98:\n      swap1\n      dup2\n      mstore\n      mload(0x40)\n      swap1\n      dup2\n      swap1\n      sub\n      0x20\n      add\n      swap1\n      keccak256\n      sload\n      0xff\n      and\n        /* \"Raindrop.sol\":2794:2821  !raindropExists[raindropId] */\n      iszero\n        /* \"Raindrop.sol\":2786:2849  require(!raindropExists[raindropId], \"Raindrop already exists\") */\n      tag_100\n      jumpi\n      mload(0x40)\n      shl(0xe5, 0x461bcd)\n      dup2\n      mstore\n        /* \"#utility.yul\":7890:7892   */\n      0x20\n        /* \"Raindrop.sol\":2786:2849  require(!raindropExists[raindropId], \"Raindrop already exists\") */\n      0x04\n      dup3\n      add\n        /* \"#utility.yul\":7872:7893   */\n      mstore\n        /* \"#utility.yul\":7929:7931   */\n      0x17\n        /* \"#utility.yul\":7909:7927   */\n      0x24\n      dup3\n      add\n        /* \"#utility.yul\":7902:7932   */\n      mstore\n        /* \"#utility.yul\":7968:7993   */\n      0x5261696e64726f7020616c726561647920657869737473000000000000000000\n        /* \"#utility.yul\":7948:7966   */\n      0x44\n      dup3\n      add\n        /* \"#utility.yul\":7941:7994   */\n      mstore\n        /* \"#utility.yul\":8011:8029   */\n      0x64\n      add\n        /* \"Raindrop.sol\":2786:2849  require(!raindropExists[raindropId], \"Raindrop already exists\") */\n    tag_101:\n      mload(0x40)\n      dup1\n      swap2\n      sub\n      swap1\n      revert\n    tag_100:\n      sub(shl(0xa0, 0x01), 0x01)\n        /* \"Raindrop.sol\":2867:2886  token != address(0) */\n      dup4\n      and\n        /* \"Raindrop.sol\":2859:2912  require(token != address(0), \"Invalid token address\") */\n      tag_103\n      jumpi\n      mload(0x40)\n      shl(0xe5, 0x461bcd)\n      dup2\n      mstore\n        /* \"#utility.yul\":8242:8244   */\n      0x20\n        /* \"Raindrop.sol\":2859:2912  require(token != address(0), \"Invalid token address\") */\n      0x04\n      dup3\n      add\n        /* \"#utility.yul\":8224:8245   */\n      mstore\n        /* \"#utility.yul\":8281:8283   */\n      0x15\n        /* \"#utility.yul\":8261:8279   */\n      0x24\n      dup3\n      add\n        /* \"#utility.yul\":8254:8284   */\n      mstore\n      shl(0x58, 0x496e76616c696420746f6b656e2061646472657373)\n        /* \"#utility.yul\":8300:8318   */\n      0x44\n      dup3\n      add\n        /* \"#utility.yul\":8293:8344   */\n      mstore\n        /* \"#utility.yul\":8361:8379   */\n      0x64\n      add\n        /* \"Raindrop.sol\":2859:2912  require(token != address(0), \"Invalid token address\") */\n      tag_101\n        /* \"#utility.yul\":8040:8385   */\n      jump\n        /* \"Raindrop.sol\":2859:2912  require(token != address(0), \"Invalid token address\") */\n    tag_103:\n        /* \"Raindrop.sol\":2944:2945  0 */\n      0x00\n        /* \"Raindrop.sol\":2930:2941  totalAmount */\n      dup3\n        /* \"Raindrop.sol\":2930:2945  totalAmount > 0 */\n      gt\n        /* \"Raindrop.sol\":2922:2979  require(totalAmount > 0, \"Amount must be greater than 0\") */\n      tag_106\n      jumpi\n      mload(0x40)\n      shl(0xe5, 0x461bcd)\n      dup2\n      mstore\n        /* \"#utility.yul\":8592:8594   */\n      0x20\n        /* \"Raindrop.sol\":2922:2979  require(totalAmount > 0, \"Amount must be greater than 0\") */\n      0x04\n      dup3\n      add\n        /* \"#utility.yul\":8574:8595   */\n      mstore\n        /* \"#utility.yul\":8631:8633   */\n      0x1d\n        /* \"#utility.yul\":8611:8629   */\n      0x24\n      dup3\n      add\n        /* \"#utility.yul\":8604:8634   */\n      mstore\n        /* \"#utility.yul\":8670:8701   */\n      0x416d6f756e74206d7573742062652067726561746572207468616e2030000000\n        /* \"#utility.yul\":8650:8668   */\n      0x44\n      dup3\n      add\n        /* \"#utility.yul\":8643:8702   */\n      mstore\n        /* \"#utility.yul\":8719:8737   */\n      0x64\n      add\n        /* \"Raindrop.sol\":2922:2979  require(totalAmount > 0, \"Amount must be greater than 0\") */\n      tag_101\n        /* \"#utility.yul\":8390:8743   */\n      jump\n        /* \"Raindrop.sol\":2922:2979  require(totalAmount > 0, \"Amount must be greater than 0\") */\n    tag_106:\n        /* \"Raindrop.sol\":3013:3028  block.timestamp */\n      timestamp\n        /* \"Raindrop.sol\":2997:3010  scheduledTime */\n      dup2\n        /* \"Raindrop.sol\":2997:3028  scheduledTime > block.timestamp */\n      gt\n        /* \"Raindrop.sol\":2989:3065  require(scheduledTime > block.timestamp, \"Scheduled time must be in future\") */\n      tag_109\n      jumpi\n      mload(0x40)\n      shl(0xe5, 0x461bcd)\n      dup2\n      mstore\n        /* \"#utility.yul\":8950:8952   */\n      0x20\n        /* \"Raindrop.sol\":2989:3065  require(scheduledTime > block.timestamp, \"Scheduled time must be in future\") */\n      0x04\n      dup3\n      add\n        /* \"#utility.yul\":8932:8953   */\n      dup2\n      swap1\n      mstore\n        /* \"#utility.yul\":8969:8987   */\n      0x24\n      dup3\n      add\n        /* \"#utility.yul\":8962:8992   */\n      mstore\n        /* \"#utility.yul\":9028:9062   */\n      0x5363686564756c65642074696d65206d75737420626520696e20667574757265\n        /* \"#utility.yul\":9008:9026   */\n      0x44\n      dup3\n      add\n        /* \"#utility.yul\":9001:9063   */\n      mstore\n        /* \"#utility.yul\":9080:9098   */\n      0x64\n      add\n        /* \"Raindrop.sol\":2989:3065  require(scheduledTime > block.timestamp, \"Scheduled time must be in future\") */\n      tag_101\n        /* \"#utility.yul\":8748:9104   */\n      jump\n        /* \"Raindrop.sol\":2989:3065  require(scheduledTime > block.timestamp, \"Scheduled time must be in future\") */\n    tag_109:\n        /* \"Raindrop.sol\":3113:3183  IERC20(token).safeTransferFrom(msg.sender, address(this), totalAmount) */\n      tag_112\n      sub(shl(0xa0, 0x01), 0x01)\n        /* \"Raindrop.sol\":3113:3143  IERC20(token).safeTransferFrom */\n      dup5\n      and\n        /* \"Raindrop.sol\":3144:3154  msg.sender */\n      caller\n        /* \"Raindrop.sol\":3164:3168  this */\n      address\n        /* \"Raindrop.sol\":3171:3182  totalAmount */\n      dup6\n        /* \"Raindrop.sol\":3113:3143  IERC20(token).safeTransferFrom */\n      tag_113\n        /* \"Raindrop.sol\":3113:3183  IERC20(token).safeTransferFrom(msg.sender, address(this), totalAmount) */\n      jump\t// in\n    tag_112:\n        /* \"Raindrop.sol\":3228:3256  Raindrop storage newRaindrop */\n      0x00\n        /* \"Raindrop.sol\":3259:3268  raindrops */\n      0x04\n        /* \"Raindrop.sol\":3269:3279  raindropId */\n      dup7\n      dup7\n        /* \"Raindrop.sol\":3259:3280  raindrops[raindropId] */\n      mload(0x40)\n      tag_114\n      swap3\n      swap2\n      swap1\n      tag_99\n      jump\t// in\n    tag_114:\n      swap1\n      dup2\n      mstore\n      mload(0x40)\n      swap1\n      dup2\n      swap1\n      sub\n      0x20\n      add\n      swap1\n      keccak256\n      swap1\n      pop\n      dup1\n        /* \"Raindrop.sol\":3290:3325  newRaindrop.raindropId = raindropId */\n      tag_115\n        /* \"Raindrop.sol\":3315:3325  raindropId */\n      dup7\n      dup9\n        /* \"Raindrop.sol\":3259:3280  raindrops[raindropId] */\n      dup4\n        /* \"Raindrop.sol\":3290:3325  newRaindrop.raindropId = raindropId */\n      tag_116\n      jump\t// in\n    tag_115:\n      pop\n        /* \"Raindrop.sol\":3335:3351  newRaindrop.host */\n      0x01\n      dup2\n      dup2\n      add\n        /* \"Raindrop.sol\":3335:3364  newRaindrop.host = msg.sender */\n      dup1\n      sload\n        /* \"Raindrop.sol\":3354:3364  msg.sender */\n      caller\n      not(sub(shl(0xa0, 0x01), 0x01))\n        /* \"Raindrop.sol\":3335:3364  newRaindrop.host = msg.sender */\n      swap2\n      dup3\n      and\n      or\n      swap1\n      swap2\n      sstore\n        /* \"Raindrop.sol\":3374:3391  newRaindrop.token */\n      0x02\n      dup4\n      add\n        /* \"Raindrop.sol\":3374:3399  newRaindrop.token = token */\n      dup1\n      sload\n      swap1\n      swap2\n      and\n      sub(shl(0xa0, 0x01), 0x01)\n      dup8\n      and\n      or\n      swap1\n      sstore\n        /* \"Raindrop.sol\":3409:3432  newRaindrop.totalAmount */\n      0x03\n      dup3\n      add\n        /* \"Raindrop.sol\":3409:3446  newRaindrop.totalAmount = totalAmount */\n      dup5\n      swap1\n      sstore\n        /* \"Raindrop.sol\":3456:3481  newRaindrop.scheduledTime */\n      0x04\n      dup3\n      add\n        /* \"Raindrop.sol\":3456:3497  newRaindrop.scheduledTime = scheduledTime */\n      dup4\n      swap1\n      sstore\n        /* \"Raindrop.sol\":3507:3527  newRaindrop.executed */\n      0x05\n      dup1\n      dup4\n      add\n        /* \"Raindrop.sol\":3507:3535  newRaindrop.executed = false */\n      dup1\n      sload\n      not(0xffff)\n        /* \"Raindrop.sol\":3545:3574  newRaindrop.cancelled = false */\n      and\n      swap1\n      sstore\n      0x00\n        /* \"Raindrop.sol\":3584:3612  newRaindrop.participantCount */\n      0x06\n      dup5\n      add\n        /* \"Raindrop.sol\":3584:3616  newRaindrop.participantCount = 0 */\n      sstore\n        /* \"Raindrop.sol\":3627:3653  raindropExists[raindropId] */\n      mload(0x40)\n      tag_117\n      swap1\n        /* \"Raindrop.sol\":3642:3652  raindropId */\n      dup10\n      swap1\n      dup10\n      swap1\n        /* \"Raindrop.sol\":3627:3653  raindropExists[raindropId] */\n      tag_99\n      jump\t// in\n    tag_117:\n      swap1\n      dup2\n      mstore\n      mload(0x40)\n      swap1\n      dup2\n      swap1\n      sub\n      0x20\n      add\n      dup2\n      keccak256\n        /* \"Raindrop.sol\":3627:3660  raindropExists[raindropId] = true */\n      dup1\n      sload\n      swap3\n      iszero\n      iszero\n      not(0xff)\n      swap1\n      swap4\n      and\n      swap3\n      swap1\n      swap3\n      or\n      swap1\n      swap2\n      sstore\n      sub(shl(0xa0, 0x01), 0x01)\n        /* \"Raindrop.sol\":3676:3750  RaindropCreated(raindropId, msg.sender, token, totalAmount, scheduledTime) */\n      dup6\n      and\n      swap1\n        /* \"Raindrop.sol\":3704:3714  msg.sender */\n      caller\n      swap1\n        /* \"Raindrop.sol\":3676:3750  RaindropCreated(raindropId, msg.sender, token, totalAmount, scheduledTime) */\n      tag_118\n      swap1\n        /* \"Raindrop.sol\":3692:3702  raindropId */\n      dup10\n      swap1\n      dup10\n      swap1\n        /* \"Raindrop.sol\":3676:3750  RaindropCreated(raindropId, msg.sender, token, totalAmount, scheduledTime) */\n      tag_99\n      jump\t// in\n    tag_118:\n      0x40\n      dup1\n      mload\n      swap2\n      dup3\n      swap1\n      sub\n      dup3\n      keccak256\n        /* \"#utility.yul\":11691:11716   */\n      dup8\n      dup4\n      mstore\n        /* \"#utility.yul\":11747:11749   */\n      0x20\n        /* \"#utility.yul\":11732:11750   */\n      dup4\n      add\n        /* \"#utility.yul\":11725:11759   */\n      dup8\n      swap1\n      mstore\n        /* \"Raindrop.sol\":3676:3750  RaindropCreated(raindropId, msg.sender, token, totalAmount, scheduledTime) */\n      swap2\n      0x04c9d53d935621250c2a973ca08a8ba1828a8ae00d5e5a57c23344069a08f35f\n      swap2\n        /* \"#utility.yul\":11664:11682   */\n      add\n        /* \"Raindrop.sol\":3676:3750  RaindropCreated(raindropId, msg.sender, token, totalAmount, scheduledTime) */\n      mload(0x40)\n      dup1\n      swap2\n      sub\n      swap1\n      log4\n        /* \"Raindrop.sol\":2776:3757  {... */\n      pop\n        /* \"@openzeppelin/contracts/security/ReentrancyGuard.sol\":2303:2323  _nonReentrantAfter() */\n      tag_121\n        /* \"@openzeppelin/contracts/security/ReentrancyGuard.sol\":1716:1717  1 */\n      0x01\n        /* \"@openzeppelin/contracts/security/ReentrancyGuard.sol\":2809:2816  _status */\n      0x00\n        /* \"@openzeppelin/contracts/security/ReentrancyGuard.sol\":2809:2831  _status = _NOT_ENTERED */\n      sstore\n        /* \"@openzeppelin/contracts/security/ReentrancyGuard.sol\":2629:2838  function _nonReentrantAfter() private {... */\n      jump\n        /* \"@openzeppelin/contracts/security/ReentrancyGuard.sol\":2303:2323  _nonReentrantAfter() */\n    tag_121:\n        /* \"Raindrop.sol\":2605:3757  function createRaindrop(... */\n      pop\n      pop\n      pop\n      pop\n      pop\n      jump\t// out\n        /* \"Raindrop.sol\":3970:5758  function updateParticipants(... */\n    tag_48:\n        /* \"Raindrop.sol\":4108:4122  raindropExists */\n      0x05\n        /* \"Raindrop.sol\":4123:4133  raindropId */\n      dup5\n      dup5\n        /* \"Raindrop.sol\":4108:4134  raindropExists[raindropId] */\n      mload(0x40)\n      tag_124\n      swap3\n      swap2\n      swap1\n      tag_99\n      jump\t// in\n    tag_124:\n      swap1\n      dup2\n      mstore\n      mload(0x40)\n      swap1\n      dup2\n      swap1\n      sub\n      0x20\n      add\n      swap1\n      keccak256\n      sload\n      0xff\n      and\n        /* \"Raindrop.sol\":4100:4162  require(raindropExists[raindropId], \"Raindrop does not exist\") */\n      tag_125\n      jumpi\n      mload(0x40)\n      shl(0xe5, 0x461bcd)\n      dup2\n      mstore\n      0x04\n      add\n      tag_101\n      swap1\n      tag_127\n      jump\t// in\n    tag_125:\n        /* \"Raindrop.sol\":4181:4206  Raindrop storage raindrop */\n      0x00\n        /* \"Raindrop.sol\":4209:4218  raindrops */\n      0x04\n        /* \"Raindrop.sol\":4219:4229  raindropId */\n      dup6\n      dup6\n        /* \"Raindrop.sol\":4209:4230  raindrops[raindropId] */\n      mload(0x40)\n      tag_128\n      swap3\n      swap2\n      swap1\n      tag_99\n      jump\t// in\n    tag_128:\n      swap1\n      dup2\n      mstore\n      mload(0x40)\n      swap1\n      dup2\n      swap1\n      sub\n      0x20\n      add\n      swap1\n      keccak256\n        /* \"Raindrop.sol\":4262:4275  raindrop.host */\n      0x01\n      dup2\n      add\n      sload\n        /* \"Raindrop.sol\":4209:4230  raindrops[raindropId] */\n      swap1\n      swap2\n      pop\n        /* \"Raindrop.sol\":4248:4258  msg.sender */\n      caller\n      sub(shl(0xa0, 0x01), 0x01)\n        /* \"Raindrop.sol\":4262:4275  raindrop.host */\n      swap1\n      swap2\n      and\n        /* \"Raindrop.sol\":4248:4275  msg.sender == raindrop.host */\n      eq\n      dup1\n        /* \"Raindrop.sol\":4248:4300  msg.sender == raindrop.host || msg.sender == owner() */\n      tag_129\n      jumpi\n      pop\n        /* \"@openzeppelin/contracts/access/Ownable.sol\":1710:1716  _owner */\n      and(sub(shl(0xa0, 0x01), 0x01), sload(0x01))\n        /* \"Raindrop.sol\":4279:4289  msg.sender */\n      caller\n        /* \"Raindrop.sol\":4279:4300  msg.sender == owner() */\n      eq\n        /* \"Raindrop.sol\":4248:4300  msg.sender == raindrop.host || msg.sender == owner() */\n    tag_129:\n        /* \"Raindrop.sol\":4240:4319  require(msg.sender == raindrop.host || msg.sender == owner(), \"Not authorized\") */\n      tag_131\n      jumpi\n      mload(0x40)\n      shl(0xe5, 0x461bcd)\n      dup2\n      mstore\n      0x04\n      add\n      tag_101\n      swap1\n      tag_133\n      jump\t// in\n    tag_131:\n        /* \"Raindrop.sol\":4338:4355  raindrop.executed */\n      0x05\n      dup2\n      add\n      sload\n      0xff\n      and\n        /* \"Raindrop.sol\":4337:4355  !raindrop.executed */\n      iszero\n        /* \"Raindrop.sol\":4329:4385  require(!raindrop.executed, \"Raindrop already executed\") */\n      tag_134\n      jumpi\n      mload(0x40)\n      shl(0xe5, 0x461bcd)\n      dup2\n      mstore\n      0x04\n      add\n      tag_101\n      swap1\n      tag_136\n      jump\t// in\n    tag_134:\n        /* \"Raindrop.sol\":4404:4422  raindrop.cancelled */\n      0x05\n      dup2\n      add\n      sload\n      0x0100\n      swap1\n      div\n      0xff\n      and\n        /* \"Raindrop.sol\":4403:4422  !raindrop.cancelled */\n      iszero\n        /* \"Raindrop.sol\":4395:4445  require(!raindrop.cancelled, \"Raindrop cancelled\") */\n      tag_137\n      jumpi\n      mload(0x40)\n      shl(0xe5, 0x461bcd)\n      dup2\n      mstore\n        /* \"#utility.yul\":13021:13023   */\n      0x20\n        /* \"Raindrop.sol\":4395:4445  require(!raindrop.cancelled, \"Raindrop cancelled\") */\n      0x04\n      dup3\n      add\n        /* \"#utility.yul\":13003:13024   */\n      mstore\n        /* \"#utility.yul\":13060:13062   */\n      0x12\n        /* \"#utility.yul\":13040:13058   */\n      0x24\n      dup3\n      add\n        /* \"#utility.yul\":13033:13063   */\n      mstore\n      shl(0x72, 0x14985a5b991c9bdc0818d85b98d95b1b1959)\n        /* \"#utility.yul\":13079:13097   */\n      0x44\n      dup3\n      add\n        /* \"#utility.yul\":13072:13120   */\n      mstore\n        /* \"#utility.yul\":13137:13155   */\n      0x64\n      add\n        /* \"Raindrop.sol\":4395:4445  require(!raindrop.cancelled, \"Raindrop cancelled\") */\n      tag_101\n        /* \"#utility.yul\":12819:13161   */\n      jump\n        /* \"Raindrop.sol\":4395:4445  require(!raindrop.cancelled, \"Raindrop cancelled\") */\n    tag_137:\n        /* \"Raindrop.sol\":886:892  100000 */\n      0x0186a0\n        /* \"Raindrop.sol\":4463:4502  participants.length <= MAX_PARTICIPANTS */\n      dup3\n      gt\n      iszero\n        /* \"Raindrop.sol\":4455:4528  require(participants.length <= MAX_PARTICIPANTS, \"Too many participants\") */\n      tag_140\n      jumpi\n      mload(0x40)\n      shl(0xe5, 0x461bcd)\n      dup2\n      mstore\n        /* \"#utility.yul\":13368:13370   */\n      0x20\n        /* \"Raindrop.sol\":4455:4528  require(participants.length <= MAX_PARTICIPANTS, \"Too many participants\") */\n      0x04\n      dup3\n      add\n        /* \"#utility.yul\":13350:13371   */\n      mstore\n        /* \"#utility.yul\":13407:13409   */\n      0x15\n        /* \"#utility.yul\":13387:13405   */\n      0x24\n      dup3\n      add\n        /* \"#utility.yul\":13380:13410   */\n      mstore\n      shl(0x58, 0x546f6f206d616e79207061727469636970616e7473)\n        /* \"#utility.yul\":13426:13444   */\n      0x44\n      dup3\n      add\n        /* \"#utility.yul\":13419:13470   */\n      mstore\n        /* \"#utility.yul\":13487:13505   */\n      0x64\n      add\n        /* \"Raindrop.sol\":4455:4528  require(participants.length <= MAX_PARTICIPANTS, \"Too many participants\") */\n      tag_101\n        /* \"#utility.yul\":13166:13511   */\n      jump\n        /* \"Raindrop.sol\":4455:4528  require(participants.length <= MAX_PARTICIPANTS, \"Too many participants\") */\n    tag_140:\n        /* \"Raindrop.sol\":4583:4592  uint256 i */\n      0x00\n        /* \"Raindrop.sol\":4578:4723  for (uint256 i = 0; i < raindrop.participantList.length; i++) {... */\n    tag_143:\n        /* \"Raindrop.sol\":4602:4626  raindrop.participantList */\n      0x08\n      dup3\n      add\n        /* \"Raindrop.sol\":4602:4633  raindrop.participantList.length */\n      sload\n        /* \"Raindrop.sol\":4598:4633  i < raindrop.participantList.length */\n      dup2\n      lt\n        /* \"Raindrop.sol\":4578:4723  for (uint256 i = 0; i < raindrop.participantList.length; i++) {... */\n      iszero\n      tag_144\n      jumpi\n        /* \"Raindrop.sol\":4707:4712  false */\n      0x00\n        /* \"Raindrop.sol\":4654:4662  raindrop */\n      dup3\n        /* \"Raindrop.sol\":4654:4675  raindrop.participants */\n      0x07\n      add\n        /* \"Raindrop.sol\":4654:4704  raindrop.participants[raindrop.participantList[i]] */\n      0x00\n        /* \"Raindrop.sol\":4676:4684  raindrop */\n      dup5\n        /* \"Raindrop.sol\":4676:4700  raindrop.participantList */\n      0x08\n      add\n        /* \"Raindrop.sol\":4701:4702  i */\n      dup5\n        /* \"Raindrop.sol\":4676:4703  raindrop.participantList[i] */\n      dup2\n      sload\n      dup2\n      lt\n      tag_147\n      jumpi\n      tag_147\n      tag_148\n      jump\t// in\n    tag_147:\n      0x00\n      swap2\n      dup3\n      mstore\n      0x20\n      dup1\n      dup4\n      keccak256\n      swap2\n      swap1\n      swap2\n      add\n      sload\n      sub(shl(0xa0, 0x01), 0x01)\n      and\n        /* \"Raindrop.sol\":4654:4704  raindrop.participants[raindrop.participantList[i]] */\n      dup4\n      mstore\n      dup3\n      add\n      swap3\n      swap1\n      swap3\n      mstore\n      0x40\n      add\n      swap1\n      keccak256\n        /* \"Raindrop.sol\":4654:4712  raindrop.participants[raindrop.participantList[i]] = false */\n      dup1\n      sload\n      not(0xff)\n      and\n      swap2\n      iszero\n      iszero\n      swap2\n      swap1\n      swap2\n      or\n      swap1\n      sstore\n      0x01\n        /* \"Raindrop.sol\":4635:4638  i++ */\n      add\n        /* \"Raindrop.sol\":4578:4723  for (uint256 i = 0; i < raindrop.participantList.length; i++) {... */\n      jump(tag_143)\n    tag_144:\n      pop\n        /* \"Raindrop.sol\":4732:4763  delete raindrop.participantList */\n      tag_150\n        /* \"Raindrop.sol\":4739:4763  raindrop.participantList */\n      0x08\n      dup3\n      add\n      0x00\n        /* \"Raindrop.sol\":4732:4763  delete raindrop.participantList */\n      tag_151\n      jump\t// in\n    tag_150:\n        /* \"Raindrop.sol\":4811:4820  uint256 i */\n      0x00\n        /* \"Raindrop.sol\":4806:5279  for (uint256 i = 0; i < participants.length; i++) {... */\n    tag_152:\n        /* \"Raindrop.sol\":4826:4849  i < participants.length */\n      dup3\n      dup2\n      lt\n        /* \"Raindrop.sol\":4806:5279  for (uint256 i = 0; i < participants.length; i++) {... */\n      iszero\n      tag_153\n      jumpi\n        /* \"Raindrop.sol\":4870:4889  address participant */\n      0x00\n        /* \"Raindrop.sol\":4892:4904  participants */\n      dup5\n      dup5\n        /* \"Raindrop.sol\":4905:4906  i */\n      dup4\n        /* \"Raindrop.sol\":4892:4907  participants[i] */\n      dup2\n      dup2\n      lt\n      tag_156\n      jumpi\n      tag_156\n      tag_148\n      jump\t// in\n    tag_156:\n      swap1\n      pop\n      0x20\n      mul\n      add\n      0x20\n      dup2\n      add\n      swap1\n      tag_157\n      swap2\n      swap1\n      tag_86\n      jump\t// in\n    tag_157:\n        /* \"Raindrop.sol\":4870:4907  address participant = participants[i] */\n      swap1\n      pop\n      sub(shl(0xa0, 0x01), 0x01)\n        /* \"Raindrop.sol\":4929:4954  participant != address(0) */\n      dup2\n      and\n        /* \"Raindrop.sol\":4921:4986  require(participant != address(0), \"Invalid participant address\") */\n      tag_158\n      jumpi\n      mload(0x40)\n      shl(0xe5, 0x461bcd)\n      dup2\n      mstore\n        /* \"#utility.yul\":13850:13852   */\n      0x20\n        /* \"Raindrop.sol\":4921:4986  require(participant != address(0), \"Invalid participant address\") */\n      0x04\n      dup3\n      add\n        /* \"#utility.yul\":13832:13853   */\n      mstore\n        /* \"#utility.yul\":13889:13891   */\n      0x1b\n        /* \"#utility.yul\":13869:13887   */\n      0x24\n      dup3\n      add\n        /* \"#utility.yul\":13862:13892   */\n      mstore\n        /* \"#utility.yul\":13928:13957   */\n      0x496e76616c6964207061727469636970616e7420616464726573730000000000\n        /* \"#utility.yul\":13908:13926   */\n      0x44\n      dup3\n      add\n        /* \"#utility.yul\":13901:13958   */\n      mstore\n        /* \"#utility.yul\":13975:13993   */\n      0x64\n      add\n        /* \"Raindrop.sol\":4921:4986  require(participant != address(0), \"Invalid participant address\") */\n      tag_101\n        /* \"#utility.yul\":13648:13999   */\n      jump\n        /* \"Raindrop.sol\":4921:4986  require(participant != address(0), \"Invalid participant address\") */\n    tag_158:\n        /* \"Raindrop.sol\":5023:5036  raindrop.host */\n      0x01\n      dup4\n      add\n      sload\n      sub(shl(0xa0, 0x01), 0x01)\n      swap1\n      dup2\n      and\n        /* \"Raindrop.sol\":5008:5036  participant != raindrop.host */\n      swap1\n      dup3\n      and\n      sub\n        /* \"Raindrop.sol\":5000:5067  require(participant != raindrop.host, \"Host cannot be participant\") */\n      tag_161\n      jumpi\n      mload(0x40)\n      shl(0xe5, 0x461bcd)\n      dup2\n      mstore\n        /* \"#utility.yul\":14206:14208   */\n      0x20\n        /* \"Raindrop.sol\":5000:5067  require(participant != raindrop.host, \"Host cannot be participant\") */\n      0x04\n      dup3\n      add\n        /* \"#utility.yul\":14188:14209   */\n      mstore\n        /* \"#utility.yul\":14245:14247   */\n      0x1a\n        /* \"#utility.yul\":14225:14243   */\n      0x24\n      dup3\n      add\n        /* \"#utility.yul\":14218:14248   */\n      mstore\n        /* \"#utility.yul\":14284:14312   */\n      0x486f73742063616e6e6f74206265207061727469636970616e74000000000000\n        /* \"#utility.yul\":14264:14282   */\n      0x44\n      dup3\n      add\n        /* \"#utility.yul\":14257:14313   */\n      mstore\n        /* \"#utility.yul\":14330:14348   */\n      0x64\n      add\n        /* \"Raindrop.sol\":5000:5067  require(participant != raindrop.host, \"Host cannot be participant\") */\n      tag_101\n        /* \"#utility.yul\":14004:14354   */\n      jump\n        /* \"Raindrop.sol\":5000:5067  require(participant != raindrop.host, \"Host cannot be participant\") */\n    tag_161:\n      sub(shl(0xa0, 0x01), 0x01)\n        /* \"Raindrop.sol\":5099:5133  raindrop.participants[participant] */\n      dup2\n      and\n      0x00\n      swap1\n      dup2\n      mstore\n        /* \"Raindrop.sol\":5099:5120  raindrop.participants */\n      0x07\n      dup5\n      add\n        /* \"Raindrop.sol\":5099:5133  raindrop.participants[participant] */\n      0x20\n      mstore\n      0x40\n      swap1\n      keccak256\n      sload\n      0xff\n      and\n        /* \"Raindrop.sol\":5094:5269  if (!raindrop.participants[participant]) {... */\n      tag_164\n      jumpi\n      sub(shl(0xa0, 0x01), 0x01)\n        /* \"Raindrop.sol\":5153:5187  raindrop.participants[participant] */\n      dup2\n      and\n      0x00\n      dup2\n      dup2\n      mstore\n        /* \"Raindrop.sol\":5153:5174  raindrop.participants */\n      0x07\n      dup6\n      add\n        /* \"Raindrop.sol\":5153:5187  raindrop.participants[participant] */\n      0x20\n      swap1\n      dup2\n      mstore\n      0x40\n      dup3\n      keccak256\n        /* \"Raindrop.sol\":5153:5194  raindrop.participants[participant] = true */\n      dup1\n      sload\n      not(0xff)\n      and\n        /* \"Raindrop.sol\":5190:5194  true */\n      0x01\n        /* \"Raindrop.sol\":5153:5194  raindrop.participants[participant] = true */\n      swap1\n      dup2\n      or\n      swap1\n      swap2\n      sstore\n        /* \"Raindrop.sol\":5212:5236  raindrop.participantList */\n      0x08\n      dup8\n      add\n        /* \"Raindrop.sol\":5212:5254  raindrop.participantList.push(participant) */\n      dup1\n      sload\n      swap2\n      dup3\n      add\n      dup2\n      sstore\n      dup4\n      mstore\n      swap2\n      keccak256\n      add\n      dup1\n      sload\n      not(sub(shl(0xa0, 0x01), 0x01))\n      and\n      swap1\n      swap2\n      or\n      swap1\n      sstore\n        /* \"Raindrop.sol\":5094:5269  if (!raindrop.participants[participant]) {... */\n    tag_164:\n      pop\n        /* \"Raindrop.sol\":4851:4854  i++ */\n      0x01\n      add\n        /* \"Raindrop.sol\":4806:5279  for (uint256 i = 0; i < participants.length; i++) {... */\n      jump(tag_152)\n    tag_153:\n      pop\n        /* \"Raindrop.sol\":5317:5341  raindrop.participantList */\n      0x08\n      dup2\n      add\n        /* \"Raindrop.sol\":5317:5348  raindrop.participantList.length */\n      sload\n        /* \"Raindrop.sol\":5289:5314  raindrop.participantCount */\n      0x06\n      dup3\n      add\n        /* \"Raindrop.sol\":5289:5348  raindrop.participantCount = raindrop.participantList.length */\n      dup2\n      swap1\n      sstore\n        /* \"Raindrop.sol\":5414:5443  raindrop.participantCount > 0 */\n      iszero\n        /* \"Raindrop.sol\":5410:5678  if (raindrop.participantCount > 0) {... */\n      tag_166\n      jumpi\n        /* \"Raindrop.sol\":5459:5487  uint256 amountPerParticipant */\n      0x00\n        /* \"Raindrop.sol\":5513:5521  raindrop */\n      dup2\n        /* \"Raindrop.sol\":5513:5538  raindrop.participantCount */\n      0x06\n      add\n      sload\n        /* \"Raindrop.sol\":5490:5498  raindrop */\n      dup3\n        /* \"Raindrop.sol\":5490:5510  raindrop.totalAmount */\n      0x03\n      add\n      sload\n        /* \"Raindrop.sol\":5490:5538  raindrop.totalAmount / raindrop.participantCount */\n      tag_167\n      swap2\n      swap1\n      tag_168\n      jump\t// in\n    tag_167:\n        /* \"Raindrop.sol\":5459:5538  uint256 amountPerParticipant = raindrop.totalAmount / raindrop.participantCount */\n      swap1\n      pop\n        /* \"Raindrop.sol\":1017:1018  1 */\n      0x01\n        /* \"Raindrop.sol\":5560:5580  amountPerParticipant */\n      dup2\n        /* \"Raindrop.sol\":5560:5610  amountPerParticipant >= MIN_AMOUNT_PER_PARTICIPANT */\n      lt\n      iszero\n        /* \"Raindrop.sol\":5552:5667  require(amountPerParticipant >= MIN_AMOUNT_PER_PARTICIPANT, ... */\n      tag_169\n      jumpi\n      mload(0x40)\n      shl(0xe5, 0x461bcd)\n      dup2\n      mstore\n        /* \"#utility.yul\":14915:14917   */\n      0x20\n        /* \"Raindrop.sol\":5552:5667  require(amountPerParticipant >= MIN_AMOUNT_PER_PARTICIPANT, ... */\n      0x04\n      dup3\n      add\n        /* \"#utility.yul\":14897:14918   */\n      dup2\n      swap1\n      mstore\n        /* \"#utility.yul\":14934:14952   */\n      0x24\n      dup3\n      add\n        /* \"#utility.yul\":14927:14957   */\n      mstore\n        /* \"#utility.yul\":14993:15027   */\n      0x416d6f756e7420706572207061727469636970616e7420746f6f20736d616c6c\n        /* \"#utility.yul\":14973:14991   */\n      0x44\n      dup3\n      add\n        /* \"#utility.yul\":14966:15028   */\n      mstore\n        /* \"#utility.yul\":15045:15063   */\n      0x64\n      add\n        /* \"Raindrop.sol\":5552:5667  require(amountPerParticipant >= MIN_AMOUNT_PER_PARTICIPANT, ... */\n      tag_101\n        /* \"#utility.yul\":14713:15069   */\n      jump\n        /* \"Raindrop.sol\":5552:5667  require(amountPerParticipant >= MIN_AMOUNT_PER_PARTICIPANT, ... */\n    tag_169:\n        /* \"Raindrop.sol\":5445:5678  {... */\n      pop\n        /* \"Raindrop.sol\":5410:5678  if (raindrop.participantCount > 0) {... */\n    tag_166:\n        /* \"Raindrop.sol\":5713:5723  raindropId */\n      dup5\n      dup5\n        /* \"Raindrop.sol\":5693:5751  ParticipantsUpdated(raindropId, raindrop.participantCount) */\n      mload(0x40)\n      tag_172\n      swap3\n      swap2\n      swap1\n      tag_99\n      jump\t// in\n    tag_172:\n      mload(0x40)\n      swap1\n      dup2\n      swap1\n      sub\n      dup2\n      keccak256\n        /* \"Raindrop.sol\":5725:5750  raindrop.participantCount */\n      0x06\n      dup4\n      add\n      sload\n        /* \"#utility.yul\":2786:2811   */\n      dup3\n      mstore\n        /* \"Raindrop.sol\":5693:5751  ParticipantsUpdated(raindropId, raindrop.participantCount) */\n      swap1\n      0x33413169b586f09864fc3649ce426faf08ff20ff0580328a11860e98ab66a014\n      swap1\n        /* \"#utility.yul\":2774:2776   */\n      0x20\n        /* \"#utility.yul\":2759:2777   */\n      add\n        /* \"Raindrop.sol\":5693:5751  ParticipantsUpdated(raindropId, raindrop.participantCount) */\n      mload(0x40)\n      dup1\n      swap2\n      sub\n      swap1\n      log2\n        /* \"Raindrop.sol\":4090:5758  {... */\n      pop\n        /* \"Raindrop.sol\":3970:5758  function updateParticipants(... */\n      pop\n      pop\n      pop\n      pop\n      jump\t// out\n        /* \"@openzeppelin/contracts/access/Ownable.sol\":2293:2394  function renounceOwnership() public virtual onlyOwner {... */\n    tag_50:\n        /* \"@openzeppelin/contracts/access/Ownable.sol\":1531:1544  _checkOwner() */\n      tag_175\n        /* \"@openzeppelin/contracts/access/Ownable.sol\":1531:1542  _checkOwner */\n      tag_176\n        /* \"@openzeppelin/contracts/access/Ownable.sol\":1531:1544  _checkOwner() */\n      jump\t// in\n    tag_175:\n        /* \"@openzeppelin/contracts/access/Ownable.sol\":2357:2387  _transferOwnership(address(0)) */\n      tag_178\n        /* \"@openzeppelin/contracts/access/Ownable.sol\":2384:2385  0 */\n      0x00\n        /* \"@openzeppelin/contracts/access/Ownable.sol\":2357:2375  _transferOwnership */\n      tag_179\n        /* \"@openzeppelin/contracts/access/Ownable.sol\":2357:2387  _transferOwnership(address(0)) */\n      jump\t// in\n    tag_178:\n        /* \"@openzeppelin/contracts/access/Ownable.sol\":2293:2394  function renounceOwnership() public virtual onlyOwner {... */\n      jump\t// out\n        /* \"Raindrop.sol\":8520:9256  function getRaindropDetails(string calldata raindropId) ... */\n    tag_54:\n        /* \"Raindrop.sol\":8639:8651  address host */\n      0x00\n        /* \"Raindrop.sol\":8665:8678  address token */\n      dup1\n        /* \"Raindrop.sol\":8692:8711  uint256 totalAmount */\n      0x00\n        /* \"Raindrop.sol\":8725:8746  uint256 scheduledTime */\n      dup1\n        /* \"Raindrop.sol\":8760:8773  bool executed */\n      0x00\n        /* \"Raindrop.sol\":8787:8801  bool cancelled */\n      dup1\n        /* \"Raindrop.sol\":8815:8839  uint256 participantCount */\n      0x00\n        /* \"Raindrop.sol\":8873:8887  raindropExists */\n      0x05\n        /* \"Raindrop.sol\":8888:8898  raindropId */\n      dup10\n      dup10\n        /* \"Raindrop.sol\":8873:8899  raindropExists[raindropId] */\n      mload(0x40)\n      tag_181\n      swap3\n      swap2\n      swap1\n      tag_99\n      jump\t// in\n    tag_181:\n      swap1\n      dup2\n      mstore\n      mload(0x40)\n      swap1\n      dup2\n      swap1\n      sub\n      0x20\n      add\n      swap1\n      keccak256\n      sload\n      0xff\n      and\n        /* \"Raindrop.sol\":8865:8927  require(raindropExists[raindropId], \"Raindrop does not exist\") */\n      tag_182\n      jumpi\n      mload(0x40)\n      shl(0xe5, 0x461bcd)\n      dup2\n      mstore\n      0x04\n      add\n      tag_101\n      swap1\n      tag_127\n      jump\t// in\n    tag_182:\n        /* \"Raindrop.sol\":8946:8971  Raindrop storage raindrop */\n      0x00\n        /* \"Raindrop.sol\":8974:8983  raindrops */\n      0x04\n        /* \"Raindrop.sol\":8984:8994  raindropId */\n      dup11\n      dup11\n        /* \"Raindrop.sol\":8974:8995  raindrops[raindropId] */\n      mload(0x40)\n      tag_184\n      swap3\n      swap2\n      swap1\n      tag_99\n      jump\t// in\n    tag_184:\n      swap1\n      dup2\n      mstore\n      mload(0x40)\n      swap1\n      dup2\n      swap1\n      sub\n      0x20\n      add\n      swap1\n      keccak256\n        /* \"Raindrop.sol\":9026:9039  raindrop.host */\n      0x01\n      dup2\n      add\n      sload\n        /* \"Raindrop.sol\":9053:9067  raindrop.token */\n      0x02\n      dup3\n      add\n      sload\n        /* \"Raindrop.sol\":9081:9101  raindrop.totalAmount */\n      0x03\n      dup4\n      add\n      sload\n        /* \"Raindrop.sol\":9115:9137  raindrop.scheduledTime */\n      0x04\n      dup5\n      add\n      sload\n        /* \"Raindrop.sol\":9151:9168  raindrop.executed */\n      0x05\n      dup6\n      add\n      sload\n        /* \"Raindrop.sol\":9214:9239  raindrop.participantCount */\n      0x06\n      swap1\n      swap6\n      add\n      sload\n      sub(shl(0xa0, 0x01), 0x01)\n        /* \"Raindrop.sol\":9026:9039  raindrop.host */\n      swap5\n      dup6\n      and\n      swap14\n      pop\n        /* \"Raindrop.sol\":9053:9067  raindrop.token */\n      swap3\n      swap1\n      swap4\n      and\n      swap11\n      pop\n        /* \"Raindrop.sol\":9081:9101  raindrop.totalAmount */\n      swap9\n      pop\n        /* \"Raindrop.sol\":9115:9137  raindrop.scheduledTime */\n      swap1\n      swap7\n      pop\n        /* \"Raindrop.sol\":9151:9168  raindrop.executed */\n      0xff\n      dup1\n      dup4\n      and\n      swap7\n      pop\n        /* \"Raindrop.sol\":9026:9039  raindrop.host */\n      0x0100\n        /* \"Raindrop.sol\":9182:9200  raindrop.cancelled */\n      swap1\n      swap3\n      div\n      swap1\n      swap2\n      and\n      swap4\n      pop\n        /* \"Raindrop.sol\":9214:9239  raindrop.participantCount */\n      swap2\n      pop\n      pop\n        /* \"Raindrop.sol\":8520:9256  function getRaindropDetails(string calldata raindropId) ... */\n      swap3\n      swap6\n      swap9\n      swap2\n      swap5\n      swap8\n      pop\n      swap3\n      swap6\n      pop\n      jump\t// out\n        /* \"Raindrop.sol\":10151:10292  function emergencyRecoverToken(address token, uint256 amount) external onlyOwner {... */\n    tag_60:\n        /* \"@openzeppelin/contracts/access/Ownable.sol\":1531:1544  _checkOwner() */\n      tag_186\n        /* \"@openzeppelin/contracts/access/Ownable.sol\":1531:1542  _checkOwner */\n      tag_176\n        /* \"@openzeppelin/contracts/access/Ownable.sol\":1531:1544  _checkOwner() */\n      jump\t// in\n    tag_186:\n        /* \"Raindrop.sol\":10242:10285  IERC20(token).safeTransfer(owner(), amount) */\n      tag_188\n        /* \"Raindrop.sol\":10269:10276  owner() */\n      tag_189\n        /* \"@openzeppelin/contracts/access/Ownable.sol\":1710:1716  _owner */\n      and(sub(shl(0xa0, 0x01), 0x01), sload(0x01))\n      swap1\n        /* \"@openzeppelin/contracts/access/Ownable.sol\":1638:1723  function owner() public view virtual returns (address) {... */\n      jump\n        /* \"Raindrop.sol\":10269:10276  owner() */\n    tag_189:\n      sub(shl(0xa0, 0x01), 0x01)\n        /* \"Raindrop.sol\":10242:10268  IERC20(token).safeTransfer */\n      dup5\n      and\n      swap1\n        /* \"Raindrop.sol\":10278:10284  amount */\n      dup4\n        /* \"Raindrop.sol\":10242:10268  IERC20(token).safeTransfer */\n      tag_190\n        /* \"Raindrop.sol\":10242:10285  IERC20(token).safeTransfer(owner(), amount) */\n      jump\t// in\n    tag_188:\n        /* \"Raindrop.sol\":10151:10292  function emergencyRecoverToken(address token, uint256 amount) external onlyOwner {... */\n      pop\n      pop\n      jump\t// out\n        /* \"Raindrop.sol\":9312:9571  function getParticipants(string calldata raindropId) ... */\n    tag_63:\n        /* \"Raindrop.sol\":9415:9431  address[] memory */\n      0x60\n        /* \"Raindrop.sol\":9456:9470  raindropExists */\n      0x05\n        /* \"Raindrop.sol\":9471:9481  raindropId */\n      dup4\n      dup4\n        /* \"Raindrop.sol\":9456:9482  raindropExists[raindropId] */\n      mload(0x40)\n      tag_192\n      swap3\n      swap2\n      swap1\n      tag_99\n      jump\t// in\n    tag_192:\n      swap1\n      dup2\n      mstore\n      mload(0x40)\n      swap1\n      dup2\n      swap1\n      sub\n      0x20\n      add\n      swap1\n      keccak256\n      sload\n      0xff\n      and\n        /* \"Raindrop.sol\":9448:9510  require(raindropExists[raindropId], \"Raindrop does not exist\") */\n      tag_193\n      jumpi\n      mload(0x40)\n      shl(0xe5, 0x461bcd)\n      dup2\n      mstore\n      0x04\n      add\n      tag_101\n      swap1\n      tag_127\n      jump\t// in\n    tag_193:\n        /* \"Raindrop.sol\":9527:9536  raindrops */\n      0x04\n        /* \"Raindrop.sol\":9537:9547  raindropId */\n      dup4\n      dup4\n        /* \"Raindrop.sol\":9527:9548  raindrops[raindropId] */\n      mload(0x40)\n      tag_195\n      swap3\n      swap2\n      swap1\n      tag_99\n      jump\t// in\n    tag_195:\n      swap1\n      dup2\n      mstore\n      0x40\n      dup1\n      mload\n      swap2\n      dup3\n      swap1\n      sub\n      0x20\n      swap1\n      dup2\n      add\n      dup4\n      keccak256\n        /* \"Raindrop.sol\":9527:9564  raindrops[raindropId].participantList */\n      0x08\n      add\n        /* \"Raindrop.sol\":9520:9564  return raindrops[raindropId].participantList */\n      dup1\n      sload\n      dup1\n      dup4\n      mul\n      dup6\n      add\n      dup4\n      add\n      swap1\n      swap4\n      mstore\n      dup3\n      dup5\n      mstore\n        /* \"Raindrop.sol\":9527:9564  raindrops[raindropId].participantList */\n      swap2\n        /* \"Raindrop.sol\":9520:9564  return raindrops[raindropId].participantList */\n      swap1\n      dup4\n      add\n        /* \"Raindrop.sol\":9527:9564  raindrops[raindropId].participantList */\n      dup3\n        /* \"Raindrop.sol\":9520:9564  return raindrops[raindropId].participantList */\n      dup3\n      dup1\n      iszero\n      tag_196\n      jumpi\n      0x20\n      mul\n      dup3\n      add\n      swap2\n      swap1\n      0x00\n      mstore\n      keccak256(0x00, 0x20)\n      swap1\n    tag_197:\n      dup2\n      sload\n      sub(shl(0xa0, 0x01), 0x01)\n      and\n      dup2\n      mstore\n      0x01\n      swap1\n      swap2\n      add\n      swap1\n      0x20\n      add\n      dup1\n      dup4\n      gt\n      tag_197\n      jumpi\n    tag_196:\n      pop\n      pop\n      pop\n      pop\n      pop\n      swap1\n      pop\n        /* \"Raindrop.sol\":9312:9571  function getParticipants(string calldata raindropId) ... */\n    tag_191:\n      swap3\n      swap2\n      pop\n      pop\n      jump\t// out\n        /* \"Raindrop.sol\":5877:7661  function executeRaindrop(string calldata raindropId) external nonReentrant {... */\n    tag_71:\n        /* \"@openzeppelin/contracts/security/ReentrancyGuard.sol\":2261:2282  _nonReentrantBefore() */\n      tag_200\n        /* \"@openzeppelin/contracts/security/ReentrancyGuard.sol\":2261:2280  _nonReentrantBefore */\n      tag_96\n        /* \"@openzeppelin/contracts/security/ReentrancyGuard.sol\":2261:2282  _nonReentrantBefore() */\n      jump\t// in\n    tag_200:\n        /* \"Raindrop.sol\":5970:5984  raindropExists */\n      0x05\n        /* \"Raindrop.sol\":5985:5995  raindropId */\n      dup3\n      dup3\n        /* \"Raindrop.sol\":5970:5996  raindropExists[raindropId] */\n      mload(0x40)\n      tag_202\n      swap3\n      swap2\n      swap1\n      tag_99\n      jump\t// in\n    tag_202:\n      swap1\n      dup2\n      mstore\n      mload(0x40)\n      swap1\n      dup2\n      swap1\n      sub\n      0x20\n      add\n      swap1\n      keccak256\n      sload\n      0xff\n      and\n        /* \"Raindrop.sol\":5962:6024  require(raindropExists[raindropId], \"Raindrop does not exist\") */\n      tag_203\n      jumpi\n      mload(0x40)\n      shl(0xe5, 0x461bcd)\n      dup2\n      mstore\n      0x04\n      add\n      tag_101\n      swap1\n      tag_127\n      jump\t// in\n    tag_203:\n        /* \"Raindrop.sol\":6043:6068  Raindrop storage raindrop */\n      0x00\n        /* \"Raindrop.sol\":6071:6080  raindrops */\n      0x04\n        /* \"Raindrop.sol\":6081:6091  raindropId */\n      dup4\n      dup4\n        /* \"Raindrop.sol\":6071:6092  raindrops[raindropId] */\n      mload(0x40)\n      tag_205\n      swap3\n      swap2\n      swap1\n      tag_99\n      jump\t// in\n    tag_205:\n      swap1\n      dup2\n      mstore\n      mload(0x40)\n      swap1\n      dup2\n      swap1\n      sub\n      0x20\n      add\n      swap1\n      keccak256\n        /* \"Raindrop.sol\":6124:6137  raindrop.host */\n      0x01\n      dup2\n      add\n      sload\n        /* \"Raindrop.sol\":6071:6092  raindrops[raindropId] */\n      swap1\n      swap2\n      pop\n        /* \"Raindrop.sol\":6110:6120  msg.sender */\n      caller\n      sub(shl(0xa0, 0x01), 0x01)\n        /* \"Raindrop.sol\":6124:6137  raindrop.host */\n      swap1\n      swap2\n      and\n        /* \"Raindrop.sol\":6110:6137  msg.sender == raindrop.host */\n      eq\n      dup1\n        /* \"Raindrop.sol\":6110:6162  msg.sender == raindrop.host || msg.sender == owner() */\n      tag_206\n      jumpi\n      pop\n        /* \"@openzeppelin/contracts/access/Ownable.sol\":1710:1716  _owner */\n      and(sub(shl(0xa0, 0x01), 0x01), sload(0x01))\n        /* \"Raindrop.sol\":6141:6151  msg.sender */\n      caller\n        /* \"Raindrop.sol\":6141:6162  msg.sender == owner() */\n      eq\n        /* \"Raindrop.sol\":6110:6162  msg.sender == raindrop.host || msg.sender == owner() */\n    tag_206:\n        /* \"Raindrop.sol\":6102:6181  require(msg.sender == raindrop.host || msg.sender == owner(), \"Not authorized\") */\n      tag_208\n      jumpi\n      mload(0x40)\n      shl(0xe5, 0x461bcd)\n      dup2\n      mstore\n      0x04\n      add\n      tag_101\n      swap1\n      tag_133\n      jump\t// in\n    tag_208:\n        /* \"Raindrop.sol\":6200:6217  raindrop.executed */\n      0x05\n      dup2\n      add\n      sload\n      0xff\n      and\n        /* \"Raindrop.sol\":6199:6217  !raindrop.executed */\n      iszero\n        /* \"Raindrop.sol\":6191:6247  require(!raindrop.executed, \"Raindrop already executed\") */\n      tag_210\n      jumpi\n      mload(0x40)\n      shl(0xe5, 0x461bcd)\n      dup2\n      mstore\n      0x04\n      add\n      tag_101\n      swap1\n      tag_136\n      jump\t// in\n    tag_210:\n        /* \"Raindrop.sol\":6266:6284  raindrop.cancelled */\n      0x05\n      dup2\n      add\n      sload\n      0x0100\n      swap1\n      div\n      0xff\n      and\n        /* \"Raindrop.sol\":6265:6284  !raindrop.cancelled */\n      iszero\n        /* \"Raindrop.sol\":6257:6307  require(!raindrop.cancelled, \"Raindrop cancelled\") */\n      tag_212\n      jumpi\n      mload(0x40)\n      shl(0xe5, 0x461bcd)\n      dup2\n      mstore\n        /* \"#utility.yul\":13021:13023   */\n      0x20\n        /* \"Raindrop.sol\":6257:6307  require(!raindrop.cancelled, \"Raindrop cancelled\") */\n      0x04\n      dup3\n      add\n        /* \"#utility.yul\":13003:13024   */\n      mstore\n        /* \"#utility.yul\":13060:13062   */\n      0x12\n        /* \"#utility.yul\":13040:13058   */\n      0x24\n      dup3\n      add\n        /* \"#utility.yul\":13033:13063   */\n      mstore\n      shl(0x72, 0x14985a5b991c9bdc0818d85b98d95b1b1959)\n        /* \"#utility.yul\":13079:13097   */\n      0x44\n      dup3\n      add\n        /* \"#utility.yul\":13072:13120   */\n      mstore\n        /* \"#utility.yul\":13137:13155   */\n      0x64\n      add\n        /* \"Raindrop.sol\":6257:6307  require(!raindrop.cancelled, \"Raindrop cancelled\") */\n      tag_101\n        /* \"#utility.yul\":12819:13161   */\n      jump\n        /* \"Raindrop.sol\":6257:6307  require(!raindrop.cancelled, \"Raindrop cancelled\") */\n    tag_212:\n        /* \"Raindrop.sol\":6344:6352  raindrop */\n      dup1\n        /* \"Raindrop.sol\":6344:6366  raindrop.scheduledTime */\n      0x04\n      add\n      sload\n        /* \"Raindrop.sol\":6325:6340  block.timestamp */\n      timestamp\n        /* \"Raindrop.sol\":6325:6366  block.timestamp >= raindrop.scheduledTime */\n      lt\n      iszero\n        /* \"Raindrop.sol\":6317:6391  require(block.timestamp >= raindrop.scheduledTime, \"Too early to execute\") */\n      tag_214\n      jumpi\n      mload(0x40)\n      shl(0xe5, 0x461bcd)\n      dup2\n      mstore\n        /* \"#utility.yul\":15276:15278   */\n      0x20\n        /* \"Raindrop.sol\":6317:6391  require(block.timestamp >= raindrop.scheduledTime, \"Too early to execute\") */\n      0x04\n      dup3\n      add\n        /* \"#utility.yul\":15258:15279   */\n      mstore\n        /* \"#utility.yul\":15315:15317   */\n      0x14\n        /* \"#utility.yul\":15295:15313   */\n      0x24\n      dup3\n      add\n        /* \"#utility.yul\":15288:15318   */\n      mstore\n      shl(0x60, 0x546f6f206561726c7920746f2065786563757465)\n        /* \"#utility.yul\":15334:15352   */\n      0x44\n      dup3\n      add\n        /* \"#utility.yul\":15327:15377   */\n      mstore\n        /* \"#utility.yul\":15394:15412   */\n      0x64\n      add\n        /* \"Raindrop.sol\":6317:6391  require(block.timestamp >= raindrop.scheduledTime, \"Too early to execute\") */\n      tag_101\n        /* \"#utility.yul\":15074:15418   */\n      jump\n        /* \"Raindrop.sol\":6317:6391  require(block.timestamp >= raindrop.scheduledTime, \"Too early to execute\") */\n    tag_214:\n        /* \"Raindrop.sol\":6437:6438  0 */\n      0x00\n        /* \"Raindrop.sol\":6409:6417  raindrop */\n      dup2\n        /* \"Raindrop.sol\":6409:6434  raindrop.participantCount */\n      0x06\n      add\n      sload\n        /* \"Raindrop.sol\":6409:6438  raindrop.participantCount > 0 */\n      gt\n        /* \"Raindrop.sol\":6401:6458  require(raindrop.participantCount > 0, \"No participants\") */\n      tag_217\n      jumpi\n      mload(0x40)\n      shl(0xe5, 0x461bcd)\n      dup2\n      mstore\n        /* \"#utility.yul\":15625:15627   */\n      0x20\n        /* \"Raindrop.sol\":6401:6458  require(raindrop.participantCount > 0, \"No participants\") */\n      0x04\n      dup3\n      add\n        /* \"#utility.yul\":15607:15628   */\n      mstore\n        /* \"#utility.yul\":15664:15666   */\n      0x0f\n        /* \"#utility.yul\":15644:15662   */\n      0x24\n      dup3\n      add\n        /* \"#utility.yul\":15637:15667   */\n      mstore\n      shl(0x88, 0x4e6f207061727469636970616e7473)\n        /* \"#utility.yul\":15683:15701   */\n      0x44\n      dup3\n      add\n        /* \"#utility.yul\":15676:15721   */\n      mstore\n        /* \"#utility.yul\":15738:15756   */\n      0x64\n      add\n        /* \"Raindrop.sol\":6401:6458  require(raindrop.participantCount > 0, \"No participants\") */\n      tag_101\n        /* \"#utility.yul\":15423:15762   */\n      jump\n        /* \"Raindrop.sol\":6401:6458  require(raindrop.participantCount > 0, \"No participants\") */\n    tag_217:\n        /* \"Raindrop.sol\":6525:6542  raindrop.executed */\n      0x05\n      dup2\n      add\n        /* \"Raindrop.sol\":6525:6549  raindrop.executed = true */\n      dup1\n      sload\n      not(0xff)\n      and\n        /* \"Raindrop.sol\":6545:6549  true */\n      0x01\n        /* \"Raindrop.sol\":6525:6549  raindrop.executed = true */\n      or\n      swap1\n      sstore\n        /* \"Raindrop.sol\":6614:6639  raindrop.participantCount */\n      0x06\n      dup2\n      add\n      sload\n        /* \"Raindrop.sol\":6591:6611  raindrop.totalAmount */\n      0x03\n      dup3\n      add\n      sload\n        /* \"Raindrop.sol\":6525:6542  raindrop.executed */\n      0x00\n      swap2\n        /* \"Raindrop.sol\":6591:6639  raindrop.totalAmount / raindrop.participantCount */\n      tag_220\n      swap2\n      tag_168\n      jump\t// in\n    tag_220:\n        /* \"Raindrop.sol\":6560:6639  uint256 amountPerParticipant = raindrop.totalAmount / raindrop.participantCount */\n      swap1\n      pop\n        /* \"Raindrop.sol\":6649:6674  uint256 totalToDistribute */\n      0x00\n        /* \"Raindrop.sol\":6700:6708  raindrop */\n      dup3\n        /* \"Raindrop.sol\":6700:6725  raindrop.participantCount */\n      0x06\n      add\n      sload\n        /* \"Raindrop.sol\":6677:6697  amountPerParticipant */\n      dup3\n        /* \"Raindrop.sol\":6677:6725  amountPerParticipant * raindrop.participantCount */\n      tag_221\n      swap2\n      swap1\n      tag_222\n      jump\t// in\n    tag_221:\n        /* \"Raindrop.sol\":6649:6725  uint256 totalToDistribute = amountPerParticipant * raindrop.participantCount */\n      swap1\n      pop\n        /* \"Raindrop.sol\":6778:6797  uint256 platformFee */\n      0x00\n        /* \"Raindrop.sol\":6839:6844  10000 */\n      0x2710\n        /* \"Raindrop.sol\":6821:6835  platformFeeBps */\n      sload(0x02)\n        /* \"Raindrop.sol\":6801:6818  totalToDistribute */\n      dup4\n        /* \"Raindrop.sol\":6801:6835  totalToDistribute * platformFeeBps */\n      tag_223\n      swap2\n      swap1\n      tag_222\n      jump\t// in\n    tag_223:\n        /* \"Raindrop.sol\":6800:6844  (totalToDistribute * platformFeeBps) / 10000 */\n      tag_224\n      swap2\n      swap1\n      tag_168\n      jump\t// in\n    tag_224:\n        /* \"Raindrop.sol\":6778:6844  uint256 platformFee = (totalToDistribute * platformFeeBps) / 10000 */\n      swap1\n      pop\n        /* \"Raindrop.sol\":6854:6877  uint256 remainingAmount */\n      0x00\n        /* \"Raindrop.sol\":6923:6934  platformFee */\n      dup2\n        /* \"Raindrop.sol\":6903:6920  totalToDistribute */\n      dup4\n        /* \"Raindrop.sol\":6880:6888  raindrop */\n      dup7\n        /* \"Raindrop.sol\":6880:6900  raindrop.totalAmount */\n      0x03\n      add\n      sload\n        /* \"Raindrop.sol\":6880:6920  raindrop.totalAmount - totalToDistribute */\n      tag_225\n      swap2\n      swap1\n      tag_226\n      jump\t// in\n    tag_225:\n        /* \"Raindrop.sol\":6880:6934  raindrop.totalAmount - totalToDistribute - platformFee */\n      tag_227\n      swap2\n      swap1\n      tag_226\n      jump\t// in\n    tag_227:\n        /* \"Raindrop.sol\":6967:6981  raindrop.token */\n      0x02\n      dup7\n      add\n      sload\n        /* \"Raindrop.sol\":6854:6934  uint256 remainingAmount = raindrop.totalAmount - totalToDistribute - platformFee */\n      swap1\n      swap2\n      pop\n      sub(shl(0xa0, 0x01), 0x01)\n        /* \"Raindrop.sol\":6967:6981  raindrop.token */\n      and\n        /* \"Raindrop.sol\":6945:6957  IERC20 token */\n      0x00\n        /* \"Raindrop.sol\":7039:7236  for (uint256 i = 0; i < raindrop.participantCount; i++) {... */\n    tag_228:\n        /* \"Raindrop.sol\":7063:7071  raindrop */\n      dup7\n        /* \"Raindrop.sol\":7063:7088  raindrop.participantCount */\n      0x06\n      add\n      sload\n        /* \"Raindrop.sol\":7059:7060  i */\n      dup2\n        /* \"Raindrop.sol\":7059:7088  i < raindrop.participantCount */\n      lt\n        /* \"Raindrop.sol\":7039:7236  for (uint256 i = 0; i < raindrop.participantCount; i++) {... */\n      iszero\n      tag_229\n      jumpi\n        /* \"Raindrop.sol\":7109:7128  address participant */\n      0x00\n        /* \"Raindrop.sol\":7131:7139  raindrop */\n      dup8\n        /* \"Raindrop.sol\":7131:7155  raindrop.participantList */\n      0x08\n      add\n        /* \"Raindrop.sol\":7156:7157  i */\n      dup3\n        /* \"Raindrop.sol\":7131:7158  raindrop.participantList[i] */\n      dup2\n      sload\n      dup2\n      lt\n      tag_232\n      jumpi\n      tag_232\n      tag_148\n      jump\t// in\n    tag_232:\n      0x00\n      swap2\n      dup3\n      mstore\n      0x20\n      swap1\n      swap2\n      keccak256\n      add\n      sload\n      sub(shl(0xa0, 0x01), 0x01)\n      swap1\n      dup2\n      and\n      swap2\n      pop\n        /* \"Raindrop.sol\":7172:7225  token.safeTransfer(participant, amountPerParticipant) */\n      tag_234\n      swap1\n        /* \"Raindrop.sol\":7172:7190  token.safeTransfer */\n      dup5\n      and\n        /* \"Raindrop.sol\":7131:7158  raindrop.participantList[i] */\n      dup3\n        /* \"Raindrop.sol\":7204:7224  amountPerParticipant */\n      dup10\n        /* \"Raindrop.sol\":7172:7190  token.safeTransfer */\n      tag_190\n        /* \"Raindrop.sol\":7172:7225  token.safeTransfer(participant, amountPerParticipant) */\n      jump\t// in\n    tag_234:\n      pop\n        /* \"Raindrop.sol\":7090:7093  i++ */\n      0x01\n      add\n        /* \"Raindrop.sol\":7039:7236  for (uint256 i = 0; i < raindrop.participantCount; i++) {... */\n      jump(tag_228)\n    tag_229:\n      pop\n        /* \"Raindrop.sol\":7283:7298  platformFee > 0 */\n      dup3\n      iszero\n        /* \"Raindrop.sol\":7279:7370  if (platformFee > 0) {... */\n      tag_236\n      jumpi\n        /* \"Raindrop.sol\":7333:7345  feeRecipient */\n      sload(0x03)\n        /* \"Raindrop.sol\":7314:7359  token.safeTransfer(feeRecipient, platformFee) */\n      tag_236\n      swap1\n      sub(shl(0xa0, 0x01), 0x01)\n        /* \"Raindrop.sol\":7314:7332  token.safeTransfer */\n      dup4\n      dup2\n      and\n      swap2\n        /* \"Raindrop.sol\":7333:7345  feeRecipient */\n      and\n        /* \"Raindrop.sol\":7347:7358  platformFee */\n      dup6\n        /* \"Raindrop.sol\":7314:7332  token.safeTransfer */\n      tag_190\n        /* \"Raindrop.sol\":7314:7359  token.safeTransfer(feeRecipient, platformFee) */\n      jump\t// in\n    tag_236:\n        /* \"Raindrop.sol\":7447:7466  remainingAmount > 0 */\n      dup2\n      iszero\n        /* \"Raindrop.sol\":7443:7543  if (remainingAmount > 0) {... */\n      tag_238\n      jumpi\n        /* \"Raindrop.sol\":7501:7514  raindrop.host */\n      0x01\n      dup7\n      add\n      sload\n        /* \"Raindrop.sol\":7482:7532  token.safeTransfer(raindrop.host, remainingAmount) */\n      tag_238\n      swap1\n      sub(shl(0xa0, 0x01), 0x01)\n        /* \"Raindrop.sol\":7482:7500  token.safeTransfer */\n      dup4\n      dup2\n      and\n      swap2\n        /* \"Raindrop.sol\":7501:7514  raindrop.host */\n      and\n        /* \"Raindrop.sol\":7516:7531  remainingAmount */\n      dup5\n        /* \"Raindrop.sol\":7482:7500  token.safeTransfer */\n      tag_190\n        /* \"Raindrop.sol\":7482:7532  token.safeTransfer(raindrop.host, remainingAmount) */\n      jump\t// in\n    tag_238:\n        /* \"Raindrop.sol\":7575:7585  raindropId */\n      dup8\n      dup8\n        /* \"Raindrop.sol\":7558:7654  RaindropExecuted(raindropId, raindrop.participantCount, amountPerParticipant, totalToDistribute) */\n      mload(0x40)\n      tag_239\n      swap3\n      swap2\n      swap1\n      tag_99\n      jump\t// in\n    tag_239:\n      0x40\n      dup1\n      mload\n      swap2\n      dup3\n      swap1\n      sub\n      dup3\n      keccak256\n        /* \"Raindrop.sol\":7587:7612  raindrop.participantCount */\n      0x06\n      dup10\n      add\n      sload\n        /* \"#utility.yul\":16275:16300   */\n      dup4\n      mstore\n        /* \"#utility.yul\":16331:16333   */\n      0x20\n        /* \"#utility.yul\":16316:16334   */\n      dup4\n      add\n        /* \"#utility.yul\":16309:16343   */\n      dup9\n      swap1\n      mstore\n        /* \"#utility.yul\":16359:16377   */\n      swap1\n      dup3\n      add\n        /* \"#utility.yul\":16352:16386   */\n      dup7\n      swap1\n      mstore\n        /* \"Raindrop.sol\":7558:7654  RaindropExecuted(raindropId, raindrop.participantCount, amountPerParticipant, totalToDistribute) */\n      swap1\n      0xe56eba28928c6808ff8d65117cc1d7ba272e42f06114b621406245fe7e42fff2\n      swap1\n        /* \"#utility.yul\":16263:16265   */\n      0x60\n        /* \"#utility.yul\":16248:16266   */\n      add\n        /* \"Raindrop.sol\":7558:7654  RaindropExecuted(raindropId, raindrop.participantCount, amountPerParticipant, totalToDistribute) */\n      mload(0x40)\n      dup1\n      swap2\n      sub\n      swap1\n      log2\n        /* \"Raindrop.sol\":5952:7661  {... */\n      pop\n      pop\n      pop\n      pop\n      pop\n      pop\n        /* \"@openzeppelin/contracts/security/ReentrancyGuard.sol\":2303:2323  _nonReentrantAfter() */\n      tag_188\n        /* \"@openzeppelin/contracts/security/ReentrancyGuard.sol\":1716:1717  1 */\n      0x01\n        /* \"@openzeppelin/contracts/security/ReentrancyGuard.sol\":2809:2816  _status */\n      0x00\n        /* \"@openzeppelin/contracts/security/ReentrancyGuard.sol\":2809:2831  _status = _NOT_ENTERED */\n      sstore\n        /* \"@openzeppelin/contracts/security/ReentrancyGuard.sol\":2629:2838  function _nonReentrantAfter() private {... */\n      jump\n        /* \"Raindrop.sol\":7787:8465  function cancelRaindrop(string calldata raindropId) external nonReentrant {... */\n    tag_74:\n        /* \"@openzeppelin/contracts/security/ReentrancyGuard.sol\":2261:2282  _nonReentrantBefore() */\n      tag_244\n        /* \"@openzeppelin/contracts/security/ReentrancyGuard.sol\":2261:2280  _nonReentrantBefore */\n      tag_96\n        /* \"@openzeppelin/contracts/security/ReentrancyGuard.sol\":2261:2282  _nonReentrantBefore() */\n      jump\t// in\n    tag_244:\n        /* \"Raindrop.sol\":7879:7893  raindropExists */\n      0x05\n        /* \"Raindrop.sol\":7894:7904  raindropId */\n      dup3\n      dup3\n        /* \"Raindrop.sol\":7879:7905  raindropExists[raindropId] */\n      mload(0x40)\n      tag_246\n      swap3\n      swap2\n      swap1\n      tag_99\n      jump\t// in\n    tag_246:\n      swap1\n      dup2\n      mstore\n      mload(0x40)\n      swap1\n      dup2\n      swap1\n      sub\n      0x20\n      add\n      swap1\n      keccak256\n      sload\n      0xff\n      and\n        /* \"Raindrop.sol\":7871:7933  require(raindropExists[raindropId], \"Raindrop does not exist\") */\n      tag_247\n      jumpi\n      mload(0x40)\n      shl(0xe5, 0x461bcd)\n      dup2\n      mstore\n      0x04\n      add\n      tag_101\n      swap1\n      tag_127\n      jump\t// in\n    tag_247:\n        /* \"Raindrop.sol\":7952:7977  Raindrop storage raindrop */\n      0x00\n        /* \"Raindrop.sol\":7980:7989  raindrops */\n      0x04\n        /* \"Raindrop.sol\":7990:8000  raindropId */\n      dup4\n      dup4\n        /* \"Raindrop.sol\":7980:8001  raindrops[raindropId] */\n      mload(0x40)\n      tag_249\n      swap3\n      swap2\n      swap1\n      tag_99\n      jump\t// in\n    tag_249:\n      swap1\n      dup2\n      mstore\n      mload(0x40)\n      swap1\n      dup2\n      swap1\n      sub\n      0x20\n      add\n      swap1\n      keccak256\n        /* \"Raindrop.sol\":8033:8046  raindrop.host */\n      0x01\n      dup2\n      add\n      sload\n        /* \"Raindrop.sol\":7980:8001  raindrops[raindropId] */\n      swap1\n      swap2\n      pop\n        /* \"Raindrop.sol\":8019:8029  msg.sender */\n      caller\n      sub(shl(0xa0, 0x01), 0x01)\n        /* \"Raindrop.sol\":8033:8046  raindrop.host */\n      swap1\n      swap2\n      and\n        /* \"Raindrop.sol\":8019:8046  msg.sender == raindrop.host */\n      eq\n      dup1\n        /* \"Raindrop.sol\":8019:8071  msg.sender == raindrop.host || msg.sender == owner() */\n      tag_250\n      jumpi\n      pop\n        /* \"@openzeppelin/contracts/access/Ownable.sol\":1710:1716  _owner */\n      and(sub(shl(0xa0, 0x01), 0x01), sload(0x01))\n        /* \"Raindrop.sol\":8050:8060  msg.sender */\n      caller\n        /* \"Raindrop.sol\":8050:8071  msg.sender == owner() */\n      eq\n        /* \"Raindrop.sol\":8019:8071  msg.sender == raindrop.host || msg.sender == owner() */\n    tag_250:\n        /* \"Raindrop.sol\":8011:8090  require(msg.sender == raindrop.host || msg.sender == owner(), \"Not authorized\") */\n      tag_252\n      jumpi\n      mload(0x40)\n      shl(0xe5, 0x461bcd)\n      dup2\n      mstore\n      0x04\n      add\n      tag_101\n      swap1\n      tag_133\n      jump\t// in\n    tag_252:\n        /* \"Raindrop.sol\":8109:8126  raindrop.executed */\n      0x05\n      dup2\n      add\n      sload\n      0xff\n      and\n        /* \"Raindrop.sol\":8108:8126  !raindrop.executed */\n      iszero\n        /* \"Raindrop.sol\":8100:8156  require(!raindrop.executed, \"Raindrop already executed\") */\n      tag_254\n      jumpi\n      mload(0x40)\n      shl(0xe5, 0x461bcd)\n      dup2\n      mstore\n      0x04\n      add\n      tag_101\n      swap1\n      tag_136\n      jump\t// in\n    tag_254:\n        /* \"Raindrop.sol\":8175:8193  raindrop.cancelled */\n      0x05\n      dup2\n      add\n      sload\n      0x0100\n      swap1\n      div\n      0xff\n      and\n        /* \"Raindrop.sol\":8174:8193  !raindrop.cancelled */\n      iszero\n        /* \"Raindrop.sol\":8166:8224  require(!raindrop.cancelled, \"Raindrop already cancelled\") */\n      tag_256\n      jumpi\n      mload(0x40)\n      shl(0xe5, 0x461bcd)\n      dup2\n      mstore\n        /* \"#utility.yul\":16599:16601   */\n      0x20\n        /* \"Raindrop.sol\":8166:8224  require(!raindrop.cancelled, \"Raindrop already cancelled\") */\n      0x04\n      dup3\n      add\n        /* \"#utility.yul\":16581:16602   */\n      mstore\n        /* \"#utility.yul\":16638:16640   */\n      0x1a\n        /* \"#utility.yul\":16618:16636   */\n      0x24\n      dup3\n      add\n        /* \"#utility.yul\":16611:16641   */\n      mstore\n        /* \"#utility.yul\":16677:16705   */\n      0x5261696e64726f7020616c72656164792063616e63656c6c6564000000000000\n        /* \"#utility.yul\":16657:16675   */\n      0x44\n      dup3\n      add\n        /* \"#utility.yul\":16650:16706   */\n      mstore\n        /* \"#utility.yul\":16723:16741   */\n      0x64\n      add\n        /* \"Raindrop.sol\":8166:8224  require(!raindrop.cancelled, \"Raindrop already cancelled\") */\n      tag_101\n        /* \"#utility.yul\":16397:16747   */\n      jump\n        /* \"Raindrop.sol\":8166:8224  require(!raindrop.cancelled, \"Raindrop already cancelled\") */\n    tag_256:\n        /* \"Raindrop.sol\":8235:8253  raindrop.cancelled */\n      0x05\n      dup2\n      add\n        /* \"Raindrop.sol\":8235:8260  raindrop.cancelled = true */\n      dup1\n      sload\n      not(0xff00)\n      and\n      0x0100\n      or\n      swap1\n      sstore\n        /* \"Raindrop.sol\":8256:8260  true */\n      0x01\n        /* \"Raindrop.sol\":8340:8353  raindrop.host */\n      dup2\n      add\n      sload\n        /* \"Raindrop.sol\":8355:8375  raindrop.totalAmount */\n      0x03\n      dup3\n      add\n      sload\n        /* \"Raindrop.sol\":8311:8325  raindrop.token */\n      0x02\n      dup4\n      add\n      sload\n        /* \"Raindrop.sol\":8304:8376  IERC20(raindrop.token).safeTransfer(raindrop.host, raindrop.totalAmount) */\n      tag_259\n      swap3\n      sub(shl(0xa0, 0x01), 0x01)\n        /* \"Raindrop.sol\":8311:8325  raindrop.token */\n      swap2\n      dup3\n      and\n      swap3\n        /* \"Raindrop.sol\":8340:8353  raindrop.host */\n      swap2\n      and\n      swap1\n        /* \"Raindrop.sol\":8304:8339  IERC20(raindrop.token).safeTransfer */\n      tag_190\n        /* \"Raindrop.sol\":8304:8376  IERC20(raindrop.token).safeTransfer(raindrop.host, raindrop.totalAmount) */\n      jump\t// in\n    tag_259:\n        /* \"Raindrop.sol\":8422:8435  raindrop.host */\n      0x01\n      dup2\n      add\n      sload\n        /* \"Raindrop.sol\":8392:8458  RaindropCancelled(raindropId, raindrop.host, raindrop.totalAmount) */\n      mload(0x40)\n      sub(shl(0xa0, 0x01), 0x01)\n        /* \"Raindrop.sol\":8422:8435  raindrop.host */\n      swap1\n      swap2\n      and\n      swap1\n        /* \"Raindrop.sol\":8392:8458  RaindropCancelled(raindropId, raindrop.host, raindrop.totalAmount) */\n      tag_260\n      swap1\n        /* \"Raindrop.sol\":8410:8420  raindropId */\n      dup6\n      swap1\n      dup6\n      swap1\n        /* \"Raindrop.sol\":8392:8458  RaindropCancelled(raindropId, raindrop.host, raindrop.totalAmount) */\n      tag_99\n      jump\t// in\n    tag_260:\n      mload(0x40)\n      swap1\n      dup2\n      swap1\n      sub\n      dup2\n      keccak256\n        /* \"Raindrop.sol\":8437:8457  raindrop.totalAmount */\n      0x03\n      dup5\n      add\n      sload\n        /* \"#utility.yul\":2786:2811   */\n      dup3\n      mstore\n        /* \"Raindrop.sol\":8392:8458  RaindropCancelled(raindropId, raindrop.host, raindrop.totalAmount) */\n      swap1\n      0x16b1484adf14ddc11ad828089c5f7ac1932ae15cac0fd6100804b92746616b04\n      swap1\n        /* \"#utility.yul\":2774:2776   */\n      0x20\n        /* \"#utility.yul\":2759:2777   */\n      add\n        /* \"Raindrop.sol\":8392:8458  RaindropCancelled(raindropId, raindrop.host, raindrop.totalAmount) */\n      mload(0x40)\n      dup1\n      swap2\n      sub\n      swap1\n      log3\n        /* \"Raindrop.sol\":7861:8465  {... */\n      pop\n        /* \"@openzeppelin/contracts/security/ReentrancyGuard.sol\":2303:2323  _nonReentrantAfter() */\n      tag_188\n        /* \"@openzeppelin/contracts/security/ReentrancyGuard.sol\":1716:1717  1 */\n      0x01\n        /* \"@openzeppelin/contracts/security/ReentrancyGuard.sol\":2809:2816  _status */\n      0x00\n        /* \"@openzeppelin/contracts/security/ReentrancyGuard.sol\":2809:2831  _status = _NOT_ENTERED */\n      sstore\n        /* \"@openzeppelin/contracts/security/ReentrancyGuard.sol\":2629:2838  function _nonReentrantAfter() private {... */\n      jump\n        /* \"Raindrop.sol\":9638:9807  function updatePlatformFee(uint256 newFeeBps) external onlyOwner {... */\n    tag_78:\n        /* \"@openzeppelin/contracts/access/Ownable.sol\":1531:1544  _checkOwner() */\n      tag_264\n        /* \"@openzeppelin/contracts/access/Ownable.sol\":1531:1542  _checkOwner */\n      tag_176\n        /* \"@openzeppelin/contracts/access/Ownable.sol\":1531:1544  _checkOwner() */\n      jump\t// in\n    tag_264:\n        /* \"Raindrop.sol\":9734:9737  100 */\n      0x64\n        /* \"Raindrop.sol\":9721:9730  newFeeBps */\n      dup2\n        /* \"Raindrop.sol\":9721:9737  newFeeBps <= 100 */\n      gt\n      iszero\n        /* \"Raindrop.sol\":9713:9754  require(newFeeBps <= 100, \"Fee too high\") */\n      tag_266\n      jumpi\n      mload(0x40)\n      shl(0xe5, 0x461bcd)\n      dup2\n      mstore\n        /* \"#utility.yul\":16954:16956   */\n      0x20\n        /* \"Raindrop.sol\":9713:9754  require(newFeeBps <= 100, \"Fee too high\") */\n      0x04\n      dup3\n      add\n        /* \"#utility.yul\":16936:16957   */\n      mstore\n        /* \"#utility.yul\":16993:16995   */\n      0x0c\n        /* \"#utility.yul\":16973:16991   */\n      0x24\n      dup3\n      add\n        /* \"#utility.yul\":16966:16996   */\n      mstore\n      shl(0xa3, 0x08ccaca40e8dede40d0d2ced)\n        /* \"#utility.yul\":17012:17030   */\n      0x44\n      dup3\n      add\n        /* \"#utility.yul\":17005:17047   */\n      mstore\n        /* \"#utility.yul\":17064:17082   */\n      0x64\n      add\n        /* \"Raindrop.sol\":9713:9754  require(newFeeBps <= 100, \"Fee too high\") */\n      tag_101\n        /* \"#utility.yul\":16752:17088   */\n      jump\n        /* \"Raindrop.sol\":9713:9754  require(newFeeBps <= 100, \"Fee too high\") */\n    tag_266:\n        /* \"Raindrop.sol\":9774:9788  platformFeeBps */\n      0x02\n        /* \"Raindrop.sol\":9774:9800  platformFeeBps = newFeeBps */\n      sstore\n        /* \"Raindrop.sol\":9638:9807  function updatePlatformFee(uint256 newFeeBps) external onlyOwner {... */\n      jump\t// out\n        /* \"Raindrop.sol\":1497:1541  mapping(string => Raindrop) public raindrops */\n    tag_81:\n      dup1\n      mload\n      0x20\n      dup2\n      dup4\n      add\n      dup2\n      add\n      dup1\n      mload\n      0x04\n      dup3\n      mstore\n      swap3\n      dup3\n      add\n      swap2\n      swap1\n      swap4\n      add\n      keccak256\n      swap2\n      mstore\n      dup1\n      sload\n      dup2\n      swap1\n      tag_269\n      swap1\n      tag_270\n      jump\t// in\n    tag_269:\n      dup1\n      0x1f\n      add\n      0x20\n      dup1\n      swap2\n      div\n      mul\n      0x20\n      add\n      mload(0x40)\n      swap1\n      dup2\n      add\n      0x40\n      mstore\n      dup1\n      swap3\n      swap2\n      swap1\n      dup2\n      dup2\n      mstore\n      0x20\n      add\n      dup3\n      dup1\n      sload\n      tag_271\n      swap1\n      tag_270\n      jump\t// in\n    tag_271:\n      dup1\n      iszero\n      tag_272\n      jumpi\n      dup1\n      0x1f\n      lt\n      tag_273\n      jumpi\n      0x0100\n      dup1\n      dup4\n      sload\n      div\n      mul\n      dup4\n      mstore\n      swap2\n      0x20\n      add\n      swap2\n      jump(tag_272)\n    tag_273:\n      dup3\n      add\n      swap2\n      swap1\n      0x00\n      mstore\n      keccak256(0x00, 0x20)\n      swap1\n    tag_274:\n      dup2\n      sload\n      dup2\n      mstore\n      swap1\n      0x01\n      add\n      swap1\n      0x20\n      add\n      dup1\n      dup4\n      gt\n      tag_274\n      jumpi\n      dup3\n      swap1\n      sub\n      0x1f\n      and\n      dup3\n      add\n      swap2\n    tag_272:\n      pop\n      pop\n      pop\n      0x01\n      dup5\n      add\n      sload\n      0x02\n      dup6\n      add\n      sload\n      0x03\n      dup7\n      add\n      sload\n      0x04\n      dup8\n      add\n      sload\n      0x05\n      dup9\n      add\n      sload\n      0x06\n      swap1\n      swap9\n      add\n      sload\n      swap7\n      swap8\n      sub(shl(0xa0, 0x01), 0x01)\n      swap5\n      dup6\n      and\n      swap8\n      swap4\n      swap1\n      swap5\n      and\n      swap6\n      pop\n      swap1\n      swap4\n      pop\n      swap2\n      0xff\n      dup1\n      dup3\n      and\n      swap3\n      0x0100\n      swap1\n      swap3\n      div\n      and\n      swap1\n      dup9\n      jump\t// out\n        /* \"Raindrop.sol\":9875:10061  function updateFeeRecipient(address newFeeRecipient) external onlyOwner {... */\n    tag_87:\n        /* \"@openzeppelin/contracts/access/Ownable.sol\":1531:1544  _checkOwner() */\n      tag_276\n        /* \"@openzeppelin/contracts/access/Ownable.sol\":1531:1542  _checkOwner */\n      tag_176\n        /* \"@openzeppelin/contracts/access/Ownable.sol\":1531:1544  _checkOwner() */\n      jump\t// in\n    tag_276:\n      sub(shl(0xa0, 0x01), 0x01)\n        /* \"Raindrop.sol\":9965:9994  newFeeRecipient != address(0) */\n      dup2\n      and\n        /* \"Raindrop.sol\":9957:10014  require(newFeeRecipient != address(0), \"Invalid address\") */\n      tag_278\n      jumpi\n      mload(0x40)\n      shl(0xe5, 0x461bcd)\n      dup2\n      mstore\n        /* \"#utility.yul\":17295:17297   */\n      0x20\n        /* \"Raindrop.sol\":9957:10014  require(newFeeRecipient != address(0), \"Invalid address\") */\n      0x04\n      dup3\n      add\n        /* \"#utility.yul\":17277:17298   */\n      mstore\n        /* \"#utility.yul\":17334:17336   */\n      0x0f\n        /* \"#utility.yul\":17314:17332   */\n      0x24\n      dup3\n      add\n        /* \"#utility.yul\":17307:17337   */\n      mstore\n      shl(0x88, 0x496e76616c69642061646472657373)\n        /* \"#utility.yul\":17353:17371   */\n      0x44\n      dup3\n      add\n        /* \"#utility.yul\":17346:17391   */\n      mstore\n        /* \"#utility.yul\":17408:17426   */\n      0x64\n      add\n        /* \"Raindrop.sol\":9957:10014  require(newFeeRecipient != address(0), \"Invalid address\") */\n      tag_101\n        /* \"#utility.yul\":17093:17432   */\n      jump\n        /* \"Raindrop.sol\":9957:10014  require(newFeeRecipient != address(0), \"Invalid address\") */\n    tag_278:\n        /* \"Raindrop.sol\":10024:10036  feeRecipient */\n      0x03\n        /* \"Raindrop.sol\":10024:10054  feeRecipient = newFeeRecipient */\n      dup1\n      sload\n      not(sub(shl(0xa0, 0x01), 0x01))\n      and\n      sub(shl(0xa0, 0x01), 0x01)\n      swap3\n      swap1\n      swap3\n      and\n      swap2\n      swap1\n      swap2\n      or\n      swap1\n      sstore\n        /* \"Raindrop.sol\":9875:10061  function updateFeeRecipient(address newFeeRecipient) external onlyOwner {... */\n      jump\t// out\n        /* \"@openzeppelin/contracts/access/Ownable.sol\":2543:2758  function transferOwnership(address newOwner) public virtual onlyOwner {... */\n    tag_90:\n        /* \"@openzeppelin/contracts/access/Ownable.sol\":1531:1544  _checkOwner() */\n      tag_282\n        /* \"@openzeppelin/contracts/access/Ownable.sol\":1531:1542  _checkOwner */\n      tag_176\n        /* \"@openzeppelin/contracts/access/Ownable.sol\":1531:1544  _checkOwner() */\n      jump\t// in\n    tag_282:\n      sub(shl(0xa0, 0x01), 0x01)\n        /* \"@openzeppelin/contracts/access/Ownable.sol\":2627:2649  newOwner == address(0) */\n      dup2\n      and\n        /* \"@openzeppelin/contracts/access/Ownable.sol\":2623:2714  if (newOwner == address(0)) {... */\n      tag_284\n      jumpi\n        /* \"@openzeppelin/contracts/access/Ownable.sol\":2672:2703  OwnableInvalidOwner(address(0)) */\n      mload(0x40)\n      shl(0xe0, 0x1e4fbdf7)\n      dup2\n      mstore\n        /* \"@openzeppelin/contracts/access/Ownable.sol\":2700:2701  0 */\n      0x00\n        /* \"@openzeppelin/contracts/access/Ownable.sol\":2672:2703  OwnableInvalidOwner(address(0)) */\n      0x04\n      dup3\n      add\n        /* \"#utility.yul\":2968:3019   */\n      mstore\n        /* \"#utility.yul\":2941:2959   */\n      0x24\n      add\n        /* \"@openzeppelin/contracts/access/Ownable.sol\":2672:2703  OwnableInvalidOwner(address(0)) */\n      tag_101\n        /* \"#utility.yul\":2822:3025   */\n      jump\n        /* \"@openzeppelin/contracts/access/Ownable.sol\":2623:2714  if (newOwner == address(0)) {... */\n    tag_284:\n        /* \"@openzeppelin/contracts/access/Ownable.sol\":2723:2751  _transferOwnership(newOwner) */\n      tag_286\n        /* \"@openzeppelin/contracts/access/Ownable.sol\":2742:2750  newOwner */\n      dup2\n        /* \"@openzeppelin/contracts/access/Ownable.sol\":2723:2741  _transferOwnership */\n      tag_179\n        /* \"@openzeppelin/contracts/access/Ownable.sol\":2723:2751  _transferOwnership(newOwner) */\n      jump\t// in\n    tag_286:\n        /* \"@openzeppelin/contracts/access/Ownable.sol\":2543:2758  function transferOwnership(address newOwner) public virtual onlyOwner {... */\n      pop\n      jump\t// out\n        /* \"@openzeppelin/contracts/security/ReentrancyGuard.sol\":2336:2623  function _nonReentrantBefore() private {... */\n    tag_96:\n        /* \"@openzeppelin/contracts/security/ReentrancyGuard.sol\":1759:1760  2 */\n      0x02\n        /* \"@openzeppelin/contracts/security/ReentrancyGuard.sol\":2468:2475  _status */\n      sload(0x00)\n        /* \"@openzeppelin/contracts/security/ReentrancyGuard.sol\":2468:2487  _status != _ENTERED */\n      sub\n        /* \"@openzeppelin/contracts/security/ReentrancyGuard.sol\":2460:2523  require(_status != _ENTERED, \"ReentrancyGuard: reentrant call\") */\n      tag_288\n      jumpi\n      mload(0x40)\n      shl(0xe5, 0x461bcd)\n      dup2\n      mstore\n        /* \"#utility.yul\":17639:17641   */\n      0x20\n        /* \"@openzeppelin/contracts/security/ReentrancyGuard.sol\":2460:2523  require(_status != _ENTERED, \"ReentrancyGuard: reentrant call\") */\n      0x04\n      dup3\n      add\n        /* \"#utility.yul\":17621:17642   */\n      mstore\n        /* \"#utility.yul\":17678:17680   */\n      0x1f\n        /* \"#utility.yul\":17658:17676   */\n      0x24\n      dup3\n      add\n        /* \"#utility.yul\":17651:17681   */\n      mstore\n        /* \"#utility.yul\":17717:17750   */\n      0x5265656e7472616e637947756172643a207265656e7472616e742063616c6c00\n        /* \"#utility.yul\":17697:17715   */\n      0x44\n      dup3\n      add\n        /* \"#utility.yul\":17690:17751   */\n      mstore\n        /* \"#utility.yul\":17768:17786   */\n      0x64\n      add\n        /* \"@openzeppelin/contracts/security/ReentrancyGuard.sol\":2460:2523  require(_status != _ENTERED, \"ReentrancyGuard: reentrant call\") */\n      tag_101\n        /* \"#utility.yul\":17437:17792   */\n      jump\n        /* \"@openzeppelin/contracts/security/ReentrancyGuard.sol\":2460:2523  require(_status != _ENTERED, \"ReentrancyGuard: reentrant call\") */\n    tag_288:\n        /* \"@openzeppelin/contracts/security/ReentrancyGuard.sol\":1759:1760  2 */\n      0x02\n        /* \"@openzeppelin/contracts/security/ReentrancyGuard.sol\":2598:2605  _status */\n      0x00\n        /* \"@openzeppelin/contracts/security/ReentrancyGuard.sol\":2598:2616  _status = _ENTERED */\n      sstore\n        /* \"@openzeppelin/contracts/security/ReentrancyGuard.sol\":2336:2623  function _nonReentrantBefore() private {... */\n      jump\t// out\n        /* \"@openzeppelin/contracts/token/ERC20/utils/SafeERC20.sol\":1618:1806  function safeTransferFrom(IERC20 token, address from, address to, uint256 value) internal {... */\n    tag_113:\n        /* \"@openzeppelin/contracts/token/ERC20/utils/SafeERC20.sol\":1745:1798  abi.encodeCall(token.transferFrom, (from, to, value)) */\n      mload(0x40)\n      sub(shl(0xa0, 0x01), 0x01)\n        /* \"#utility.yul\":18017:18049   */\n      dup5\n      dup2\n      and\n        /* \"@openzeppelin/contracts/token/ERC20/utils/SafeERC20.sol\":1745:1798  abi.encodeCall(token.transferFrom, (from, to, value)) */\n      0x24\n      dup4\n      add\n        /* \"#utility.yul\":17999:18050   */\n      mstore\n        /* \"#utility.yul\":18086:18118   */\n      dup4\n      dup2\n      and\n        /* \"#utility.yul\":18066:18084   */\n      0x44\n      dup4\n      add\n        /* \"#utility.yul\":18059:18119   */\n      mstore\n        /* \"#utility.yul\":18135:18153   */\n      0x64\n      dup3\n      add\n        /* \"#utility.yul\":18128:18162   */\n      dup4\n      swap1\n      mstore\n        /* \"@openzeppelin/contracts/token/ERC20/utils/SafeERC20.sol\":1718:1799  _callOptionalReturn(token, abi.encodeCall(token.transferFrom, (from, to, value))) */\n      tag_292\n      swap2\n        /* \"@openzeppelin/contracts/token/ERC20/utils/SafeERC20.sol\":1738:1743  token */\n      dup7\n      swap2\n        /* \"@openzeppelin/contracts/token/ERC20/utils/SafeERC20.sol\":1760:1778  token.transferFrom */\n      dup3\n      and\n      swap1\n      0x23b872dd\n      swap1\n        /* \"#utility.yul\":17972:17990   */\n      0x84\n      add\n        /* \"@openzeppelin/contracts/token/ERC20/utils/SafeERC20.sol\":1745:1798  abi.encodeCall(token.transferFrom, (from, to, value)) */\n    tag_293:\n      mload(0x40)\n      0x20\n      dup2\n      dup4\n      sub\n      sub\n      dup2\n      mstore\n      swap1\n      0x40\n      mstore\n      swap2\n      pop\n      0xe0\n      shl\n      0x20\n      dup3\n      add\n      dup1\n      mload\n      sub(shl(0xe0, 0x01), 0x01)\n      dup4\n      dup2\n      dup4\n      and\n      or\n      dup4\n      mstore\n      pop\n      pop\n      pop\n      pop\n        /* \"@openzeppelin/contracts/token/ERC20/utils/SafeERC20.sol\":1718:1737  _callOptionalReturn */\n      tag_295\n        /* \"@openzeppelin/contracts/token/ERC20/utils/SafeERC20.sol\":1718:1799  _callOptionalReturn(token, abi.encodeCall(token.transferFrom, (from, to, value))) */\n      jump\t// in\n    tag_292:\n        /* \"@openzeppelin/contracts/token/ERC20/utils/SafeERC20.sol\":1618:1806  function safeTransferFrom(IERC20 token, address from, address to, uint256 value) internal {... */\n      pop\n      pop\n      pop\n      pop\n      jump\t// out\n        /* \"@openzeppelin/contracts/access/Ownable.sol\":1796:1958  function _checkOwner() internal view virtual {... */\n    tag_176:\n        /* \"@openzeppelin/contracts/access/Ownable.sol\":1710:1716  _owner */\n      and(sub(shl(0xa0, 0x01), 0x01), sload(0x01))\n        /* \"@openzeppelin/contracts/utils/Context.sol\":735:745  msg.sender */\n      caller\n        /* \"@openzeppelin/contracts/access/Ownable.sol\":1855:1878  owner() != _msgSender() */\n      eq\n        /* \"@openzeppelin/contracts/access/Ownable.sol\":1851:1952  if (owner() != _msgSender()) {... */\n      tag_178\n      jumpi\n        /* \"@openzeppelin/contracts/access/Ownable.sol\":1901:1941  OwnableUnauthorizedAccount(_msgSender()) */\n      mload(0x40)\n      shl(0xe0, 0x118cdaa7)\n      dup2\n      mstore\n        /* \"@openzeppelin/contracts/utils/Context.sol\":735:745  msg.sender */\n      caller\n        /* \"@openzeppelin/contracts/access/Ownable.sol\":1901:1941  OwnableUnauthorizedAccount(_msgSender()) */\n      0x04\n      dup3\n      add\n        /* \"#utility.yul\":2968:3019   */\n      mstore\n        /* \"#utility.yul\":2941:2959   */\n      0x24\n      add\n        /* \"@openzeppelin/contracts/access/Ownable.sol\":1901:1941  OwnableUnauthorizedAccount(_msgSender()) */\n      tag_101\n        /* \"#utility.yul\":2822:3025   */\n      jump\n        /* \"@openzeppelin/contracts/access/Ownable.sol\":2912:3099  function _transferOwnership(address newOwner) internal virtual {... */\n    tag_179:\n        /* \"@openzeppelin/contracts/access/Ownable.sol\":3004:3010  _owner */\n      0x01\n      dup1\n      sload\n      sub(shl(0xa0, 0x01), 0x01)\n        /* \"@openzeppelin/contracts/access/Ownable.sol\":3020:3037  _owner = newOwner */\n      dup4\n      dup2\n      and\n      not(sub(shl(0xa0, 0x01), 0x01))\n      dup4\n      and\n      dup2\n      or\n      swap1\n      swap4\n      sstore\n        /* \"@openzeppelin/contracts/access/Ownable.sol\":3052:3092  OwnershipTransferred(oldOwner, newOwner) */\n      mload(0x40)\n        /* \"@openzeppelin/contracts/access/Ownable.sol\":3004:3010  _owner */\n      swap2\n      and\n      swap2\n        /* \"@openzeppelin/contracts/access/Ownable.sol\":3020:3037  _owner = newOwner */\n      swap1\n        /* \"@openzeppelin/contracts/access/Ownable.sol\":3004:3010  _owner */\n      dup3\n      swap1\n        /* \"@openzeppelin/contracts/access/Ownable.sol\":3052:3092  OwnershipTransferred(oldOwner, newOwner) */\n      0x8be0079c531659141344cd1fd0a4f28419497f9722a3daafe3b4186f6b6457e0\n      swap1\n        /* \"@openzeppelin/contracts/access/Ownable.sol\":2985:3001  address oldOwner */\n      0x00\n      swap1\n        /* \"@openzeppelin/contracts/access/Ownable.sol\":3052:3092  OwnershipTransferred(oldOwner, newOwner) */\n      log3\n        /* \"@openzeppelin/contracts/access/Ownable.sol\":2975:3099  {... */\n      pop\n        /* \"@openzeppelin/contracts/access/Ownable.sol\":2912:3099  function _transferOwnership(address newOwner) internal virtual {... */\n      pop\n      jump\t// out\n        /* \"@openzeppelin/contracts/token/ERC20/utils/SafeERC20.sol\":1219:1379  function safeTransfer(IERC20 token, address to, uint256 value) internal {... */\n    tag_190:\n        /* \"@openzeppelin/contracts/token/ERC20/utils/SafeERC20.sol\":1328:1371  abi.encodeCall(token.transfer, (to, value)) */\n      mload(0x40)\n      sub(shl(0xa0, 0x01), 0x01)\n        /* \"#utility.yul\":18365:18397   */\n      dup4\n      dup2\n      and\n        /* \"@openzeppelin/contracts/token/ERC20/utils/SafeERC20.sol\":1328:1371  abi.encodeCall(token.transfer, (to, value)) */\n      0x24\n      dup4\n      add\n        /* \"#utility.yul\":18347:18398   */\n      mstore\n        /* \"#utility.yul\":18414:18432   */\n      0x44\n      dup3\n      add\n        /* \"#utility.yul\":18407:18441   */\n      dup4\n      swap1\n      mstore\n        /* \"@openzeppelin/contracts/token/ERC20/utils/SafeERC20.sol\":1301:1372  _callOptionalReturn(token, abi.encodeCall(token.transfer, (to, value))) */\n      tag_306\n      swap2\n        /* \"@openzeppelin/contracts/token/ERC20/utils/SafeERC20.sol\":1321:1326  token */\n      dup6\n      swap2\n        /* \"@openzeppelin/contracts/token/ERC20/utils/SafeERC20.sol\":1343:1357  token.transfer */\n      dup3\n      and\n      swap1\n      0xa9059cbb\n      swap1\n        /* \"#utility.yul\":18320:18338   */\n      0x64\n      add\n        /* \"@openzeppelin/contracts/token/ERC20/utils/SafeERC20.sol\":1328:1371  abi.encodeCall(token.transfer, (to, value)) */\n      tag_293\n        /* \"#utility.yul\":18173:18447   */\n      jump\n        /* \"@openzeppelin/contracts/token/ERC20/utils/SafeERC20.sol\":1301:1372  _callOptionalReturn(token, abi.encodeCall(token.transfer, (to, value))) */\n    tag_306:\n        /* \"@openzeppelin/contracts/token/ERC20/utils/SafeERC20.sol\":1219:1379  function safeTransfer(IERC20 token, address to, uint256 value) internal {... */\n      pop\n      pop\n      pop\n      jump\t// out\n        /* \"@openzeppelin/contracts/token/ERC20/utils/SafeERC20.sol\":8370:9090  function _callOptionalReturn(IERC20 token, bytes memory data) private {... */\n    tag_295:\n        /* \"@openzeppelin/contracts/token/ERC20/utils/SafeERC20.sol\":8450:8468  uint256 returnSize */\n      0x00\n        /* \"@openzeppelin/contracts/token/ERC20/utils/SafeERC20.sol\":8478:8497  uint256 returnValue */\n      dup1\n        /* \"@openzeppelin/contracts/token/ERC20/utils/SafeERC20.sol\":8616:8620  0x20 */\n      0x20\n        /* \"@openzeppelin/contracts/token/ERC20/utils/SafeERC20.sol\":8613:8614  0 */\n      0x00\n        /* \"@openzeppelin/contracts/token/ERC20/utils/SafeERC20.sol\":8606:8610  data */\n      dup5\n        /* \"@openzeppelin/contracts/token/ERC20/utils/SafeERC20.sol\":8600:8611  mload(data) */\n      mload\n        /* \"@openzeppelin/contracts/token/ERC20/utils/SafeERC20.sol\":8593:8597  0x20 */\n      0x20\n        /* \"@openzeppelin/contracts/token/ERC20/utils/SafeERC20.sol\":8587:8591  data */\n      dup7\n        /* \"@openzeppelin/contracts/token/ERC20/utils/SafeERC20.sol\":8583:8598  add(data, 0x20) */\n      add\n        /* \"@openzeppelin/contracts/token/ERC20/utils/SafeERC20.sol\":8580:8581  0 */\n      0x00\n        /* \"@openzeppelin/contracts/token/ERC20/utils/SafeERC20.sol\":8573:8578  token */\n      dup9\n        /* \"@openzeppelin/contracts/token/ERC20/utils/SafeERC20.sol\":8566:8571  gas() */\n      gas\n        /* \"@openzeppelin/contracts/token/ERC20/utils/SafeERC20.sol\":8561:8621  call(gas(), token, 0, add(data, 0x20), mload(data), 0, 0x20) */\n      call\n        /* \"@openzeppelin/contracts/token/ERC20/utils/SafeERC20.sol\":8673:8680  success */\n      dup1\n        /* \"@openzeppelin/contracts/token/ERC20/utils/SafeERC20.sol\":8663:8839  if iszero(success) {... */\n      tag_310\n      jumpi\n        /* \"@openzeppelin/contracts/token/ERC20/utils/SafeERC20.sol\":8717:8721  0x40 */\n      0x40\n        /* \"@openzeppelin/contracts/token/ERC20/utils/SafeERC20.sol\":8711:8722  mload(0x40) */\n      mload\n        /* \"@openzeppelin/contracts/token/ERC20/utils/SafeERC20.sol\":8762:8778  returndatasize() */\n      returndatasize\n        /* \"@openzeppelin/contracts/token/ERC20/utils/SafeERC20.sol\":8759:8760  0 */\n      0x00\n        /* \"@openzeppelin/contracts/token/ERC20/utils/SafeERC20.sol\":8754:8757  ptr */\n      dup3\n        /* \"@openzeppelin/contracts/token/ERC20/utils/SafeERC20.sol\":8739:8779  returndatacopy(ptr, 0, returndatasize()) */\n      returndatacopy\n        /* \"@openzeppelin/contracts/token/ERC20/utils/SafeERC20.sol\":8808:8824  returndatasize() */\n      returndatasize\n        /* \"@openzeppelin/contracts/token/ERC20/utils/SafeERC20.sol\":8803:8806  ptr */\n      dup2\n        /* \"@openzeppelin/contracts/token/ERC20/utils/SafeERC20.sol\":8796:8825  revert(ptr, returndatasize()) */\n      revert\n        /* \"@openzeppelin/contracts/token/ERC20/utils/SafeERC20.sol\":8663:8839  if iszero(success) {... */\n    tag_310:\n      pop\n      pop\n        /* \"@openzeppelin/contracts/token/ERC20/utils/SafeERC20.sol\":8916:8917  0 */\n      0x00\n        /* \"@openzeppelin/contracts/token/ERC20/utils/SafeERC20.sol\":8910:8918  mload(0) */\n      mload\n        /* \"@openzeppelin/contracts/token/ERC20/utils/SafeERC20.sol\":8866:8882  returndatasize() */\n      returndatasize\n      swap2\n      pop\n        /* \"@openzeppelin/contracts/token/ERC20/utils/SafeERC20.sol\":8942:8957  returnSize == 0 */\n      dup2\n      iszero\n        /* \"@openzeppelin/contracts/token/ERC20/utils/SafeERC20.sol\":8942:9010  returnSize == 0 ? address(token).code.length == 0 : returnValue != 1 */\n      tag_311\n      jumpi\n        /* \"@openzeppelin/contracts/token/ERC20/utils/SafeERC20.sol\":8994:9005  returnValue */\n      dup1\n        /* \"@openzeppelin/contracts/token/ERC20/utils/SafeERC20.sol\":9009:9010  1 */\n      0x01\n        /* \"@openzeppelin/contracts/token/ERC20/utils/SafeERC20.sol\":8994:9010  returnValue != 1 */\n      eq\n      iszero\n        /* \"@openzeppelin/contracts/token/ERC20/utils/SafeERC20.sol\":8942:9010  returnSize == 0 ? address(token).code.length == 0 : returnValue != 1 */\n      jump(tag_312)\n    tag_311:\n      sub(shl(0xa0, 0x01), 0x01)\n        /* \"@openzeppelin/contracts/token/ERC20/utils/SafeERC20.sol\":8960:8986  address(token).code.length */\n      dup5\n      and\n      extcodesize\n        /* \"@openzeppelin/contracts/token/ERC20/utils/SafeERC20.sol\":8960:8991  address(token).code.length == 0 */\n      iszero\n        /* \"@openzeppelin/contracts/token/ERC20/utils/SafeERC20.sol\":8942:9010  returnSize == 0 ? address(token).code.length == 0 : returnValue != 1 */\n    tag_312:\n        /* \"@openzeppelin/contracts/token/ERC20/utils/SafeERC20.sol\":8938:9084  if (returnSize == 0 ? address(token).code.length == 0 : returnValue != 1) {... */\n      iszero\n      tag_292\n      jumpi\n        /* \"@openzeppelin/contracts/token/ERC20/utils/SafeERC20.sol\":9033:9073  SafeERC20FailedOperation(address(token)) */\n      mload(0x40)\n      shl(0xe0, 0x5274afe7)\n      dup2\n      mstore\n      sub(shl(0xa0, 0x01), 0x01)\n        /* \"#utility.yul\":2986:3018   */\n      dup6\n      and\n        /* \"@openzeppelin/contracts/token/ERC20/utils/SafeERC20.sol\":9033:9073  SafeERC20FailedOperation(address(token)) */\n      0x04\n      dup3\n      add\n        /* \"#utility.yul\":2968:3019   */\n      mstore\n        /* \"#utility.yul\":2941:2959   */\n      0x24\n      add\n        /* \"@openzeppelin/contracts/token/ERC20/utils/SafeERC20.sol\":9033:9073  SafeERC20FailedOperation(address(token)) */\n      tag_101\n        /* \"#utility.yul\":2822:3025   */\n      jump\n    tag_151:\n      pop\n      dup1\n      sload\n      0x00\n      dup3\n      sstore\n      swap1\n      0x00\n      mstore\n      keccak256(0x00, 0x20)\n      swap1\n      dup2\n      add\n      swap1\n      tag_286\n      swap2\n      swap1\n    tag_319:\n      dup1\n      dup3\n      gt\n      iszero\n      tag_320\n      jumpi\n      0x00\n      dup2\n      sstore\n      0x01\n      add\n      jump(tag_319)\n    tag_320:\n      pop\n      swap1\n      jump\t// out\n        /* \"#utility.yul\":14:362   */\n    tag_321:\n        /* \"#utility.yul\":66:74   */\n      0x00\n        /* \"#utility.yul\":76:82   */\n      dup1\n        /* \"#utility.yul\":130:133   */\n      dup4\n        /* \"#utility.yul\":123:127   */\n      0x1f\n        /* \"#utility.yul\":115:121   */\n      dup5\n        /* \"#utility.yul\":111:128   */\n      add\n        /* \"#utility.yul\":107:134   */\n      slt\n        /* \"#utility.yul\":97:152   */\n      tag_331\n      jumpi\n        /* \"#utility.yul\":148:149   */\n      0x00\n        /* \"#utility.yul\":145:146   */\n      dup1\n        /* \"#utility.yul\":138:150   */\n      revert\n        /* \"#utility.yul\":97:152   */\n    tag_331:\n      pop\n        /* \"#utility.yul\":171:191   */\n      dup2\n      calldataload\n        /* \"#utility.yul\":214:232   */\n      0xffffffffffffffff\n        /* \"#utility.yul\":203:233   */\n      dup2\n      gt\n        /* \"#utility.yul\":200:250   */\n      iszero\n      tag_332\n      jumpi\n        /* \"#utility.yul\":246:247   */\n      0x00\n        /* \"#utility.yul\":243:244   */\n      dup1\n        /* \"#utility.yul\":236:248   */\n      revert\n        /* \"#utility.yul\":200:250   */\n    tag_332:\n        /* \"#utility.yul\":283:287   */\n      0x20\n        /* \"#utility.yul\":275:281   */\n      dup4\n        /* \"#utility.yul\":271:288   */\n      add\n        /* \"#utility.yul\":259:288   */\n      swap2\n      pop\n        /* \"#utility.yul\":335:338   */\n      dup4\n        /* \"#utility.yul\":328:332   */\n      0x20\n        /* \"#utility.yul\":319:325   */\n      dup3\n        /* \"#utility.yul\":311:317   */\n      dup6\n        /* \"#utility.yul\":307:326   */\n      add\n        /* \"#utility.yul\":303:333   */\n      add\n        /* \"#utility.yul\":300:339   */\n      gt\n        /* \"#utility.yul\":297:356   */\n      iszero\n      tag_333\n      jumpi\n        /* \"#utility.yul\":352:353   */\n      0x00\n        /* \"#utility.yul\":349:350   */\n      dup1\n        /* \"#utility.yul\":342:354   */\n      revert\n        /* \"#utility.yul\":297:356   */\n    tag_333:\n        /* \"#utility.yul\":14:362   */\n      swap3\n      pop\n      swap3\n      swap1\n      pop\n      jump\t// out\n        /* \"#utility.yul\":367:540   */\n    tag_322:\n        /* \"#utility.yul\":435:455   */\n      dup1\n      calldataload\n      sub(shl(0xa0, 0x01), 0x01)\n        /* \"#utility.yul\":484:515   */\n      dup2\n      and\n        /* \"#utility.yul\":474:516   */\n      dup2\n      eq\n        /* \"#utility.yul\":464:534   */\n      tag_335\n      jumpi\n        /* \"#utility.yul\":530:531   */\n      0x00\n        /* \"#utility.yul\":527:528   */\n      dup1\n        /* \"#utility.yul\":520:532   */\n      revert\n        /* \"#utility.yul\":464:534   */\n    tag_335:\n        /* \"#utility.yul\":367:540   */\n      swap2\n      swap1\n      pop\n      jump\t// out\n        /* \"#utility.yul\":545:1265   */\n    tag_26:\n        /* \"#utility.yul\":643:649   */\n      0x00\n        /* \"#utility.yul\":651:657   */\n      dup1\n        /* \"#utility.yul\":659:665   */\n      0x00\n        /* \"#utility.yul\":667:673   */\n      dup1\n        /* \"#utility.yul\":675:681   */\n      0x00\n        /* \"#utility.yul\":728:731   */\n      0x80\n        /* \"#utility.yul\":716:725   */\n      dup7\n        /* \"#utility.yul\":707:714   */\n      dup9\n        /* \"#utility.yul\":703:726   */\n      sub\n        /* \"#utility.yul\":699:732   */\n      slt\n        /* \"#utility.yul\":696:749   */\n      iszero\n      tag_337\n      jumpi\n        /* \"#utility.yul\":745:746   */\n      0x00\n        /* \"#utility.yul\":742:743   */\n      dup1\n        /* \"#utility.yul\":735:747   */\n      revert\n        /* \"#utility.yul\":696:749   */\n    tag_337:\n        /* \"#utility.yul\":785:794   */\n      dup6\n        /* \"#utility.yul\":772:795   */\n      calldataload\n        /* \"#utility.yul\":818:836   */\n      0xffffffffffffffff\n        /* \"#utility.yul\":810:816   */\n      dup2\n        /* \"#utility.yul\":807:837   */\n      gt\n        /* \"#utility.yul\":804:854   */\n      iszero\n      tag_338\n      jumpi\n        /* \"#utility.yul\":850:851   */\n      0x00\n        /* \"#utility.yul\":847:848   */\n      dup1\n        /* \"#utility.yul\":840:852   */\n      revert\n        /* \"#utility.yul\":804:854   */\n    tag_338:\n        /* \"#utility.yul\":889:948   */\n      tag_339\n        /* \"#utility.yul\":940:947   */\n      dup9\n        /* \"#utility.yul\":931:937   */\n      dup3\n        /* \"#utility.yul\":920:929   */\n      dup10\n        /* \"#utility.yul\":916:938   */\n      add\n        /* \"#utility.yul\":889:948   */\n      tag_321\n      jump\t// in\n    tag_339:\n        /* \"#utility.yul\":967:975   */\n      swap1\n      swap7\n      pop\n        /* \"#utility.yul\":863:948   */\n      swap5\n      pop\n        /* \"#utility.yul\":1021:1059   */\n      tag_340\n      swap1\n      pop\n        /* \"#utility.yul\":1055:1057   */\n      0x20\n        /* \"#utility.yul\":1040:1058   */\n      dup8\n      add\n        /* \"#utility.yul\":1021:1059   */\n      tag_322\n      jump\t// in\n    tag_340:\n        /* \"#utility.yul\":545:1265   */\n      swap5\n      swap8\n      swap4\n      swap7\n      pop\n        /* \"#utility.yul\":1011:1059   */\n      swap4\n      swap5\n        /* \"#utility.yul\":1128:1130   */\n      0x40\n        /* \"#utility.yul\":1113:1131   */\n      dup2\n      add\n        /* \"#utility.yul\":1100:1132   */\n      calldataload\n      swap5\n      pop\n        /* \"#utility.yul\":1229:1231   */\n      0x60\n        /* \"#utility.yul\":1214:1232   */\n      add\n        /* \"#utility.yul\":1201:1233   */\n      calldataload\n      swap3\n        /* \"#utility.yul\":545:1265   */\n      swap2\n      pop\n      pop\n      jump\t// out\n        /* \"#utility.yul\":1270:1397   */\n    tag_323:\n        /* \"#utility.yul\":1331:1341   */\n      0x4e487b71\n        /* \"#utility.yul\":1326:1329   */\n      0xe0\n        /* \"#utility.yul\":1322:1342   */\n      shl\n        /* \"#utility.yul\":1319:1320   */\n      0x00\n        /* \"#utility.yul\":1312:1343   */\n      mstore\n        /* \"#utility.yul\":1362:1366   */\n      0x41\n        /* \"#utility.yul\":1359:1360   */\n      0x04\n        /* \"#utility.yul\":1352:1367   */\n      mstore\n        /* \"#utility.yul\":1386:1390   */\n      0x24\n        /* \"#utility.yul\":1383:1384   */\n      0x00\n        /* \"#utility.yul\":1376:1391   */\n      revert\n        /* \"#utility.yul\":1402:2347   */\n    tag_30:\n        /* \"#utility.yul\":1471:1477   */\n      0x00\n        /* \"#utility.yul\":1524:1526   */\n      0x20\n        /* \"#utility.yul\":1512:1521   */\n      dup3\n        /* \"#utility.yul\":1503:1510   */\n      dup5\n        /* \"#utility.yul\":1499:1522   */\n      sub\n        /* \"#utility.yul\":1495:1527   */\n      slt\n        /* \"#utility.yul\":1492:1544   */\n      iszero\n      tag_343\n      jumpi\n        /* \"#utility.yul\":1540:1541   */\n      0x00\n        /* \"#utility.yul\":1537:1538   */\n      dup1\n        /* \"#utility.yul\":1530:1542   */\n      revert\n        /* \"#utility.yul\":1492:1544   */\n    tag_343:\n        /* \"#utility.yul\":1580:1589   */\n      dup2\n        /* \"#utility.yul\":1567:1590   */\n      calldataload\n        /* \"#utility.yul\":1613:1631   */\n      0xffffffffffffffff\n        /* \"#utility.yul\":1605:1611   */\n      dup2\n        /* \"#utility.yul\":1602:1632   */\n      gt\n        /* \"#utility.yul\":1599:1649   */\n      iszero\n      tag_344\n      jumpi\n        /* \"#utility.yul\":1645:1646   */\n      0x00\n        /* \"#utility.yul\":1642:1643   */\n      dup1\n        /* \"#utility.yul\":1635:1647   */\n      revert\n        /* \"#utility.yul\":1599:1649   */\n    tag_344:\n        /* \"#utility.yul\":1668:1690   */\n      dup3\n      add\n        /* \"#utility.yul\":1721:1725   */\n      0x1f\n        /* \"#utility.yul\":1713:1726   */\n      dup2\n      add\n        /* \"#utility.yul\":1709:1736   */\n      dup5\n      sgt\n        /* \"#utility.yul\":1699:1754   */\n      tag_345\n      jumpi\n        /* \"#utility.yul\":1750:1751   */\n      0x00\n        /* \"#utility.yul\":1747:1748   */\n      dup1\n        /* \"#utility.yul\":1740:1752   */\n      revert\n        /* \"#utility.yul\":1699:1754   */\n    tag_345:\n        /* \"#utility.yul\":1790:1792   */\n      dup1\n        /* \"#utility.yul\":1777:1793   */\n      calldataload\n        /* \"#utility.yul\":1816:1834   */\n      0xffffffffffffffff\n        /* \"#utility.yul\":1808:1814   */\n      dup2\n        /* \"#utility.yul\":1805:1835   */\n      gt\n        /* \"#utility.yul\":1802:1858   */\n      iszero\n      tag_347\n      jumpi\n        /* \"#utility.yul\":1838:1856   */\n      tag_347\n      tag_323\n      jump\t// in\n    tag_347:\n        /* \"#utility.yul\":1887:1889   */\n      0x40\n        /* \"#utility.yul\":1881:1890   */\n      mload\n        /* \"#utility.yul\":1979:1981   */\n      0x1f\n        /* \"#utility.yul\":1941:1958   */\n      dup3\n      add\n      not(0x1f)\n        /* \"#utility.yul\":1937:1968   */\n      swap1\n      dup2\n      and\n        /* \"#utility.yul\":1970:1972   */\n      0x3f\n        /* \"#utility.yul\":1933:1973   */\n      add\n        /* \"#utility.yul\":1929:1983   */\n      and\n        /* \"#utility.yul\":1917:1984   */\n      dup2\n      add\n        /* \"#utility.yul\":2014:2032   */\n      0xffffffffffffffff\n        /* \"#utility.yul\":1999:2033   */\n      dup2\n      gt\n        /* \"#utility.yul\":2035:2057   */\n      dup3\n      dup3\n      lt\n        /* \"#utility.yul\":1996:2058   */\n      or\n        /* \"#utility.yul\":1993:2081   */\n      iszero\n      tag_349\n      jumpi\n        /* \"#utility.yul\":2061:2079   */\n      tag_349\n      tag_323\n      jump\t// in\n    tag_349:\n        /* \"#utility.yul\":2097:2099   */\n      0x40\n        /* \"#utility.yul\":2090:2112   */\n      mstore\n        /* \"#utility.yul\":2121:2143   */\n      dup2\n      dup2\n      mstore\n        /* \"#utility.yul\":2162:2177   */\n      dup3\n      dup3\n      add\n        /* \"#utility.yul\":2179:2181   */\n      0x20\n        /* \"#utility.yul\":2158:2182   */\n      add\n        /* \"#utility.yul\":2155:2192   */\n      dup7\n      lt\n        /* \"#utility.yul\":2152:2209   */\n      iszero\n      tag_350\n      jumpi\n        /* \"#utility.yul\":2205:2206   */\n      0x00\n        /* \"#utility.yul\":2202:2203   */\n      dup1\n        /* \"#utility.yul\":2195:2207   */\n      revert\n        /* \"#utility.yul\":2152:2209   */\n    tag_350:\n        /* \"#utility.yul\":2261:2267   */\n      dup2\n        /* \"#utility.yul\":2256:2258   */\n      0x20\n        /* \"#utility.yul\":2252:2254   */\n      dup5\n        /* \"#utility.yul\":2248:2259   */\n      add\n        /* \"#utility.yul\":2243:2245   */\n      0x20\n        /* \"#utility.yul\":2235:2241   */\n      dup4\n        /* \"#utility.yul\":2231:2246   */\n      add\n        /* \"#utility.yul\":2218:2268   */\n      calldatacopy\n        /* \"#utility.yul\":2314:2315   */\n      0x00\n        /* \"#utility.yul\":2288:2307   */\n      swap2\n      dup2\n      add\n        /* \"#utility.yul\":2309:2311   */\n      0x20\n        /* \"#utility.yul\":2284:2312   */\n      add\n        /* \"#utility.yul\":2277:2316   */\n      swap2\n      swap1\n      swap2\n      mstore\n        /* \"#utility.yul\":2292:2298   */\n      swap5\n        /* \"#utility.yul\":1402:2347   */\n      swap4\n      pop\n      pop\n      pop\n      pop\n      jump\t// out\n        /* \"#utility.yul\":3030:3945   */\n    tag_47:\n        /* \"#utility.yul\":3137:3143   */\n      0x00\n        /* \"#utility.yul\":3145:3151   */\n      dup1\n        /* \"#utility.yul\":3153:3159   */\n      0x00\n        /* \"#utility.yul\":3161:3167   */\n      dup1\n        /* \"#utility.yul\":3214:3216   */\n      0x40\n        /* \"#utility.yul\":3202:3211   */\n      dup6\n        /* \"#utility.yul\":3193:3200   */\n      dup8\n        /* \"#utility.yul\":3189:3212   */\n      sub\n        /* \"#utility.yul\":3185:3217   */\n      slt\n        /* \"#utility.yul\":3182:3234   */\n      iszero\n      tag_356\n      jumpi\n        /* \"#utility.yul\":3230:3231   */\n      0x00\n        /* \"#utility.yul\":3227:3228   */\n      dup1\n        /* \"#utility.yul\":3220:3232   */\n      revert\n        /* \"#utility.yul\":3182:3234   */\n    tag_356:\n        /* \"#utility.yul\":3270:3279   */\n      dup5\n        /* \"#utility.yul\":3257:3280   */\n      calldataload\n        /* \"#utility.yul\":3303:3321   */\n      0xffffffffffffffff\n        /* \"#utility.yul\":3295:3301   */\n      dup2\n        /* \"#utility.yul\":3292:3322   */\n      gt\n        /* \"#utility.yul\":3289:3339   */\n      iszero\n      tag_357\n      jumpi\n        /* \"#utility.yul\":3335:3336   */\n      0x00\n        /* \"#utility.yul\":3332:3333   */\n      dup1\n        /* \"#utility.yul\":3325:3337   */\n      revert\n        /* \"#utility.yul\":3289:3339   */\n    tag_357:\n        /* \"#utility.yul\":3374:3433   */\n      tag_358\n        /* \"#utility.yul\":3425:3432   */\n      dup8\n        /* \"#utility.yul\":3416:3422   */\n      dup3\n        /* \"#utility.yul\":3405:3414   */\n      dup9\n        /* \"#utility.yul\":3401:3423   */\n      add\n        /* \"#utility.yul\":3374:3433   */\n      tag_321\n      jump\t// in\n    tag_358:\n        /* \"#utility.yul\":3452:3460   */\n      swap1\n      swap6\n      pop\n        /* \"#utility.yul\":3348:3433   */\n      swap4\n      pop\n      pop\n        /* \"#utility.yul\":3540:3542   */\n      0x20\n        /* \"#utility.yul\":3525:3543   */\n      dup6\n      add\n        /* \"#utility.yul\":3512:3544   */\n      calldataload\n        /* \"#utility.yul\":3569:3587   */\n      0xffffffffffffffff\n        /* \"#utility.yul\":3556:3588   */\n      dup2\n      gt\n        /* \"#utility.yul\":3553:3605   */\n      iszero\n      tag_359\n      jumpi\n        /* \"#utility.yul\":3601:3602   */\n      0x00\n        /* \"#utility.yul\":3598:3599   */\n      dup1\n        /* \"#utility.yul\":3591:3603   */\n      revert\n        /* \"#utility.yul\":3553:3605   */\n    tag_359:\n        /* \"#utility.yul\":3624:3648   */\n      dup6\n      add\n        /* \"#utility.yul\":3679:3683   */\n      0x1f\n        /* \"#utility.yul\":3671:3684   */\n      dup2\n      add\n        /* \"#utility.yul\":3667:3694   */\n      dup8\n      sgt\n        /* \"#utility.yul\":3657:3712   */\n      tag_360\n      jumpi\n        /* \"#utility.yul\":3708:3709   */\n      0x00\n        /* \"#utility.yul\":3705:3706   */\n      dup1\n        /* \"#utility.yul\":3698:3710   */\n      revert\n        /* \"#utility.yul\":3657:3712   */\n    tag_360:\n        /* \"#utility.yul\":3748:3750   */\n      dup1\n        /* \"#utility.yul\":3735:3751   */\n      calldataload\n        /* \"#utility.yul\":3774:3792   */\n      0xffffffffffffffff\n        /* \"#utility.yul\":3766:3772   */\n      dup2\n        /* \"#utility.yul\":3763:3793   */\n      gt\n        /* \"#utility.yul\":3760:3810   */\n      iszero\n      tag_361\n      jumpi\n        /* \"#utility.yul\":3806:3807   */\n      0x00\n        /* \"#utility.yul\":3803:3804   */\n      dup1\n        /* \"#utility.yul\":3796:3808   */\n      revert\n        /* \"#utility.yul\":3760:3810   */\n    tag_361:\n        /* \"#utility.yul\":3859:3866   */\n      dup8\n        /* \"#utility.yul\":3854:3856   */\n      0x20\n        /* \"#utility.yul\":3844:3850   */\n      dup3\n        /* \"#utility.yul\":3841:3842   */\n      0x05\n        /* \"#utility.yul\":3837:3851   */\n      shl\n        /* \"#utility.yul\":3833:3835   */\n      dup5\n        /* \"#utility.yul\":3829:3852   */\n      add\n        /* \"#utility.yul\":3825:3857   */\n      add\n        /* \"#utility.yul\":3822:3867   */\n      gt\n        /* \"#utility.yul\":3819:3884   */\n      iszero\n      tag_362\n      jumpi\n        /* \"#utility.yul\":3880:3881   */\n      0x00\n        /* \"#utility.yul\":3877:3878   */\n      dup1\n        /* \"#utility.yul\":3870:3882   */\n      revert\n        /* \"#utility.yul\":3819:3884   */\n    tag_362:\n        /* \"#utility.yul\":3030:3945   */\n      swap5\n      swap8\n      swap4\n      swap7\n      pop\n        /* \"#utility.yul\":3911:3913   */\n      0x20\n        /* \"#utility.yul\":3903:3914   */\n      add\n      swap5\n      pop\n      pop\n      pop\n        /* \"#utility.yul\":3030:3945   */\n      jump\t// out\n        /* \"#utility.yul\":3950:4361   */\n    tag_53:\n        /* \"#utility.yul\":4021:4027   */\n      0x00\n        /* \"#utility.yul\":4029:4035   */\n      dup1\n        /* \"#utility.yul\":4082:4084   */\n      0x20\n        /* \"#utility.yul\":4070:4079   */\n      dup4\n        /* \"#utility.yul\":4061:4068   */\n      dup6\n        /* \"#utility.yul\":4057:4080   */\n      sub\n        /* \"#utility.yul\":4053:4085   */\n      slt\n        /* \"#utility.yul\":4050:4102   */\n      iszero\n      tag_364\n      jumpi\n        /* \"#utility.yul\":4098:4099   */\n      0x00\n        /* \"#utility.yul\":4095:4096   */\n      dup1\n        /* \"#utility.yul\":4088:4100   */\n      revert\n        /* \"#utility.yul\":4050:4102   */\n    tag_364:\n        /* \"#utility.yul\":4138:4147   */\n      dup3\n        /* \"#utility.yul\":4125:4148   */\n      calldataload\n        /* \"#utility.yul\":4171:4189   */\n      0xffffffffffffffff\n        /* \"#utility.yul\":4163:4169   */\n      dup2\n        /* \"#utility.yul\":4160:4190   */\n      gt\n        /* \"#utility.yul\":4157:4207   */\n      iszero\n      tag_365\n      jumpi\n        /* \"#utility.yul\":4203:4204   */\n      0x00\n        /* \"#utility.yul\":4200:4201   */\n      dup1\n        /* \"#utility.yul\":4193:4205   */\n      revert\n        /* \"#utility.yul\":4157:4207   */\n    tag_365:\n        /* \"#utility.yul\":4242:4301   */\n      tag_366\n        /* \"#utility.yul\":4293:4300   */\n      dup6\n        /* \"#utility.yul\":4284:4290   */\n      dup3\n        /* \"#utility.yul\":4273:4282   */\n      dup7\n        /* \"#utility.yul\":4269:4291   */\n      add\n        /* \"#utility.yul\":4242:4301   */\n      tag_321\n      jump\t// in\n    tag_366:\n        /* \"#utility.yul\":4320:4328   */\n      swap1\n      swap7\n        /* \"#utility.yul\":4216:4301   */\n      swap1\n      swap6\n      pop\n        /* \"#utility.yul\":3950:4361   */\n      swap4\n      pop\n      pop\n      pop\n      pop\n      jump\t// out\n        /* \"#utility.yul\":5050:5350   */\n    tag_59:\n        /* \"#utility.yul\":5118:5124   */\n      0x00\n        /* \"#utility.yul\":5126:5132   */\n      dup1\n        /* \"#utility.yul\":5179:5181   */\n      0x40\n        /* \"#utility.yul\":5167:5176   */\n      dup4\n        /* \"#utility.yul\":5158:5165   */\n      dup6\n        /* \"#utility.yul\":5154:5177   */\n      sub\n        /* \"#utility.yul\":5150:5182   */\n      slt\n        /* \"#utility.yul\":5147:5199   */\n      iszero\n      tag_369\n      jumpi\n        /* \"#utility.yul\":5195:5196   */\n      0x00\n        /* \"#utility.yul\":5192:5193   */\n      dup1\n        /* \"#utility.yul\":5185:5197   */\n      revert\n        /* \"#utility.yul\":5147:5199   */\n    tag_369:\n        /* \"#utility.yul\":5218:5247   */\n      tag_370\n        /* \"#utility.yul\":5237:5246   */\n      dup4\n        /* \"#utility.yul\":5218:5247   */\n      tag_322\n      jump\t// in\n    tag_370:\n        /* \"#utility.yul\":5208:5247   */\n      swap5\n        /* \"#utility.yul\":5316:5318   */\n      0x20\n        /* \"#utility.yul\":5301:5319   */\n      swap4\n      swap1\n      swap4\n      add\n        /* \"#utility.yul\":5288:5320   */\n      calldataload\n      swap4\n      pop\n      pop\n      pop\n        /* \"#utility.yul\":5050:5350   */\n      jump\t// out\n        /* \"#utility.yul\":5355:5992   */\n    tag_65:\n        /* \"#utility.yul\":5545:5547   */\n      0x20\n        /* \"#utility.yul\":5557:5578   */\n      dup1\n      dup3\n      mstore\n        /* \"#utility.yul\":5627:5640   */\n      dup3\n      mload\n        /* \"#utility.yul\":5530:5548   */\n      dup3\n      dup3\n      add\n        /* \"#utility.yul\":5649:5671   */\n      dup2\n      swap1\n      mstore\n        /* \"#utility.yul\":5497:5501   */\n      0x00\n      swap2\n        /* \"#utility.yul\":5728:5743   */\n      dup5\n      add\n      swap1\n        /* \"#utility.yul\":5702:5704   */\n      0x40\n        /* \"#utility.yul\":5687:5705   */\n      dup5\n      add\n      swap1\n        /* \"#utility.yul\":5497:5501   */\n      dup4\n        /* \"#utility.yul\":5771:5966   */\n    tag_372:\n        /* \"#utility.yul\":5785:5791   */\n      dup2\n        /* \"#utility.yul\":5782:5783   */\n      dup2\n        /* \"#utility.yul\":5779:5792   */\n      lt\n        /* \"#utility.yul\":5771:5966   */\n      iszero\n      tag_374\n      jumpi\n        /* \"#utility.yul\":5850:5863   */\n      dup4\n      mload\n      sub(shl(0xa0, 0x01), 0x01)\n        /* \"#utility.yul\":5846:5885   */\n      and\n        /* \"#utility.yul\":5834:5886   */\n      dup4\n      mstore\n        /* \"#utility.yul\":5915:5917   */\n      0x20\n        /* \"#utility.yul\":5941:5956   */\n      swap4\n      dup5\n      add\n      swap4\n        /* \"#utility.yul\":5906:5918   */\n      swap1\n      swap3\n      add\n      swap2\n        /* \"#utility.yul\":5882:5883   */\n      0x01\n        /* \"#utility.yul\":5800:5809   */\n      add\n        /* \"#utility.yul\":5771:5966   */\n      jump(tag_372)\n    tag_374:\n      pop\n        /* \"#utility.yul\":5983:5986   */\n      swap1\n      swap6\n        /* \"#utility.yul\":5355:5992   */\n      swap5\n      pop\n      pop\n      pop\n      pop\n      pop\n      jump\t// out\n        /* \"#utility.yul\":5997:6223   */\n    tag_77:\n        /* \"#utility.yul\":6056:6062   */\n      0x00\n        /* \"#utility.yul\":6109:6111   */\n      0x20\n        /* \"#utility.yul\":6097:6106   */\n      dup3\n        /* \"#utility.yul\":6088:6095   */\n      dup5\n        /* \"#utility.yul\":6084:6107   */\n      sub\n        /* \"#utility.yul\":6080:6112   */\n      slt\n        /* \"#utility.yul\":6077:6129   */\n      iszero\n      tag_376\n      jumpi\n        /* \"#utility.yul\":6125:6126   */\n      0x00\n        /* \"#utility.yul\":6122:6123   */\n      dup1\n        /* \"#utility.yul\":6115:6127   */\n      revert\n        /* \"#utility.yul\":6077:6129   */\n    tag_376:\n      pop\n        /* \"#utility.yul\":6170:6193   */\n      calldataload\n      swap2\n        /* \"#utility.yul\":5997:6223   */\n      swap1\n      pop\n      jump\t// out\n        /* \"#utility.yul\":6228:7214   */\n    tag_83:\n        /* \"#utility.yul\":6561:6564   */\n      0x0100\n        /* \"#utility.yul\":6550:6559   */\n      dup2\n        /* \"#utility.yul\":6543:6565   */\n      mstore\n        /* \"#utility.yul\":6524:6528   */\n      0x00\n        /* \"#utility.yul\":6594:6600   */\n      dup10\n        /* \"#utility.yul\":6588:6601   */\n      mload\n        /* \"#utility.yul\":6638:6644   */\n      dup1\n        /* \"#utility.yul\":6632:6635   */\n      0x0100\n        /* \"#utility.yul\":6621:6630   */\n      dup5\n        /* \"#utility.yul\":6617:6636   */\n      add\n        /* \"#utility.yul\":6610:6645   */\n      mstore\n        /* \"#utility.yul\":6700:6706   */\n      dup1\n        /* \"#utility.yul\":6693:6697   */\n      0x20\n        /* \"#utility.yul\":6685:6691   */\n      dup13\n        /* \"#utility.yul\":6681:6698   */\n      add\n        /* \"#utility.yul\":6675:6678   */\n      0x0120\n        /* \"#utility.yul\":6664:6673   */\n      dup6\n        /* \"#utility.yul\":6660:6679   */\n      add\n        /* \"#utility.yul\":6654:6707   */\n      mcopy\n        /* \"#utility.yul\":6757:6758   */\n      0x00\n        /* \"#utility.yul\":6751:6754   */\n      0x0120\n        /* \"#utility.yul\":6727:6749   */\n      dup3\n      dup6\n      add\n        /* \"#utility.yul\":6723:6755   */\n      dup2\n      add\n        /* \"#utility.yul\":6716:6759   */\n      swap2\n      swap1\n      swap2\n      mstore\n      sub(shl(0xa0, 0x01), 0x01)\n        /* \"#utility.yul\":6869:6901   */\n      swap11\n      dup12\n      and\n        /* \"#utility.yul\":6862:6866   */\n      0x20\n        /* \"#utility.yul\":6847:6867   */\n      dup6\n      add\n        /* \"#utility.yul\":6840:6902   */\n      mstore\n        /* \"#utility.yul\":6938:6970   */\n      swap9\n      swap1\n      swap10\n      and\n        /* \"#utility.yul\":6933:6935   */\n      0x40\n        /* \"#utility.yul\":6918:6936   */\n      dup4\n      add\n        /* \"#utility.yul\":6911:6971   */\n      mstore\n      pop\n        /* \"#utility.yul\":7002:7004   */\n      0x60\n        /* \"#utility.yul\":6987:7005   */\n      dup2\n      add\n        /* \"#utility.yul\":6980:7014   */\n      swap6\n      swap1\n      swap6\n      mstore\n        /* \"#utility.yul\":7045:7048   */\n      0x80\n        /* \"#utility.yul\":7030:7049   */\n      dup6\n      add\n        /* \"#utility.yul\":7023:7058   */\n      swap4\n      swap1\n      swap4\n      mstore\n        /* \"#utility.yul\":2422:2435   */\n      swap1\n      iszero\n        /* \"#utility.yul\":2415:2436   */\n      iszero\n        /* \"#utility.yul\":6889:6892   */\n      0xa0\n        /* \"#utility.yul\":7091:7110   */\n      dup5\n      add\n        /* \"#utility.yul\":2403:2437   */\n      mstore\n        /* \"#utility.yul\":2422:2435   */\n      iszero\n        /* \"#utility.yul\":2415:2436   */\n      iszero\n        /* \"#utility.yul\":7159:7162   */\n      0xc0\n        /* \"#utility.yul\":7144:7163   */\n      dup4\n      add\n        /* \"#utility.yul\":2403:2437   */\n      mstore\n        /* \"#utility.yul\":7195:7198   */\n      0xe0\n        /* \"#utility.yul\":7180:7199   */\n      dup3\n      add\n        /* \"#utility.yul\":7173:7208   */\n      mstore\n        /* \"#utility.yul\":6820:6822   */\n      0x1f\n        /* \"#utility.yul\":6799:6814   */\n      swap1\n      swap3\n      add\n      not(0x1f)\n        /* \"#utility.yul\":6795:6824   */\n      and\n        /* \"#utility.yul\":6780:6825   */\n      swap1\n      swap2\n      add\n        /* \"#utility.yul\":6776:6831   */\n      add\n      swap2\n      swap1\n      pop\n        /* \"#utility.yul\":6228:7214   */\n      jump\t// out\n        /* \"#utility.yul\":7219:7405   */\n    tag_86:\n        /* \"#utility.yul\":7278:7284   */\n      0x00\n        /* \"#utility.yul\":7331:7333   */\n      0x20\n        /* \"#utility.yul\":7319:7328   */\n      dup3\n        /* \"#utility.yul\":7310:7317   */\n      dup5\n        /* \"#utility.yul\":7306:7329   */\n      sub\n        /* \"#utility.yul\":7302:7334   */\n      slt\n        /* \"#utility.yul\":7299:7351   */\n      iszero\n      tag_381\n      jumpi\n        /* \"#utility.yul\":7347:7348   */\n      0x00\n        /* \"#utility.yul\":7344:7345   */\n      dup1\n        /* \"#utility.yul\":7337:7349   */\n      revert\n        /* \"#utility.yul\":7299:7351   */\n    tag_381:\n        /* \"#utility.yul\":7370:7399   */\n      tag_382\n        /* \"#utility.yul\":7389:7398   */\n      dup3\n        /* \"#utility.yul\":7370:7399   */\n      tag_322\n      jump\t// in\n    tag_382:\n        /* \"#utility.yul\":7360:7399   */\n      swap4\n        /* \"#utility.yul\":7219:7405   */\n      swap3\n      pop\n      pop\n      pop\n      jump\t// out\n        /* \"#utility.yul\":7410:7683   */\n    tag_99:\n        /* \"#utility.yul\":7595:7601   */\n      dup2\n        /* \"#utility.yul\":7587:7593   */\n      dup4\n        /* \"#utility.yul\":7582:7585   */\n      dup3\n        /* \"#utility.yul\":7569:7602   */\n      calldatacopy\n        /* \"#utility.yul\":7551:7554   */\n      0x00\n        /* \"#utility.yul\":7621:7637   */\n      swap2\n      add\n        /* \"#utility.yul\":7646:7659   */\n      swap1\n      dup2\n      mstore\n        /* \"#utility.yul\":7621:7637   */\n      swap2\n        /* \"#utility.yul\":7410:7683   */\n      swap1\n      pop\n      jump\t// out\n        /* \"#utility.yul\":9109:9489   */\n    tag_270:\n        /* \"#utility.yul\":9188:9189   */\n      0x01\n        /* \"#utility.yul\":9184:9196   */\n      dup2\n      dup2\n      shr\n      swap1\n        /* \"#utility.yul\":9231:9243   */\n      dup3\n      and\n      dup1\n        /* \"#utility.yul\":9252:9313   */\n      tag_389\n      jumpi\n        /* \"#utility.yul\":9306:9310   */\n      0x7f\n        /* \"#utility.yul\":9298:9304   */\n      dup3\n        /* \"#utility.yul\":9294:9311   */\n      and\n        /* \"#utility.yul\":9284:9311   */\n      swap2\n      pop\n        /* \"#utility.yul\":9252:9313   */\n    tag_389:\n        /* \"#utility.yul\":9359:9361   */\n      0x20\n        /* \"#utility.yul\":9351:9357   */\n      dup3\n        /* \"#utility.yul\":9348:9362   */\n      lt\n        /* \"#utility.yul\":9328:9346   */\n      dup2\n        /* \"#utility.yul\":9325:9363   */\n      sub\n        /* \"#utility.yul\":9322:9483   */\n      tag_390\n      jumpi\n        /* \"#utility.yul\":9405:9415   */\n      0x4e487b71\n        /* \"#utility.yul\":9400:9403   */\n      0xe0\n        /* \"#utility.yul\":9396:9416   */\n      shl\n        /* \"#utility.yul\":9393:9394   */\n      0x00\n        /* \"#utility.yul\":9386:9417   */\n      mstore\n        /* \"#utility.yul\":9440:9444   */\n      0x22\n        /* \"#utility.yul\":9437:9438   */\n      0x04\n        /* \"#utility.yul\":9430:9445   */\n      mstore\n        /* \"#utility.yul\":9468:9472   */\n      0x24\n        /* \"#utility.yul\":9465:9466   */\n      0x00\n        /* \"#utility.yul\":9458:9473   */\n      revert\n        /* \"#utility.yul\":9322:9483   */\n    tag_390:\n      pop\n        /* \"#utility.yul\":9109:9489   */\n      swap2\n      swap1\n      pop\n      jump\t// out\n        /* \"#utility.yul\":9620:10138   */\n    tag_326:\n        /* \"#utility.yul\":9722:9724   */\n      0x1f\n        /* \"#utility.yul\":9717:9720   */\n      dup3\n        /* \"#utility.yul\":9714:9725   */\n      gt\n        /* \"#utility.yul\":9711:10132   */\n      iszero\n      tag_306\n      jumpi\n        /* \"#utility.yul\":9758:9763   */\n      dup1\n        /* \"#utility.yul\":9755:9756   */\n      0x00\n        /* \"#utility.yul\":9748:9764   */\n      mstore\n        /* \"#utility.yul\":9802:9806   */\n      0x20\n        /* \"#utility.yul\":9799:9800   */\n      0x00\n        /* \"#utility.yul\":9789:9807   */\n      keccak256\n        /* \"#utility.yul\":9872:9874   */\n      0x1f\n        /* \"#utility.yul\":9860:9870   */\n      dup5\n        /* \"#utility.yul\":9856:9875   */\n      add\n        /* \"#utility.yul\":9853:9854   */\n      0x05\n        /* \"#utility.yul\":9849:9876   */\n      shr\n        /* \"#utility.yul\":9843:9847   */\n      dup2\n        /* \"#utility.yul\":9839:9877   */\n      add\n        /* \"#utility.yul\":9908:9912   */\n      0x20\n        /* \"#utility.yul\":9896:9906   */\n      dup6\n        /* \"#utility.yul\":9893:9913   */\n      lt\n        /* \"#utility.yul\":9890:9937   */\n      iszero\n      tag_394\n      jumpi\n      pop\n        /* \"#utility.yul\":9931:9935   */\n      dup1\n        /* \"#utility.yul\":9890:9937   */\n    tag_394:\n        /* \"#utility.yul\":9986:9988   */\n      0x1f\n        /* \"#utility.yul\":9981:9984   */\n      dup5\n        /* \"#utility.yul\":9977:9989   */\n      add\n        /* \"#utility.yul\":9974:9975   */\n      0x05\n        /* \"#utility.yul\":9970:9990   */\n      shr\n        /* \"#utility.yul\":9964:9968   */\n      dup3\n        /* \"#utility.yul\":9960:9991   */\n      add\n        /* \"#utility.yul\":9950:9991   */\n      swap2\n      pop\n        /* \"#utility.yul\":10041:10122   */\n    tag_395:\n        /* \"#utility.yul\":10059:10061   */\n      dup2\n        /* \"#utility.yul\":10052:10057   */\n      dup2\n        /* \"#utility.yul\":10049:10062   */\n      lt\n        /* \"#utility.yul\":10041:10122   */\n      iszero\n      tag_121\n      jumpi\n        /* \"#utility.yul\":10118:10119   */\n      0x00\n        /* \"#utility.yul\":10104:10120   */\n      dup2\n      sstore\n        /* \"#utility.yul\":10085:10086   */\n      0x01\n        /* \"#utility.yul\":10074:10087   */\n      add\n        /* \"#utility.yul\":10041:10122   */\n      jump(tag_395)\n        /* \"#utility.yul\":10314:11512   */\n    tag_116:\n        /* \"#utility.yul\":10438:10456   */\n      0xffffffffffffffff\n        /* \"#utility.yul\":10433:10436   */\n      dup4\n        /* \"#utility.yul\":10430:10457   */\n      gt\n        /* \"#utility.yul\":10427:10480   */\n      iszero\n      tag_401\n      jumpi\n        /* \"#utility.yul\":10460:10478   */\n      tag_401\n      tag_323\n      jump\t// in\n    tag_401:\n        /* \"#utility.yul\":10489:10583   */\n      tag_402\n        /* \"#utility.yul\":10579:10582   */\n      dup4\n        /* \"#utility.yul\":10539:10577   */\n      tag_403\n        /* \"#utility.yul\":10571:10575   */\n      dup4\n        /* \"#utility.yul\":10565:10576   */\n      sload\n        /* \"#utility.yul\":10539:10577   */\n      tag_270\n      jump\t// in\n    tag_403:\n        /* \"#utility.yul\":10533:10537   */\n      dup4\n        /* \"#utility.yul\":10489:10583   */\n      tag_326\n      jump\t// in\n    tag_402:\n        /* \"#utility.yul\":10609:10610   */\n      0x00\n        /* \"#utility.yul\":10634:10636   */\n      0x1f\n        /* \"#utility.yul\":10629:10632   */\n      dup5\n        /* \"#utility.yul\":10626:10637   */\n      gt\n        /* \"#utility.yul\":10651:10652   */\n      0x01\n        /* \"#utility.yul\":10646:11254   */\n      dup2\n      eq\n      tag_405\n      jumpi\n        /* \"#utility.yul\":11298:11299   */\n      0x00\n        /* \"#utility.yul\":11315:11318   */\n      dup6\n        /* \"#utility.yul\":11312:11405   */\n      iszero\n      tag_406\n      jumpi\n      pop\n        /* \"#utility.yul\":11371:11390   */\n      dup4\n      dup3\n      add\n        /* \"#utility.yul\":11358:11391   */\n      calldataload\n        /* \"#utility.yul\":11312:11405   */\n    tag_406:\n      not(0x00)\n        /* \"#utility.yul\":10271:10272   */\n      0x03\n        /* \"#utility.yul\":10267:10278   */\n      dup8\n      swap1\n      shl\n        /* \"#utility.yul\":10263:10287   */\n      shr\n        /* \"#utility.yul\":10259:10288   */\n      not\n        /* \"#utility.yul\":10249:10289   */\n      and\n        /* \"#utility.yul\":10295:10296   */\n      0x01\n        /* \"#utility.yul\":10291:10302   */\n      dup7\n      swap1\n      shl\n        /* \"#utility.yul\":10246:10303   */\n      or\n        /* \"#utility.yul\":11418:11496   */\n      dup4\n      sstore\n        /* \"#utility.yul\":10619:11506   */\n      jump(tag_121)\n        /* \"#utility.yul\":10646:11254   */\n    tag_405:\n        /* \"#utility.yul\":9567:9568   */\n      0x00\n        /* \"#utility.yul\":9560:9574   */\n      dup4\n      dup2\n      mstore\n        /* \"#utility.yul\":9604:9608   */\n      0x20\n        /* \"#utility.yul\":9591:9609   */\n      dup2\n      keccak256\n      not(0x1f)\n        /* \"#utility.yul\":10682:10699   */\n      dup8\n      and\n      swap2\n        /* \"#utility.yul\":10797:11026   */\n    tag_409:\n        /* \"#utility.yul\":10811:10818   */\n      dup3\n        /* \"#utility.yul\":10808:10809   */\n      dup2\n        /* \"#utility.yul\":10805:10819   */\n      lt\n        /* \"#utility.yul\":10797:11026   */\n      iszero\n      tag_411\n      jumpi\n        /* \"#utility.yul\":10900:10919   */\n      dup7\n      dup6\n      add\n        /* \"#utility.yul\":10887:10920   */\n      calldataload\n        /* \"#utility.yul\":10872:10921   */\n      dup3\n      sstore\n        /* \"#utility.yul\":11007:11011   */\n      0x20\n        /* \"#utility.yul\":10992:11012   */\n      swap5\n      dup6\n      add\n      swap5\n        /* \"#utility.yul\":10960:10961   */\n      0x01\n        /* \"#utility.yul\":10948:10962   */\n      swap1\n      swap3\n      add\n      swap2\n        /* \"#utility.yul\":10827:10839   */\n      add\n        /* \"#utility.yul\":10797:11026   */\n      jump(tag_409)\n    tag_411:\n        /* \"#utility.yul\":10801:10804   */\n      pop\n        /* \"#utility.yul\":11054:11057   */\n      dup7\n        /* \"#utility.yul\":11045:11052   */\n      dup3\n        /* \"#utility.yul\":11042:11058   */\n      lt\n        /* \"#utility.yul\":11039:11198   */\n      iszero\n      tag_412\n      jumpi\n        /* \"#utility.yul\":11178:11179   */\n      0x00\n        /* \"#utility.yul\":11174:11180   */\n      not\n        /* \"#utility.yul\":11168:11171   */\n      0xf8\n        /* \"#utility.yul\":11162:11165   */\n      dup9\n        /* \"#utility.yul\":11159:11160   */\n      0x03\n        /* \"#utility.yul\":11155:11166   */\n      shl\n        /* \"#utility.yul\":11151:11172   */\n      and\n        /* \"#utility.yul\":11147:11181   */\n      shr\n        /* \"#utility.yul\":11143:11182   */\n      not\n        /* \"#utility.yul\":11130:11139   */\n      dup5\n        /* \"#utility.yul\":11125:11128   */\n      dup8\n        /* \"#utility.yul\":11121:11140   */\n      add\n        /* \"#utility.yul\":11108:11141   */\n      calldataload\n        /* \"#utility.yul\":11104:11183   */\n      and\n        /* \"#utility.yul\":11096:11102   */\n      dup2\n        /* \"#utility.yul\":11089:11184   */\n      sstore\n        /* \"#utility.yul\":11039:11198   */\n    tag_412:\n      pop\n      pop\n        /* \"#utility.yul\":11241:11242   */\n      0x01\n        /* \"#utility.yul\":11235:11238   */\n      dup6\n        /* \"#utility.yul\":11232:11233   */\n      0x01\n        /* \"#utility.yul\":11228:11239   */\n      shl\n        /* \"#utility.yul\":11224:11243   */\n      add\n        /* \"#utility.yul\":11218:11222   */\n      dup4\n        /* \"#utility.yul\":11211:11244   */\n      sstore\n        /* \"#utility.yul\":10619:11506   */\n      pop\n      pop\n        /* \"#utility.yul\":10314:11512   */\n      pop\n      pop\n      pop\n      jump\t// out\n        /* \"#utility.yul\":11770:12117   */\n    tag_127:\n        /* \"#utility.yul\":11972:11974   */\n      0x20\n        /* \"#utility.yul\":11954:11975   */\n      dup1\n      dup3\n      mstore\n        /* \"#utility.yul\":12011:12013   */\n      0x17\n        /* \"#utility.yul\":11991:12009   */\n      swap1\n      dup3\n      add\n        /* \"#utility.yul\":11984:12014   */\n      mstore\n        /* \"#utility.yul\":12050:12075   */\n      0x5261696e64726f7020646f6573206e6f74206578697374000000000000000000\n        /* \"#utility.yul\":12045:12047   */\n      0x40\n        /* \"#utility.yul\":12030:12048   */\n      dup3\n      add\n        /* \"#utility.yul\":12023:12076   */\n      mstore\n        /* \"#utility.yul\":12108:12110   */\n      0x60\n        /* \"#utility.yul\":12093:12111   */\n      add\n      swap1\n        /* \"#utility.yul\":11770:12117   */\n      jump\t// out\n        /* \"#utility.yul\":12122:12460   */\n    tag_133:\n        /* \"#utility.yul\":12324:12326   */\n      0x20\n        /* \"#utility.yul\":12306:12327   */\n      dup1\n      dup3\n      mstore\n        /* \"#utility.yul\":12363:12365   */\n      0x0e\n        /* \"#utility.yul\":12343:12361   */\n      swap1\n      dup3\n      add\n        /* \"#utility.yul\":12336:12366   */\n      mstore\n      shl(0x92, 0x139bdd08185d5d1a1bdc9a5e9959)\n        /* \"#utility.yul\":12397:12399   */\n      0x40\n        /* \"#utility.yul\":12382:12400   */\n      dup3\n      add\n        /* \"#utility.yul\":12375:12419   */\n      mstore\n        /* \"#utility.yul\":12451:12453   */\n      0x60\n        /* \"#utility.yul\":12436:12454   */\n      add\n      swap1\n        /* \"#utility.yul\":12122:12460   */\n      jump\t// out\n        /* \"#utility.yul\":12465:12814   */\n    tag_136:\n        /* \"#utility.yul\":12667:12669   */\n      0x20\n        /* \"#utility.yul\":12649:12670   */\n      dup1\n      dup3\n      mstore\n        /* \"#utility.yul\":12706:12708   */\n      0x19\n        /* \"#utility.yul\":12686:12704   */\n      swap1\n      dup3\n      add\n        /* \"#utility.yul\":12679:12709   */\n      mstore\n        /* \"#utility.yul\":12745:12772   */\n      0x5261696e64726f7020616c726561647920657865637574656400000000000000\n        /* \"#utility.yul\":12740:12742   */\n      0x40\n        /* \"#utility.yul\":12725:12743   */\n      dup3\n      add\n        /* \"#utility.yul\":12718:12773   */\n      mstore\n        /* \"#utility.yul\":12805:12807   */\n      0x60\n        /* \"#utility.yul\":12790:12808   */\n      add\n      swap1\n        /* \"#utility.yul\":12465:12814   */\n      jump\t// out\n        /* \"#utility.yul\":13516:13643   */\n    tag_148:\n        /* \"#utility.yul\":13577:13587   */\n      0x4e487b71\n        /* \"#utility.yul\":13572:13575   */\n      0xe0\n        /* \"#utility.yul\":13568:13588   */\n      shl\n        /* \"#utility.yul\":13565:13566   */\n      0x00\n        /* \"#utility.yul\":13558:13589   */\n      mstore\n        /* \"#utility.yul\":13608:13612   */\n      0x32\n        /* \"#utility.yul\":13605:13606   */\n      0x04\n        /* \"#utility.yul\":13598:13613   */\n      mstore\n        /* \"#utility.yul\":13632:13636   */\n      0x24\n        /* \"#utility.yul\":13629:13630   */\n      0x00\n        /* \"#utility.yul\":13622:13637   */\n      revert\n        /* \"#utility.yul\":14359:14486   */\n    tag_328:\n        /* \"#utility.yul\":14420:14430   */\n      0x4e487b71\n        /* \"#utility.yul\":14415:14418   */\n      0xe0\n        /* \"#utility.yul\":14411:14431   */\n      shl\n        /* \"#utility.yul\":14408:14409   */\n      0x00\n        /* \"#utility.yul\":14401:14432   */\n      mstore\n        /* \"#utility.yul\":14451:14455   */\n      0x11\n        /* \"#utility.yul\":14448:14449   */\n      0x04\n        /* \"#utility.yul\":14441:14456   */\n      mstore\n        /* \"#utility.yul\":14475:14479   */\n      0x24\n        /* \"#utility.yul\":14472:14473   */\n      0x00\n        /* \"#utility.yul\":14465:14480   */\n      revert\n        /* \"#utility.yul\":14491:14708   */\n    tag_168:\n        /* \"#utility.yul\":14531:14532   */\n      0x00\n        /* \"#utility.yul\":14557:14558   */\n      dup3\n        /* \"#utility.yul\":14547:14679   */\n      tag_424\n      jumpi\n        /* \"#utility.yul\":14601:14611   */\n      0x4e487b71\n        /* \"#utility.yul\":14596:14599   */\n      0xe0\n        /* \"#utility.yul\":14592:14612   */\n      shl\n        /* \"#utility.yul\":14589:14590   */\n      0x00\n        /* \"#utility.yul\":14582:14613   */\n      mstore\n        /* \"#utility.yul\":14636:14640   */\n      0x12\n        /* \"#utility.yul\":14633:14634   */\n      0x04\n        /* \"#utility.yul\":14626:14641   */\n      mstore\n        /* \"#utility.yul\":14664:14668   */\n      0x24\n        /* \"#utility.yul\":14661:14662   */\n      0x00\n        /* \"#utility.yul\":14654:14669   */\n      revert\n        /* \"#utility.yul\":14547:14679   */\n    tag_424:\n      pop\n        /* \"#utility.yul\":14693:14702   */\n      div\n      swap1\n        /* \"#utility.yul\":14491:14708   */\n      jump\t// out\n        /* \"#utility.yul\":15767:15935   */\n    tag_222:\n        /* \"#utility.yul\":15840:15849   */\n      dup1\n      dup3\n      mul\n        /* \"#utility.yul\":15871:15880   */\n      dup2\n      iszero\n        /* \"#utility.yul\":15888:15903   */\n      dup3\n      dup3\n      div\n        /* \"#utility.yul\":15882:15904   */\n      dup5\n      eq\n        /* \"#utility.yul\":15868:15905   */\n      or\n        /* \"#utility.yul\":15858:15929   */\n      tag_191\n      jumpi\n        /* \"#utility.yul\":15909:15927   */\n      tag_191\n      tag_328\n      jump\t// in\n        /* \"#utility.yul\":15940:16068   */\n    tag_226:\n        /* \"#utility.yul\":16007:16016   */\n      dup2\n      dup2\n      sub\n        /* \"#utility.yul\":16028:16039   */\n      dup2\n      dup2\n      gt\n        /* \"#utility.yul\":16025:16062   */\n      iszero\n      tag_191\n      jumpi\n        /* \"#utility.yul\":16042:16060   */\n      tag_191\n      tag_328\n      jump\t// in\n\n    auxdata: 0xa2646970667358221220e607578d52dd161be2189a88ff0c315e810c9850a329e7bfee487542e4c7747364736f6c634300081a0033\n}\n",
				"bytecode": {
					"linkReferences": {},
					"object": "6080604052600a600255348015610014575f80fd5b50604051611b87380380611b87833981016040819052610033916100dc565b60015f55338061005c57604051631e4fbdf760e01b81525f600482015260240160405180910390fd5b6100658161008b565b50600380546001600160a01b0319166001600160a01b0392909216919091179055610109565b600180546001600160a01b038381166001600160a01b0319831681179093556040519116919082907f8be0079c531659141344cd1fd0a4f28419497f9722a3daafe3b4186f6b6457e0905f90a35050565b5f602082840312156100ec575f80fd5b81516001600160a01b0381168114610102575f80fd5b9392505050565b611a71806101165f395ff3fe608060405234801561000f575f80fd5b5060043610610111575f3560e01c80637e90def71161009e578063aa0b59881161006e578063aa0b598814610293578063b28a9d6f146102a6578063f160d369146102cd578063f2fde38b146102e0578063f3baf070146102f3575f80fd5b80637e90def71461023c5780638da5cb5b1461025c5780639a43dc0c1461026d5780639b0f14b514610280575f80fd5b80634898ba63116100e45780634898ba63146101af5780636b0db1fa146101b7578063715018a6146101ca57806372521d47146101d25780637902019414610229575f80fd5b806302749be7146101155780630d12cba21461012a57806322dcd13e1461016d5780634690484014610184575b5f80fd5b6101286101233660046114cb565b6102fd565b005b610158610138366004611540565b805160208183018101805160058252928201919093012091525460ff1681565b60405190151581526020015b60405180910390f35b61017660025481565b604051908152602001610164565b600354610197906001600160a01b031681565b6040516001600160a01b039091168152602001610164565b610176600181565b6101286101c53660046115f3565b61059a565b6101286109a4565b6101e56101e036600461168f565b6109b7565b604080516001600160a01b03988916815297909616602088015294860193909352606085019190915215156080840152151560a083015260c082015260e001610164565b6101286102373660046116ce565b610a79565b61024f61024a36600461168f565b610aab565b60405161016491906116f6565b6001546001600160a01b0316610197565b61012861027b36600461168f565b610b6b565b61012861028e36600461168f565b610ea4565b6101286102a1366004611741565b611075565b6102b96102b4366004611540565b6110c2565b604051610164989796959493929190611758565b6101286102db3660046117cf565b6111aa565b6101286102ee3660046117cf565b61121c565b610176620186a081565b610305611259565b600585856040516103179291906117ef565b9081526040519081900360200190205460ff161561037c5760405162461bcd60e51b815260206004820152601760248201527f5261696e64726f7020616c72656164792065786973747300000000000000000060448201526064015b60405180910390fd5b6001600160a01b0383166103ca5760405162461bcd60e51b8152602060048201526015602482015274496e76616c696420746f6b656e206164647265737360581b6044820152606401610373565b5f82116104195760405162461bcd60e51b815260206004820152601d60248201527f416d6f756e74206d7573742062652067726561746572207468616e20300000006044820152606401610373565b4281116104685760405162461bcd60e51b815260206004820181905260248201527f5363686564756c65642074696d65206d75737420626520696e206675747572656044820152606401610373565b61047d6001600160a01b0384163330856112b0565b5f600486866040516104909291906117ef565b9081526040519081900360200190209050806104ad86888361187a565b5060018181018054336001600160a01b0319918216179091556002830180549091166001600160a01b03871617905560038201849055600482018390556005808301805461ffff191690555f600684015560405161050e90899089906117ef565b908152604051908190036020018120805492151560ff19909316929092179091556001600160a01b03851690339061054990899089906117ef565b6040805191829003822087835260208301879052917f04c9d53d935621250c2a973ca08a8ba1828a8ae00d5e5a57c23344069a08f35f910160405180910390a45061059360015f55565b5050505050565b600584846040516105ac9291906117ef565b9081526040519081900360200190205460ff166105db5760405162461bcd60e51b815260040161037390611934565b5f600485856040516105ee9291906117ef565b9081526040519081900360200190206001810154909150336001600160a01b03909116148061062757506001546001600160a01b031633145b6106435760405162461bcd60e51b81526004016103739061196b565b600581015460ff16156106685760405162461bcd60e51b815260040161037390611993565b6005810154610100900460ff16156106b75760405162461bcd60e51b815260206004820152601260248201527114985a5b991c9bdc0818d85b98d95b1b195960721b6044820152606401610373565b620186a08211156107025760405162461bcd60e51b8152602060048201526015602482015274546f6f206d616e79207061727469636970616e747360581b6044820152606401610373565b5f5b6008820154811015610766575f826007015f84600801848154811061072b5761072b6119ca565b5f918252602080832091909101546001600160a01b031683528201929092526040019020805460ff1916911515919091179055600101610704565b50610774600882015f61143d565b5f5b828110156108d3575f848483818110610791576107916119ca565b90506020020160208101906107a691906117cf565b90506001600160a01b0381166107fe5760405162461bcd60e51b815260206004820152601b60248201527f496e76616c6964207061727469636970616e74206164647265737300000000006044820152606401610373565b60018301546001600160a01b039081169082160361085e5760405162461bcd60e51b815260206004820152601a60248201527f486f73742063616e6e6f74206265207061727469636970616e740000000000006044820152606401610373565b6001600160a01b0381165f90815260078401602052604090205460ff166108ca576001600160a01b0381165f81815260078501602090815260408220805460ff191660019081179091556008870180549182018155835291200180546001600160a01b03191690911790555b50600101610776565b506008810154600682018190551561094f575f816006015482600301546108fa91906119f2565b9050600181101561094d5760405162461bcd60e51b815260206004820181905260248201527f416d6f756e7420706572207061727469636970616e7420746f6f20736d616c6c6044820152606401610373565b505b848460405161095f9291906117ef565b60405190819003812060068301548252907f33413169b586f09864fc3649ce426faf08ff20ff0580328a11860e98ab66a0149060200160405180910390a25050505050565b6109ac61131d565b6109b55f61134a565b565b5f805f805f805f600589896040516109d09291906117ef565b9081526040519081900360200190205460ff166109ff5760405162461bcd60e51b815260040161037390611934565b5f60048a8a604051610a129291906117ef565b908152604051908190036020019020600181015460028201546003830154600484015460058501546006909501546001600160a01b039485169d50929093169a50985090965060ff8083169650610100909204909116935091505092959891949750929550565b610a8161131d565b610aa7610a966001546001600160a01b031690565b6001600160a01b038416908361139b565b5050565b606060058383604051610abf9291906117ef565b9081526040519081900360200190205460ff16610aee5760405162461bcd60e51b815260040161037390611934565b60048383604051610b009291906117ef565b9081526040805191829003602090810183206008018054808302850183019093528284529190830182828015610b5d57602002820191905f5260205f20905b81546001600160a01b03168152600190910190602001808311610b3f575b505050505090505b92915050565b610b73611259565b60058282604051610b859291906117ef565b9081526040519081900360200190205460ff16610bb45760405162461bcd60e51b815260040161037390611934565b5f60048383604051610bc79291906117ef565b9081526040519081900360200190206001810154909150336001600160a01b039091161480610c0057506001546001600160a01b031633145b610c1c5760405162461bcd60e51b81526004016103739061196b565b600581015460ff1615610c415760405162461bcd60e51b815260040161037390611993565b6005810154610100900460ff1615610c905760405162461bcd60e51b815260206004820152601260248201527114985a5b991c9bdc0818d85b98d95b1b195960721b6044820152606401610373565b8060040154421015610cdb5760405162461bcd60e51b8152602060048201526014602482015273546f6f206561726c7920746f206578656375746560601b6044820152606401610373565b5f816006015411610d205760405162461bcd60e51b815260206004820152600f60248201526e4e6f207061727469636970616e747360881b6044820152606401610373565b60058101805460ff19166001179055600681015460038201545f91610d44916119f2565b90505f826006015482610d579190611a11565b90505f61271060025483610d6b9190611a11565b610d7591906119f2565b90505f81838660030154610d899190611a28565b610d939190611a28565b60028601549091506001600160a01b03165f5b8660060154811015610df6575f876008018281548110610dc857610dc86119ca565b5f918252602090912001546001600160a01b039081169150610ded908416828961139b565b50600101610da6565b508215610e1757600354610e17906001600160a01b0383811691168561139b565b8115610e39576001860154610e39906001600160a01b0383811691168461139b565b8787604051610e499291906117ef565b604080519182900382206006890154835260208301889052908201869052907fe56eba28928c6808ff8d65117cc1d7ba272e42f06114b621406245fe7e42fff29060600160405180910390a2505050505050610aa760015f55565b610eac611259565b60058282604051610ebe9291906117ef565b9081526040519081900360200190205460ff16610eed5760405162461bcd60e51b815260040161037390611934565b5f60048383604051610f009291906117ef565b9081526040519081900360200190206001810154909150336001600160a01b039091161480610f3957506001546001600160a01b031633145b610f555760405162461bcd60e51b81526004016103739061196b565b600581015460ff1615610f7a5760405162461bcd60e51b815260040161037390611993565b6005810154610100900460ff1615610fd45760405162461bcd60e51b815260206004820152601a60248201527f5261696e64726f7020616c72656164792063616e63656c6c65640000000000006044820152606401610373565b60058101805461ff00191661010017905560018101546003820154600283015461100c926001600160a01b039182169291169061139b565b60018101546040516001600160a01b039091169061102d90859085906117ef565b60405190819003812060038401548252907f16b1484adf14ddc11ad828089c5f7ac1932ae15cac0fd6100804b92746616b049060200160405180910390a350610aa760015f55565b61107d61131d565b60648111156110bd5760405162461bcd60e51b815260206004820152600c60248201526b08ccaca40e8dede40d0d2ced60a31b6044820152606401610373565b600255565b80516020818301810180516004825292820191909301209152805481906110e8906117fe565b80601f0160208091040260200160405190810160405280929190818152602001828054611114906117fe565b801561115f5780601f106111365761010080835404028352916020019161115f565b820191905f5260205f20905b81548152906001019060200180831161114257829003601f168201915b5050506001840154600285015460038601546004870154600588015460069098015496976001600160a01b03948516979390941695509093509160ff80821692610100909204169088565b6111b261131d565b6001600160a01b0381166111fa5760405162461bcd60e51b815260206004820152600f60248201526e496e76616c6964206164647265737360881b6044820152606401610373565b600380546001600160a01b0319166001600160a01b0392909216919091179055565b61122461131d565b6001600160a01b03811661124d57604051631e4fbdf760e01b81525f6004820152602401610373565b6112568161134a565b50565b60025f54036112aa5760405162461bcd60e51b815260206004820152601f60248201527f5265656e7472616e637947756172643a207265656e7472616e742063616c6c006044820152606401610373565b60025f55565b6040516001600160a01b0384811660248301528381166044830152606482018390526113179186918216906323b872dd906084015b604051602081830303815290604052915060e01b6020820180516001600160e01b0383818316178352505050506113d1565b50505050565b6001546001600160a01b031633146109b55760405163118cdaa760e01b8152336004820152602401610373565b600180546001600160a01b038381166001600160a01b0319831681179093556040519116919082907f8be0079c531659141344cd1fd0a4f28419497f9722a3daafe3b4186f6b6457e0905f90a35050565b6040516001600160a01b038381166024830152604482018390526113cc91859182169063a9059cbb906064016112e5565b505050565b5f8060205f8451602086015f885af1806113f0576040513d5f823e3d81fd5b50505f513d91508115611407578060011415611414565b6001600160a01b0384163b155b1561131757604051635274afe760e01b81526001600160a01b0385166004820152602401610373565b5080545f8255905f5260205f209081019061125691905b80821115611467575f8155600101611454565b5090565b5f8083601f84011261147b575f80fd5b50813567ffffffffffffffff811115611492575f80fd5b6020830191508360208285010111156114a9575f80fd5b9250929050565b80356001600160a01b03811681146114c6575f80fd5b919050565b5f805f805f608086880312156114df575f80fd5b853567ffffffffffffffff8111156114f5575f80fd5b6115018882890161146b565b90965094506115149050602087016114b0565b94979396509394604081013594506060013592915050565b634e487b7160e01b5f52604160045260245ffd5b5f60208284031215611550575f80fd5b813567ffffffffffffffff811115611566575f80fd5b8201601f81018413611576575f80fd5b803567ffffffffffffffff8111156115905761159061152c565b604051601f8201601f19908116603f0116810167ffffffffffffffff811182821017156115bf576115bf61152c565b6040528181528282016020018610156115d6575f80fd5b816020840160208301375f91810160200191909152949350505050565b5f805f8060408587031215611606575f80fd5b843567ffffffffffffffff81111561161c575f80fd5b6116288782880161146b565b909550935050602085013567ffffffffffffffff811115611647575f80fd5b8501601f81018713611657575f80fd5b803567ffffffffffffffff81111561166d575f80fd5b8760208260051b8401011115611681575f80fd5b949793965060200194505050565b5f80602083850312156116a0575f80fd5b823567ffffffffffffffff8111156116b6575f80fd5b6116c28582860161146b565b90969095509350505050565b5f80604083850312156116df575f80fd5b6116e8836114b0565b946020939093013593505050565b602080825282518282018190525f918401906040840190835b818110156117365783516001600160a01b031683526020938401939092019160010161170f565b509095945050505050565b5f60208284031215611751575f80fd5b5035919050565b61010081525f8951806101008401528060208c0161012085015e5f6101208285018101919091526001600160a01b039a8b166020850152989099166040830152506060810195909552608085019390935290151560a0840152151560c083015260e0820152601f909201601f191690910101919050565b5f602082840312156117df575f80fd5b6117e8826114b0565b9392505050565b818382375f9101908152919050565b600181811c9082168061181257607f821691505b60208210810361183057634e487b7160e01b5f52602260045260245ffd5b50919050565b601f8211156113cc57805f5260205f20601f840160051c8101602085101561185b5750805b601f840160051c820191505b81811015610593575f8155600101611867565b67ffffffffffffffff8311156118925761189261152c565b6118a6836118a083546117fe565b83611836565b5f601f8411600181146118d7575f85156118c05750838201355b5f19600387901b1c1916600186901b178355610593565b5f83815260208120601f198716915b8281101561190657868501358255602094850194600190920191016118e6565b5086821015611922575f1960f88860031b161c19848701351681555b505060018560011b0183555050505050565b60208082526017908201527f5261696e64726f7020646f6573206e6f74206578697374000000000000000000604082015260600190565b6020808252600e908201526d139bdd08185d5d1a1bdc9a5e995960921b604082015260600190565b60208082526019908201527f5261696e64726f7020616c726561647920657865637574656400000000000000604082015260600190565b634e487b7160e01b5f52603260045260245ffd5b634e487b7160e01b5f52601160045260245ffd5b5f82611a0c57634e487b7160e01b5f52601260045260245ffd5b500490565b8082028115828204841417610b6557610b656119de565b81810381811115610b6557610b656119de56fea2646970667358221220e607578d52dd161be2189a88ff0c315e810c9850a329e7bfee487542e4c7747364736f6c634300081a0033",
					"opcodes": "PUSH1 0x80 PUSH1 0x40 MSTORE PUSH1 0xA PUSH1 0x2 SSTORE CALLVALUE DUP1 ISZERO PUSH2 0x14 JUMPI PUSH0 DUP1 REVERT JUMPDEST POP PUSH1 0x40 MLOAD PUSH2 0x1B87 CODESIZE SUB DUP1 PUSH2 0x1B87 DUP4 CODECOPY DUP2 ADD PUSH1 0x40 DUP2 SWAP1 MSTORE PUSH2 0x33 SWAP2 PUSH2 0xDC JUMP JUMPDEST PUSH1 0x1 PUSH0 SSTORE CALLER DUP1 PUSH2 0x5C JUMPI PUSH1 0x40 MLOAD PUSH4 0x1E4FBDF7 PUSH1 0xE0 SHL DUP2 MSTORE PUSH0 PUSH1 0x4 DUP3 ADD MSTORE PUSH1 0x24 ADD PUSH1 0x40 MLOAD DUP1 SWAP2 SUB SWAP1 REVERT JUMPDEST PUSH2 0x65 DUP2 PUSH2 0x8B JUMP JUMPDEST POP PUSH1 0x3 DUP1 SLOAD PUSH1 0x1 PUSH1 0x1 PUSH1 0xA0 SHL SUB NOT AND PUSH1 0x1 PUSH1 0x1 PUSH1 0xA0 SHL SUB SWAP3 SWAP1 SWAP3 AND SWAP2 SWAP1 SWAP2 OR SWAP1 SSTORE PUSH2 0x109 JUMP JUMPDEST PUSH1 0x1 DUP1 SLOAD PUSH1 0x1 PUSH1 0x1 PUSH1 0xA0 SHL SUB DUP4 DUP2 AND PUSH1 0x1 PUSH1 0x1 PUSH1 0xA0 SHL SUB NOT DUP4 AND DUP2 OR SWAP1 SWAP4 SSTORE PUSH1 0x40 MLOAD SWAP2 AND SWAP2 SWAP1 DUP3 SWAP1 PUSH32 0x8BE0079C531659141344CD1FD0A4F28419497F9722A3DAAFE3B4186F6B6457E0 SWAP1 PUSH0 SWAP1 LOG3 POP POP JUMP JUMPDEST PUSH0 PUSH1 0x20 DUP3 DUP5 SUB SLT ISZERO PUSH2 0xEC JUMPI PUSH0 DUP1 REVERT JUMPDEST DUP2 MLOAD PUSH1 0x1 PUSH1 0x1 PUSH1 0xA0 SHL SUB DUP2 AND DUP2 EQ PUSH2 0x102 JUMPI PUSH0 DUP1 REVERT JUMPDEST SWAP4 SWAP3 POP POP POP JUMP JUMPDEST PUSH2 0x1A71 DUP1 PUSH2 0x116 PUSH0 CODECOPY PUSH0 RETURN INVALID PUSH1 0x80 PUSH1 0x40 MSTORE CALLVALUE DUP1 ISZERO PUSH2 0xF JUMPI PUSH0 DUP1 REVERT JUMPDEST POP PUSH1 0x4 CALLDATASIZE LT PUSH2 0x111 JUMPI PUSH0 CALLDATALOAD PUSH1 0xE0 SHR DUP1 PUSH4 0x7E90DEF7 GT PUSH2 0x9E JUMPI DUP1 PUSH4 0xAA0B5988 GT PUSH2 0x6E JUMPI DUP1 PUSH4 0xAA0B5988 EQ PUSH2 0x293 JUMPI DUP1 PUSH4 0xB28A9D6F EQ PUSH2 0x2A6 JUMPI DUP1 PUSH4 0xF160D369 EQ PUSH2 0x2CD JUMPI DUP1 PUSH4 0xF2FDE38B EQ PUSH2 0x2E0 JUMPI DUP1 PUSH4 0xF3BAF070 EQ PUSH2 0x2F3 JUMPI PUSH0 DUP1 REVERT JUMPDEST DUP1 PUSH4 0x7E90DEF7 EQ PUSH2 0x23C JUMPI DUP1 PUSH4 0x8DA5CB5B EQ PUSH2 0x25C JUMPI DUP1 PUSH4 0x9A43DC0C EQ PUSH2 0x26D JUMPI DUP1 PUSH4 0x9B0F14B5 EQ PUSH2 0x280 JUMPI PUSH0 DUP1 REVERT JUMPDEST DUP1 PUSH4 0x4898BA63 GT PUSH2 0xE4 JUMPI DUP1 PUSH4 0x4898BA63 EQ PUSH2 0x1AF JUMPI DUP1 PUSH4 0x6B0DB1FA EQ PUSH2 0x1B7 JUMPI DUP1 PUSH4 0x715018A6 EQ PUSH2 0x1CA JUMPI DUP1 PUSH4 0x72521D47 EQ PUSH2 0x1D2 JUMPI DUP1 PUSH4 0x79020194 EQ PUSH2 0x229 JUMPI PUSH0 DUP1 REVERT JUMPDEST DUP1 PUSH4 0x2749BE7 EQ PUSH2 0x115 JUMPI DUP1 PUSH4 0xD12CBA2 EQ PUSH2 0x12A JUMPI DUP1 PUSH4 0x22DCD13E EQ PUSH2 0x16D JUMPI DUP1 PUSH4 0x46904840 EQ PUSH2 0x184 JUMPI JUMPDEST PUSH0 DUP1 REVERT JUMPDEST PUSH2 0x128 PUSH2 0x123 CALLDATASIZE PUSH1 0x4 PUSH2 0x14CB JUMP JUMPDEST PUSH2 0x2FD JUMP JUMPDEST STOP JUMPDEST PUSH2 0x158 PUSH2 0x138 CALLDATASIZE PUSH1 0x4 PUSH2 0x1540 JUMP JUMPDEST DUP1 MLOAD PUSH1 0x20 DUP2 DUP4 ADD DUP2 ADD DUP1 MLOAD PUSH1 0x5 DUP3 MSTORE SWAP3 DUP3 ADD SWAP2 SWAP1 SWAP4 ADD KECCAK256 SWAP2 MSTORE SLOAD PUSH1 0xFF AND DUP2 JUMP JUMPDEST PUSH1 0x40 MLOAD SWAP1 ISZERO ISZERO DUP2 MSTORE PUSH1 0x20 ADD JUMPDEST PUSH1 0x40 MLOAD DUP1 SWAP2 SUB SWAP1 RETURN JUMPDEST PUSH2 0x176 PUSH1 0x2 SLOAD DUP2 JUMP JUMPDEST PUSH1 0x40 MLOAD SWAP1 DUP2 MSTORE PUSH1 0x20 ADD PUSH2 0x164 JUMP JUMPDEST PUSH1 0x3 SLOAD PUSH2 0x197 SWAP1 PUSH1 0x1 PUSH1 0x1 PUSH1 0xA0 SHL SUB AND DUP2 JUMP JUMPDEST PUSH1 0x40 MLOAD PUSH1 0x1 PUSH1 0x1 PUSH1 0xA0 SHL SUB SWAP1 SWAP2 AND DUP2 MSTORE PUSH1 0x20 ADD PUSH2 0x164 JUMP JUMPDEST PUSH2 0x176 PUSH1 0x1 DUP2 JUMP JUMPDEST PUSH2 0x128 PUSH2 0x1C5 CALLDATASIZE PUSH1 0x4 PUSH2 0x15F3 JUMP JUMPDEST PUSH2 0x59A JUMP JUMPDEST PUSH2 0x128 PUSH2 0x9A4 JUMP JUMPDEST PUSH2 0x1E5 PUSH2 0x1E0 CALLDATASIZE PUSH1 0x4 PUSH2 0x168F JUMP JUMPDEST PUSH2 0x9B7 JUMP JUMPDEST PUSH1 0x40 DUP1 MLOAD PUSH1 0x1 PUSH1 0x1 PUSH1 0xA0 SHL SUB SWAP9 DUP10 AND DUP2 MSTORE SWAP8 SWAP1 SWAP7 AND PUSH1 0x20 DUP9 ADD MSTORE SWAP5 DUP7 ADD SWAP4 SWAP1 SWAP4 MSTORE PUSH1 0x60 DUP6 ADD SWAP2 SWAP1 SWAP2 MSTORE ISZERO ISZERO PUSH1 0x80 DUP5 ADD MSTORE ISZERO ISZERO PUSH1 0xA0 DUP4 ADD MSTORE PUSH1 0xC0 DUP3 ADD MSTORE PUSH1 0xE0 ADD PUSH2 0x164 JUMP JUMPDEST PUSH2 0x128 PUSH2 0x237 CALLDATASIZE PUSH1 0x4 PUSH2 0x16CE JUMP JUMPDEST PUSH2 0xA79 JUMP JUMPDEST PUSH2 0x24F PUSH2 0x24A CALLDATASIZE PUSH1 0x4 PUSH2 0x168F JUMP JUMPDEST PUSH2 0xAAB JUMP JUMPDEST PUSH1 0x40 MLOAD PUSH2 0x164 SWAP2 SWAP1 PUSH2 0x16F6 JUMP JUMPDEST PUSH1 0x1 SLOAD PUSH1 0x1 PUSH1 0x1 PUSH1 0xA0 SHL SUB AND PUSH2 0x197 JUMP JUMPDEST PUSH2 0x128 PUSH2 0x27B CALLDATASIZE PUSH1 0x4 PUSH2 0x168F JUMP JUMPDEST PUSH2 0xB6B JUMP JUMPDEST PUSH2 0x128 PUSH2 0x28E CALLDATASIZE PUSH1 0x4 PUSH2 0x168F JUMP JUMPDEST PUSH2 0xEA4 JUMP JUMPDEST PUSH2 0x128 PUSH2 0x2A1 CALLDATASIZE PUSH1 0x4 PUSH2 0x1741 JUMP JUMPDEST PUSH2 0x1075 JUMP JUMPDEST PUSH2 0x2B9 PUSH2 0x2B4 CALLDATASIZE PUSH1 0x4 PUSH2 0x1540 JUMP JUMPDEST PUSH2 0x10C2 JUMP JUMPDEST PUSH1 0x40 MLOAD PUSH2 0x164 SWAP9 SWAP8 SWAP7 SWAP6 SWAP5 SWAP4 SWAP3 SWAP2 SWAP1 PUSH2 0x1758 JUMP JUMPDEST PUSH2 0x128 PUSH2 0x2DB CALLDATASIZE PUSH1 0x4 PUSH2 0x17CF JUMP JUMPDEST PUSH2 0x11AA JUMP JUMPDEST PUSH2 0x128 PUSH2 0x2EE CALLDATASIZE PUSH1 0x4 PUSH2 0x17CF JUMP JUMPDEST PUSH2 0x121C JUMP JUMPDEST PUSH2 0x176 PUSH3 0x186A0 DUP2 JUMP JUMPDEST PUSH2 0x305 PUSH2 0x1259 JUMP JUMPDEST PUSH1 0x5 DUP6 DUP6 PUSH1 0x40 MLOAD PUSH2 0x317 SWAP3 SWAP2 SWAP1 PUSH2 0x17EF JUMP JUMPDEST SWAP1 DUP2 MSTORE PUSH1 0x40 MLOAD SWAP1 DUP2 SWAP1 SUB PUSH1 0x20 ADD SWAP1 KECCAK256 SLOAD PUSH1 0xFF AND ISZERO PUSH2 0x37C JUMPI PUSH1 0x40 MLOAD PUSH3 0x461BCD PUSH1 0xE5 SHL DUP2 MSTORE PUSH1 0x20 PUSH1 0x4 DUP3 ADD MSTORE PUSH1 0x17 PUSH1 0x24 DUP3 ADD MSTORE PUSH32 0x5261696E64726F7020616C726561647920657869737473000000000000000000 PUSH1 0x44 DUP3 ADD MSTORE PUSH1 0x64 ADD JUMPDEST PUSH1 0x40 MLOAD DUP1 SWAP2 SUB SWAP1 REVERT JUMPDEST PUSH1 0x1 PUSH1 0x1 PUSH1 0xA0 SHL SUB DUP4 AND PUSH2 0x3CA JUMPI PUSH1 0x40 MLOAD PUSH3 0x461BCD PUSH1 0xE5 SHL DUP2 MSTORE PUSH1 0x20 PUSH1 0x4 DUP3 ADD MSTORE PUSH1 0x15 PUSH1 0x24 DUP3 ADD MSTORE PUSH21 0x496E76616C696420746F6B656E2061646472657373 PUSH1 0x58 SHL PUSH1 0x44 DUP3 ADD MSTORE PUSH1 0x64 ADD PUSH2 0x373 JUMP JUMPDEST PUSH0 DUP3 GT PUSH2 0x419 JUMPI PUSH1 0x40 MLOAD PUSH3 0x461BCD PUSH1 0xE5 SHL DUP2 MSTORE PUSH1 0x20 PUSH1 0x4 DUP3 ADD MSTORE PUSH1 0x1D PUSH1 0x24 DUP3 ADD MSTORE PUSH32 0x416D6F756E74206D7573742062652067726561746572207468616E2030000000 PUSH1 0x44 DUP3 ADD MSTORE PUSH1 0x64 ADD PUSH2 0x373 JUMP JUMPDEST TIMESTAMP DUP2 GT PUSH2 0x468 JUMPI PUSH1 0x40 MLOAD PUSH3 0x461BCD PUSH1 0xE5 SHL DUP2 MSTORE PUSH1 0x20 PUSH1 0x4 DUP3 ADD DUP2 SWAP1 MSTORE PUSH1 0x24 DUP3 ADD MSTORE PUSH32 0x5363686564756C65642074696D65206D75737420626520696E20667574757265 PUSH1 0x44 DUP3 ADD MSTORE PUSH1 0x64 ADD PUSH2 0x373 JUMP JUMPDEST PUSH2 0x47D PUSH1 0x1 PUSH1 0x1 PUSH1 0xA0 SHL SUB DUP5 AND CALLER ADDRESS DUP6 PUSH2 0x12B0 JUMP JUMPDEST PUSH0 PUSH1 0x4 DUP7 DUP7 PUSH1 0x40 MLOAD PUSH2 0x490 SWAP3 SWAP2 SWAP1 PUSH2 0x17EF JUMP JUMPDEST SWAP1 DUP2 MSTORE PUSH1 0x40 MLOAD SWAP1 DUP2 SWAP1 SUB PUSH1 0x20 ADD SWAP1 KECCAK256 SWAP1 POP DUP1 PUSH2 0x4AD DUP7 DUP9 DUP4 PUSH2 0x187A JUMP JUMPDEST POP PUSH1 0x1 DUP2 DUP2 ADD DUP1 SLOAD CALLER PUSH1 0x1 PUSH1 0x1 PUSH1 0xA0 SHL SUB NOT SWAP2 DUP3 AND OR SWAP1 SWAP2 SSTORE PUSH1 0x2 DUP4 ADD DUP1 SLOAD SWAP1 SWAP2 AND PUSH1 0x1 PUSH1 0x1 PUSH1 0xA0 SHL SUB DUP8 AND OR SWAP1 SSTORE PUSH1 0x3 DUP3 ADD DUP5 SWAP1 SSTORE PUSH1 0x4 DUP3 ADD DUP4 SWAP1 SSTORE PUSH1 0x5 DUP1 DUP4 ADD DUP1 SLOAD PUSH2 0xFFFF NOT AND SWAP1 SSTORE PUSH0 PUSH1 0x6 DUP5 ADD SSTORE PUSH1 0x40 MLOAD PUSH2 0x50E SWAP1 DUP10 SWAP1 DUP10 SWAP1 PUSH2 0x17EF JUMP JUMPDEST SWAP1 DUP2 MSTORE PUSH1 0x40 MLOAD SWAP1 DUP2 SWAP1 SUB PUSH1 0x20 ADD DUP2 KECCAK256 DUP1 SLOAD SWAP3 ISZERO ISZERO PUSH1 0xFF NOT SWAP1 SWAP4 AND SWAP3 SWAP1 SWAP3 OR SWAP1 SWAP2 SSTORE PUSH1 0x1 PUSH1 0x1 PUSH1 0xA0 SHL SUB DUP6 AND SWAP1 CALLER SWAP1 PUSH2 0x549 SWAP1 DUP10 SWAP1 DUP10 SWAP1 PUSH2 0x17EF JUMP JUMPDEST PUSH1 0x40 DUP1 MLOAD SWAP2 DUP3 SWAP1 SUB DUP3 KECCAK256 DUP8 DUP4 MSTORE PUSH1 0x20 DUP4 ADD DUP8 SWAP1 MSTORE SWAP2 PUSH32 0x4C9D53D935621250C2A973CA08A8BA1828A8AE00D5E5A57C23344069A08F35F SWAP2 ADD PUSH1 0x40 MLOAD DUP1 SWAP2 SUB SWAP1 LOG4 POP PUSH2 0x593 PUSH1 0x1 PUSH0 SSTORE JUMP JUMPDEST POP POP POP POP POP JUMP JUMPDEST PUSH1 0x5 DUP5 DUP5 PUSH1 0x40 MLOAD PUSH2 0x5AC SWAP3 SWAP2 SWAP1 PUSH2 0x17EF JUMP JUMPDEST SWAP1 DUP2 MSTORE PUSH1 0x40 MLOAD SWAP1 DUP2 SWAP1 SUB PUSH1 0x20 ADD SWAP1 KECCAK256 SLOAD PUSH1 0xFF AND PUSH2 0x5DB JUMPI PUSH1 0x40 MLOAD PUSH3 0x461BCD PUSH1 0xE5 SHL DUP2 MSTORE PUSH1 0x4 ADD PUSH2 0x373 SWAP1 PUSH2 0x1934 JUMP JUMPDEST PUSH0 PUSH1 0x4 DUP6 DUP6 PUSH1 0x40 MLOAD PUSH2 0x5EE SWAP3 SWAP2 SWAP1 PUSH2 0x17EF JUMP JUMPDEST SWAP1 DUP2 MSTORE PUSH1 0x40 MLOAD SWAP1 DUP2 SWAP1 SUB PUSH1 0x20 ADD SWAP1 KECCAK256 PUSH1 0x1 DUP2 ADD SLOAD SWAP1 SWAP2 POP CALLER PUSH1 0x1 PUSH1 0x1 PUSH1 0xA0 SHL SUB SWAP1 SWAP2 AND EQ DUP1 PUSH2 0x627 JUMPI POP PUSH1 0x1 SLOAD PUSH1 0x1 PUSH1 0x1 PUSH1 0xA0 SHL SUB AND CALLER EQ JUMPDEST PUSH2 0x643 JUMPI PUSH1 0x40 MLOAD PUSH3 0x461BCD PUSH1 0xE5 SHL DUP2 MSTORE PUSH1 0x4 ADD PUSH2 0x373 SWAP1 PUSH2 0x196B JUMP JUMPDEST PUSH1 0x5 DUP2 ADD SLOAD PUSH1 0xFF AND ISZERO PUSH2 0x668 JUMPI PUSH1 0x40 MLOAD PUSH3 0x461BCD PUSH1 0xE5 SHL DUP2 MSTORE PUSH1 0x4 ADD PUSH2 0x373 SWAP1 PUSH2 0x1993 JUMP JUMPDEST PUSH1 0x5 DUP2 ADD SLOAD PUSH2 0x100 SWAP1 DIV PUSH1 0xFF AND ISZERO PUSH2 0x6B7 JUMPI PUSH1 0x40 MLOAD PUSH3 0x461BCD PUSH1 0xE5 SHL DUP2 MSTORE PUSH1 0x20 PUSH1 0x4 DUP3 ADD MSTORE PUSH1 0x12 PUSH1 0x24 DUP3 ADD MSTORE PUSH18 0x14985A5B991C9BDC0818D85B98D95B1B1959 PUSH1 0x72 SHL PUSH1 0x44 DUP3 ADD MSTORE PUSH1 0x64 ADD PUSH2 0x373 JUMP JUMPDEST PUSH3 0x186A0 DUP3 GT ISZERO PUSH2 0x702 JUMPI PUSH1 0x40 MLOAD PUSH3 0x461BCD PUSH1 0xE5 SHL DUP2 MSTORE PUSH1 0x20 PUSH1 0x4 DUP3 ADD MSTORE PUSH1 0x15 PUSH1 0x24 DUP3 ADD MSTORE PUSH21 0x546F6F206D616E79207061727469636970616E7473 PUSH1 0x58 SHL PUSH1 0x44 DUP3 ADD MSTORE PUSH1 0x64 ADD PUSH2 0x373 JUMP JUMPDEST PUSH0 JUMPDEST PUSH1 0x8 DUP3 ADD SLOAD DUP2 LT ISZERO PUSH2 0x766 JUMPI PUSH0 DUP3 PUSH1 0x7 ADD PUSH0 DUP5 PUSH1 0x8 ADD DUP5 DUP2 SLOAD DUP2 LT PUSH2 0x72B JUMPI PUSH2 0x72B PUSH2 0x19CA JUMP JUMPDEST PUSH0 SWAP2 DUP3 MSTORE PUSH1 0x20 DUP1 DUP4 KECCAK256 SWAP2 SWAP1 SWAP2 ADD SLOAD PUSH1 0x1 PUSH1 0x1 PUSH1 0xA0 SHL SUB AND DUP4 MSTORE DUP3 ADD SWAP3 SWAP1 SWAP3 MSTORE PUSH1 0x40 ADD SWAP1 KECCAK256 DUP1 SLOAD PUSH1 0xFF NOT AND SWAP2 ISZERO ISZERO SWAP2 SWAP1 SWAP2 OR SWAP1 SSTORE PUSH1 0x1 ADD PUSH2 0x704 JUMP JUMPDEST POP PUSH2 0x774 PUSH1 0x8 DUP3 ADD PUSH0 PUSH2 0x143D JUMP JUMPDEST PUSH0 JUMPDEST DUP3 DUP2 LT ISZERO PUSH2 0x8D3 JUMPI PUSH0 DUP5 DUP5 DUP4 DUP2 DUP2 LT PUSH2 0x791 JUMPI PUSH2 0x791 PUSH2 0x19CA JUMP JUMPDEST SWAP1 POP PUSH1 0x20 MUL ADD PUSH1 0x20 DUP2 ADD SWAP1 PUSH2 0x7A6 SWAP2 SWAP1 PUSH2 0x17CF JUMP JUMPDEST SWAP1 POP PUSH1 0x1 PUSH1 0x1 PUSH1 0xA0 SHL SUB DUP2 AND PUSH2 0x7FE JUMPI PUSH1 0x40 MLOAD PUSH3 0x461BCD PUSH1 0xE5 SHL DUP2 MSTORE PUSH1 0x20 PUSH1 0x4 DUP3 ADD MSTORE PUSH1 0x1B PUSH1 0x24 DUP3 ADD MSTORE PUSH32 0x496E76616C6964207061727469636970616E7420616464726573730000000000 PUSH1 0x44 DUP3 ADD MSTORE PUSH1 0x64 ADD PUSH2 0x373 JUMP JUMPDEST PUSH1 0x1 DUP4 ADD SLOAD PUSH1 0x1 PUSH1 0x1 PUSH1 0xA0 SHL SUB SWAP1 DUP2 AND SWAP1 DUP3 AND SUB PUSH2 0x85E JUMPI PUSH1 0x40 MLOAD PUSH3 0x461BCD PUSH1 0xE5 SHL DUP2 MSTORE PUSH1 0x20 PUSH1 0x4 DUP3 ADD MSTORE PUSH1 0x1A PUSH1 0x24 DUP3 ADD MSTORE PUSH32 0x486F73742063616E6E6F74206265207061727469636970616E74000000000000 PUSH1 0x44 DUP3 ADD MSTORE PUSH1 0x64 ADD PUSH2 0x373 JUMP JUMPDEST PUSH1 0x1 PUSH1 0x1 PUSH1 0xA0 SHL SUB DUP2 AND PUSH0 SWAP1 DUP2 MSTORE PUSH1 0x7 DUP5 ADD PUSH1 0x20 MSTORE PUSH1 0x40 SWAP1 KECCAK256 SLOAD PUSH1 0xFF AND PUSH2 0x8CA JUMPI PUSH1 0x1 PUSH1 0x1 PUSH1 0xA0 SHL SUB DUP2 AND PUSH0 DUP2 DUP2 MSTORE PUSH1 0x7 DUP6 ADD PUSH1 0x20 SWAP1 DUP2 MSTORE PUSH1 0x40 DUP3 KECCAK256 DUP1 SLOAD PUSH1 0xFF NOT AND PUSH1 0x1 SWAP1 DUP2 OR SWAP1 SWAP2 SSTORE PUSH1 0x8 DUP8 ADD DUP1 SLOAD SWAP2 DUP3 ADD DUP2 SSTORE DUP4 MSTORE SWAP2 KECCAK256 ADD DUP1 SLOAD PUSH1 0x1 PUSH1 0x1 PUSH1 0xA0 SHL SUB NOT AND SWAP1 SWAP2 OR SWAP1 SSTORE JUMPDEST POP PUSH1 0x1 ADD PUSH2 0x776 JUMP JUMPDEST POP PUSH1 0x8 DUP2 ADD SLOAD PUSH1 0x6 DUP3 ADD DUP2 SWAP1 SSTORE ISZERO PUSH2 0x94F JUMPI PUSH0 DUP2 PUSH1 0x6 ADD SLOAD DUP3 PUSH1 0x3 ADD SLOAD PUSH2 0x8FA SWAP2 SWAP1 PUSH2 0x19F2 JUMP JUMPDEST SWAP1 POP PUSH1 0x1 DUP2 LT ISZERO PUSH2 0x94D JUMPI PUSH1 0x40 MLOAD PUSH3 0x461BCD PUSH1 0xE5 SHL DUP2 MSTORE PUSH1 0x20 PUSH1 0x4 DUP3 ADD DUP2 SWAP1 MSTORE PUSH1 0x24 DUP3 ADD MSTORE PUSH32 0x416D6F756E7420706572207061727469636970616E7420746F6F20736D616C6C PUSH1 0x44 DUP3 ADD MSTORE PUSH1 0x64 ADD PUSH2 0x373 JUMP JUMPDEST POP JUMPDEST DUP5 DUP5 PUSH1 0x40 MLOAD PUSH2 0x95F SWAP3 SWAP2 SWAP1 PUSH2 0x17EF JUMP JUMPDEST PUSH1 0x40 MLOAD SWAP1 DUP2 SWAP1 SUB DUP2 KECCAK256 PUSH1 0x6 DUP4 ADD SLOAD DUP3 MSTORE SWAP1 PUSH32 0x33413169B586F09864FC3649CE426FAF08FF20FF0580328A11860E98AB66A014 SWAP1 PUSH1 0x20 ADD PUSH1 0x40 MLOAD DUP1 SWAP2 SUB SWAP1 LOG2 POP POP POP POP POP JUMP JUMPDEST PUSH2 0x9AC PUSH2 0x131D JUMP JUMPDEST PUSH2 0x9B5 PUSH0 PUSH2 0x134A JUMP JUMPDEST JUMP JUMPDEST PUSH0 DUP1 PUSH0 DUP1 PUSH0 DUP1 PUSH0 PUSH1 0x5 DUP10 DUP10 PUSH1 0x40 MLOAD PUSH2 0x9D0 SWAP3 SWAP2 SWAP1 PUSH2 0x17EF JUMP JUMPDEST SWAP1 DUP2 MSTORE PUSH1 0x40 MLOAD SWAP1 DUP2 SWAP1 SUB PUSH1 0x20 ADD SWAP1 KECCAK256 SLOAD PUSH1 0xFF AND PUSH2 0x9FF JUMPI PUSH1 0x40 MLOAD PUSH3 0x461BCD PUSH1 0xE5 SHL DUP2 MSTORE PUSH1 0x4 ADD PUSH2 0x373 SWAP1 PUSH2 0x1934 JUMP JUMPDEST PUSH0 PUSH1 0x4 DUP11 DUP11 PUSH1 0x40 MLOAD PUSH2 0xA12 SWAP3 SWAP2 SWAP1 PUSH2 0x17EF JUMP JUMPDEST SWAP1 DUP2 MSTORE PUSH1 0x40 MLOAD SWAP1 DUP2 SWAP1 SUB PUSH1 0x20 ADD SWAP1 KECCAK256 PUSH1 0x1 DUP2 ADD SLOAD PUSH1 0x2 DUP3 ADD SLOAD PUSH1 0x3 DUP4 ADD SLOAD PUSH1 0x4 DUP5 ADD SLOAD PUSH1 0x5 DUP6 ADD SLOAD PUSH1 0x6 SWAP1 SWAP6 ADD SLOAD PUSH1 0x1 PUSH1 0x1 PUSH1 0xA0 SHL SUB SWAP5 DUP6 AND SWAP14 POP SWAP3 SWAP1 SWAP4 AND SWAP11 POP SWAP9 POP SWAP1 SWAP7 POP PUSH1 0xFF DUP1 DUP4 AND SWAP7 POP PUSH2 0x100 SWAP1 SWAP3 DIV SWAP1 SWAP2 AND SWAP4 POP SWAP2 POP POP SWAP3 SWAP6 SWAP9 SWAP2 SWAP5 SWAP8 POP SWAP3 SWAP6 POP JUMP JUMPDEST PUSH2 0xA81 PUSH2 0x131D JUMP JUMPDEST PUSH2 0xAA7 PUSH2 0xA96 PUSH1 0x1 SLOAD PUSH1 0x1 PUSH1 0x1 PUSH1 0xA0 SHL SUB AND SWAP1 JUMP JUMPDEST PUSH1 0x1 PUSH1 0x1 PUSH1 0xA0 SHL SUB DUP5 AND SWAP1 DUP4 PUSH2 0x139B JUMP JUMPDEST POP POP JUMP JUMPDEST PUSH1 0x60 PUSH1 0x5 DUP4 DUP4 PUSH1 0x40 MLOAD PUSH2 0xABF SWAP3 SWAP2 SWAP1 PUSH2 0x17EF JUMP JUMPDEST SWAP1 DUP2 MSTORE PUSH1 0x40 MLOAD SWAP1 DUP2 SWAP1 SUB PUSH1 0x20 ADD SWAP1 KECCAK256 SLOAD PUSH1 0xFF AND PUSH2 0xAEE JUMPI PUSH1 0x40 MLOAD PUSH3 0x461BCD PUSH1 0xE5 SHL DUP2 MSTORE PUSH1 0x4 ADD PUSH2 0x373 SWAP1 PUSH2 0x1934 JUMP JUMPDEST PUSH1 0x4 DUP4 DUP4 PUSH1 0x40 MLOAD PUSH2 0xB00 SWAP3 SWAP2 SWAP1 PUSH2 0x17EF JUMP JUMPDEST SWAP1 DUP2 MSTORE PUSH1 0x40 DUP1 MLOAD SWAP2 DUP3 SWAP1 SUB PUSH1 0x20 SWAP1 DUP2 ADD DUP4 KECCAK256 PUSH1 0x8 ADD DUP1 SLOAD DUP1 DUP4 MUL DUP6 ADD DUP4 ADD SWAP1 SWAP4 MSTORE DUP3 DUP5 MSTORE SWAP2 SWAP1 DUP4 ADD DUP3 DUP3 DUP1 ISZERO PUSH2 0xB5D JUMPI PUSH1 0x20 MUL DUP3 ADD SWAP2 SWAP1 PUSH0 MSTORE PUSH1 0x20 PUSH0 KECCAK256 SWAP1 JUMPDEST DUP2 SLOAD PUSH1 0x1 PUSH1 0x1 PUSH1 0xA0 SHL SUB AND DUP2 MSTORE PUSH1 0x1 SWAP1 SWAP2 ADD SWAP1 PUSH1 0x20 ADD DUP1 DUP4 GT PUSH2 0xB3F JUMPI JUMPDEST POP POP POP POP POP SWAP1 POP JUMPDEST SWAP3 SWAP2 POP POP JUMP JUMPDEST PUSH2 0xB73 PUSH2 0x1259 JUMP JUMPDEST PUSH1 0x5 DUP3 DUP3 PUSH1 0x40 MLOAD PUSH2 0xB85 SWAP3 SWAP2 SWAP1 PUSH2 0x17EF JUMP JUMPDEST SWAP1 DUP2 MSTORE PUSH1 0x40 MLOAD SWAP1 DUP2 SWAP1 SUB PUSH1 0x20 ADD SWAP1 KECCAK256 SLOAD PUSH1 0xFF AND PUSH2 0xBB4 JUMPI PUSH1 0x40 MLOAD PUSH3 0x461BCD PUSH1 0xE5 SHL DUP2 MSTORE PUSH1 0x4 ADD PUSH2 0x373 SWAP1 PUSH2 0x1934 JUMP JUMPDEST PUSH0 PUSH1 0x4 DUP4 DUP4 PUSH1 0x40 MLOAD PUSH2 0xBC7 SWAP3 SWAP2 SWAP1 PUSH2 0x17EF JUMP JUMPDEST SWAP1 DUP2 MSTORE PUSH1 0x40 MLOAD SWAP1 DUP2 SWAP1 SUB PUSH1 0x20 ADD SWAP1 KECCAK256 PUSH1 0x1 DUP2 ADD SLOAD SWAP1 SWAP2 POP CALLER PUSH1 0x1 PUSH1 0x1 PUSH1 0xA0 SHL SUB SWAP1 SWAP2 AND EQ DUP1 PUSH2 0xC00 JUMPI POP PUSH1 0x1 SLOAD PUSH1 0x1 PUSH1 0x1 PUSH1 0xA0 SHL SUB AND CALLER EQ JUMPDEST PUSH2 0xC1C JUMPI PUSH1 0x40 MLOAD PUSH3 0x461BCD PUSH1 0xE5 SHL DUP2 MSTORE PUSH1 0x4 ADD PUSH2 0x373 SWAP1 PUSH2 0x196B JUMP JUMPDEST PUSH1 0x5 DUP2 ADD SLOAD PUSH1 0xFF AND ISZERO PUSH2 0xC41 JUMPI PUSH1 0x40 MLOAD PUSH3 0x461BCD PUSH1 0xE5 SHL DUP2 MSTORE PUSH1 0x4 ADD PUSH2 0x373 SWAP1 PUSH2 0x1993 JUMP JUMPDEST PUSH1 0x5 DUP2 ADD SLOAD PUSH2 0x100 SWAP1 DIV PUSH1 0xFF AND ISZERO PUSH2 0xC90 JUMPI PUSH1 0x40 MLOAD PUSH3 0x461BCD PUSH1 0xE5 SHL DUP2 MSTORE PUSH1 0x20 PUSH1 0x4 DUP3 ADD MSTORE PUSH1 0x12 PUSH1 0x24 DUP3 ADD MSTORE PUSH18 0x14985A5B991C9BDC0818D85B98D95B1B1959 PUSH1 0x72 SHL PUSH1 0x44 DUP3 ADD MSTORE PUSH1 0x64 ADD PUSH2 0x373 JUMP JUMPDEST DUP1 PUSH1 0x4 ADD SLOAD TIMESTAMP LT ISZERO PUSH2 0xCDB JUMPI PUSH1 0x40 MLOAD PUSH3 0x461BCD PUSH1 0xE5 SHL DUP2 MSTORE PUSH1 0x20 PUSH1 0x4 DUP3 ADD MSTORE PUSH1 0x14 PUSH1 0x24 DUP3 ADD MSTORE PUSH20 0x546F6F206561726C7920746F2065786563757465 PUSH1 0x60 SHL PUSH1 0x44 DUP3 ADD MSTORE PUSH1 0x64 ADD PUSH2 0x373 JUMP JUMPDEST PUSH0 DUP2 PUSH1 0x6 ADD SLOAD GT PUSH2 0xD20 JUMPI PUSH1 0x40 MLOAD PUSH3 0x461BCD PUSH1 0xE5 SHL DUP2 MSTORE PUSH1 0x20 PUSH1 0x4 DUP3 ADD MSTORE PUSH1 0xF PUSH1 0x24 DUP3 ADD MSTORE PUSH15 0x4E6F207061727469636970616E7473 PUSH1 0x88 SHL PUSH1 0x44 DUP3 ADD MSTORE PUSH1 0x64 ADD PUSH2 0x373 JUMP JUMPDEST PUSH1 0x5 DUP2 ADD DUP1 SLOAD PUSH1 0xFF NOT AND PUSH1 0x1 OR SWAP1 SSTORE PUSH1 0x6 DUP2 ADD SLOAD PUSH1 0x3 DUP3 ADD SLOAD PUSH0 SWAP2 PUSH2 0xD44 SWAP2 PUSH2 0x19F2 JUMP JUMPDEST SWAP1 POP PUSH0 DUP3 PUSH1 0x6 ADD SLOAD DUP3 PUSH2 0xD57 SWAP2 SWAP1 PUSH2 0x1A11 JUMP JUMPDEST SWAP1 POP PUSH0 PUSH2 0x2710 PUSH1 0x2 SLOAD DUP4 PUSH2 0xD6B SWAP2 SWAP1 PUSH2 0x1A11 JUMP JUMPDEST PUSH2 0xD75 SWAP2 SWAP1 PUSH2 0x19F2 JUMP JUMPDEST SWAP1 POP PUSH0 DUP2 DUP4 DUP7 PUSH1 0x3 ADD SLOAD PUSH2 0xD89 SWAP2 SWAP1 PUSH2 0x1A28 JUMP JUMPDEST PUSH2 0xD93 SWAP2 SWAP1 PUSH2 0x1A28 JUMP JUMPDEST PUSH1 0x2 DUP7 ADD SLOAD SWAP1 SWAP2 POP PUSH1 0x1 PUSH1 0x1 PUSH1 0xA0 SHL SUB AND PUSH0 JUMPDEST DUP7 PUSH1 0x6 ADD SLOAD DUP2 LT ISZERO PUSH2 0xDF6 JUMPI PUSH0 DUP8 PUSH1 0x8 ADD DUP3 DUP2 SLOAD DUP2 LT PUSH2 0xDC8 JUMPI PUSH2 0xDC8 PUSH2 0x19CA JUMP JUMPDEST PUSH0 SWAP2 DUP3 MSTORE PUSH1 0x20 SWAP1 SWAP2 KECCAK256 ADD SLOAD PUSH1 0x1 PUSH1 0x1 PUSH1 0xA0 SHL SUB SWAP1 DUP2 AND SWAP2 POP PUSH2 0xDED SWAP1 DUP5 AND DUP3 DUP10 PUSH2 0x139B JUMP JUMPDEST POP PUSH1 0x1 ADD PUSH2 0xDA6 JUMP JUMPDEST POP DUP3 ISZERO PUSH2 0xE17 JUMPI PUSH1 0x3 SLOAD PUSH2 0xE17 SWAP1 PUSH1 0x1 PUSH1 0x1 PUSH1 0xA0 SHL SUB DUP4 DUP2 AND SWAP2 AND DUP6 PUSH2 0x139B JUMP JUMPDEST DUP2 ISZERO PUSH2 0xE39 JUMPI PUSH1 0x1 DUP7 ADD SLOAD PUSH2 0xE39 SWAP1 PUSH1 0x1 PUSH1 0x1 PUSH1 0xA0 SHL SUB DUP4 DUP2 AND SWAP2 AND DUP5 PUSH2 0x139B JUMP JUMPDEST DUP8 DUP8 PUSH1 0x40 MLOAD PUSH2 0xE49 SWAP3 SWAP2 SWAP1 PUSH2 0x17EF JUMP JUMPDEST PUSH1 0x40 DUP1 MLOAD SWAP2 DUP3 SWAP1 SUB DUP3 KECCAK256 PUSH1 0x6 DUP10 ADD SLOAD DUP4 MSTORE PUSH1 0x20 DUP4 ADD DUP9 SWAP1 MSTORE SWAP1 DUP3 ADD DUP7 SWAP1 MSTORE SWAP1 PUSH32 0xE56EBA28928C6808FF8D65117CC1D7BA272E42F06114B621406245FE7E42FFF2 SWAP1 PUSH1 0x60 ADD PUSH1 0x40 MLOAD DUP1 SWAP2 SUB SWAP1 LOG2 POP POP POP POP POP POP PUSH2 0xAA7 PUSH1 0x1 PUSH0 SSTORE JUMP JUMPDEST PUSH2 0xEAC PUSH2 0x1259 JUMP JUMPDEST PUSH1 0x5 DUP3 DUP3 PUSH1 0x40 MLOAD PUSH2 0xEBE SWAP3 SWAP2 SWAP1 PUSH2 0x17EF JUMP JUMPDEST SWAP1 DUP2 MSTORE PUSH1 0x40 MLOAD SWAP1 DUP2 SWAP1 SUB PUSH1 0x20 ADD SWAP1 KECCAK256 SLOAD PUSH1 0xFF AND PUSH2 0xEED JUMPI PUSH1 0x40 MLOAD PUSH3 0x461BCD PUSH1 0xE5 SHL DUP2 MSTORE PUSH1 0x4 ADD PUSH2 0x373 SWAP1 PUSH2 0x1934 JUMP JUMPDEST PUSH0 PUSH1 0x4 DUP4 DUP4 PUSH1 0x40 MLOAD PUSH2 0xF00 SWAP3 SWAP2 SWAP1 PUSH2 0x17EF JUMP JUMPDEST SWAP1 DUP2 MSTORE PUSH1 0x40 MLOAD SWAP1 DUP2 SWAP1 SUB PUSH1 0x20 ADD SWAP1 KECCAK256 PUSH1 0x1 DUP2 ADD SLOAD SWAP1 SWAP2 POP CALLER PUSH1 0x1 PUSH1 0x1 PUSH1 0xA0 SHL SUB SWAP1 SWAP2 AND EQ DUP1 PUSH2 0xF39 JUMPI POP PUSH1 0x1 SLOAD PUSH1 0x1 PUSH1 0x1 PUSH1 0xA0 SHL SUB AND CALLER EQ JUMPDEST PUSH2 0xF55 JUMPI PUSH1 0x40 MLOAD PUSH3 0x461BCD PUSH1 0xE5 SHL DUP2 MSTORE PUSH1 0x4 ADD PUSH2 0x373 SWAP1 PUSH2 0x196B JUMP JUMPDEST PUSH1 0x5 DUP2 ADD SLOAD PUSH1 0xFF AND ISZERO PUSH2 0xF7A JUMPI PUSH1 0x40 MLOAD PUSH3 0x461BCD PUSH1 0xE5 SHL DUP2 MSTORE PUSH1 0x4 ADD PUSH2 0x373 SWAP1 PUSH2 0x1993 JUMP JUMPDEST PUSH1 0x5 DUP2 ADD SLOAD PUSH2 0x100 SWAP1 DIV PUSH1 0xFF AND ISZERO PUSH2 0xFD4 JUMPI PUSH1 0x40 MLOAD PUSH3 0x461BCD PUSH1 0xE5 SHL DUP2 MSTORE PUSH1 0x20 PUSH1 0x4 DUP3 ADD MSTORE PUSH1 0x1A PUSH1 0x24 DUP3 ADD MSTORE PUSH32 0x5261696E64726F7020616C72656164792063616E63656C6C6564000000000000 PUSH1 0x44 DUP3 ADD MSTORE PUSH1 0x64 ADD PUSH2 0x373 JUMP JUMPDEST PUSH1 0x5 DUP2 ADD DUP1 SLOAD PUSH2 0xFF00 NOT AND PUSH2 0x100 OR SWAP1 SSTORE PUSH1 0x1 DUP2 ADD SLOAD PUSH1 0x3 DUP3 ADD SLOAD PUSH1 0x2 DUP4 ADD SLOAD PUSH2 0x100C SWAP3 PUSH1 0x1 PUSH1 0x1 PUSH1 0xA0 SHL SUB SWAP2 DUP3 AND SWAP3 SWAP2 AND SWAP1 PUSH2 0x139B JUMP JUMPDEST PUSH1 0x1 DUP2 ADD SLOAD PUSH1 0x40 MLOAD PUSH1 0x1 PUSH1 0x1 PUSH1 0xA0 SHL SUB SWAP1 SWAP2 AND SWAP1 PUSH2 0x102D SWAP1 DUP6 SWAP1 DUP6 SWAP1 PUSH2 0x17EF JUMP JUMPDEST PUSH1 0x40 MLOAD SWAP1 DUP2 SWAP1 SUB DUP2 KECCAK256 PUSH1 0x3 DUP5 ADD SLOAD DUP3 MSTORE SWAP1 PUSH32 0x16B1484ADF14DDC11AD828089C5F7AC1932AE15CAC0FD6100804B92746616B04 SWAP1 PUSH1 0x20 ADD PUSH1 0x40 MLOAD DUP1 SWAP2 SUB SWAP1 LOG3 POP PUSH2 0xAA7 PUSH1 0x1 PUSH0 SSTORE JUMP JUMPDEST PUSH2 0x107D PUSH2 0x131D JUMP JUMPDEST PUSH1 0x64 DUP2 GT ISZERO PUSH2 0x10BD JUMPI PUSH1 0x40 MLOAD PUSH3 0x461BCD PUSH1 0xE5 SHL DUP2 MSTORE PUSH1 0x20 PUSH1 0x4 DUP3 ADD MSTORE PUSH1 0xC PUSH1 0x24 DUP3 ADD MSTORE PUSH12 0x8CCACA40E8DEDE40D0D2CED PUSH1 0xA3 SHL PUSH1 0x44 DUP3 ADD MSTORE PUSH1 0x64 ADD PUSH2 0x373 JUMP JUMPDEST PUSH1 0x2 SSTORE JUMP JUMPDEST DUP1 MLOAD PUSH1 0x20 DUP2 DUP4 ADD DUP2 ADD DUP1 MLOAD PUSH1 0x4 DUP3 MSTORE SWAP3 DUP3 ADD SWAP2 SWAP1 SWAP4 ADD KECCAK256 SWAP2 MSTORE DUP1 SLOAD DUP2 SWAP1 PUSH2 0x10E8 SWAP1 PUSH2 0x17FE JUMP JUMPDEST DUP1 PUSH1 0x1F ADD PUSH1 0x20 DUP1 SWAP2 DIV MUL PUSH1 0x20 ADD PUSH1 0x40 MLOAD SWAP1 DUP2 ADD PUSH1 0x40 MSTORE DUP1 SWAP3 SWAP2 SWAP1 DUP2 DUP2 MSTORE PUSH1 0x20 ADD DUP3 DUP1 SLOAD PUSH2 0x1114 SWAP1 PUSH2 0x17FE JUMP JUMPDEST DUP1 ISZERO PUSH2 0x115F JUMPI DUP1 PUSH1 0x1F LT PUSH2 0x1136 JUMPI PUSH2 0x100 DUP1 DUP4 SLOAD DIV MUL DUP4 MSTORE SWAP2 PUSH1 0x20 ADD SWAP2 PUSH2 0x115F JUMP JUMPDEST DUP3 ADD SWAP2 SWAP1 PUSH0 MSTORE PUSH1 0x20 PUSH0 KECCAK256 SWAP1 JUMPDEST DUP2 SLOAD DUP2 MSTORE SWAP1 PUSH1 0x1 ADD SWAP1 PUSH1 0x20 ADD DUP1 DUP4 GT PUSH2 0x1142 JUMPI DUP3 SWAP1 SUB PUSH1 0x1F AND DUP3 ADD SWAP2 JUMPDEST POP POP POP PUSH1 0x1 DUP5 ADD SLOAD PUSH1 0x2 DUP6 ADD SLOAD PUSH1 0x3 DUP7 ADD SLOAD PUSH1 0x4 DUP8 ADD SLOAD PUSH1 0x5 DUP9 ADD SLOAD PUSH1 0x6 SWAP1 SWAP9 ADD SLOAD SWAP7 SWAP8 PUSH1 0x1 PUSH1 0x1 PUSH1 0xA0 SHL SUB SWAP5 DUP6 AND SWAP8 SWAP4 SWAP1 SWAP5 AND SWAP6 POP SWAP1 SWAP4 POP SWAP2 PUSH1 0xFF DUP1 DUP3 AND SWAP3 PUSH2 0x100 SWAP1 SWAP3 DIV AND SWAP1 DUP9 JUMP JUMPDEST PUSH2 0x11B2 PUSH2 0x131D JUMP JUMPDEST PUSH1 0x1 PUSH1 0x1 PUSH1 0xA0 SHL SUB DUP2 AND PUSH2 0x11FA JUMPI PUSH1 0x40 MLOAD PUSH3 0x461BCD PUSH1 0xE5 SHL DUP2 MSTORE PUSH1 0x20 PUSH1 0x4 DUP3 ADD MSTORE PUSH1 0xF PUSH1 0x24 DUP3 ADD MSTORE PUSH15 0x496E76616C69642061646472657373 PUSH1 0x88 SHL PUSH1 0x44 DUP3 ADD MSTORE PUSH1 0x64 ADD PUSH2 0x373 JUMP JUMPDEST PUSH1 0x3 DUP1 SLOAD PUSH1 0x1 PUSH1 0x1 PUSH1 0xA0 SHL SUB NOT AND PUSH1 0x1 PUSH1 0x1 PUSH1 0xA0 SHL SUB SWAP3 SWAP1 SWAP3 AND SWAP2 SWAP1 SWAP2 OR SWAP1 SSTORE JUMP JUMPDEST PUSH2 0x1224 PUSH2 0x131D JUMP JUMPDEST PUSH1 0x1 PUSH1 0x1 PUSH1 0xA0 SHL SUB DUP2 AND PUSH2 0x124D JUMPI PUSH1 0x40 MLOAD PUSH4 0x1E4FBDF7 PUSH1 0xE0 SHL DUP2 MSTORE PUSH0 PUSH1 0x4 DUP3 ADD MSTORE PUSH1 0x24 ADD PUSH2 0x373 JUMP JUMPDEST PUSH2 0x1256 DUP2 PUSH2 0x134A JUMP JUMPDEST POP JUMP JUMPDEST PUSH1 0x2 PUSH0 SLOAD SUB PUSH2 0x12AA JUMPI PUSH1 0x40 MLOAD PUSH3 0x461BCD PUSH1 0xE5 SHL DUP2 MSTORE PUSH1 0x20 PUSH1 0x4 DUP3 ADD MSTORE PUSH1 0x1F PUSH1 0x24 DUP3 ADD MSTORE PUSH32 0x5265656E7472616E637947756172643A207265656E7472616E742063616C6C00 PUSH1 0x44 DUP3 ADD MSTORE PUSH1 0x64 ADD PUSH2 0x373 JUMP JUMPDEST PUSH1 0x2 PUSH0 SSTORE JUMP JUMPDEST PUSH1 0x40 MLOAD PUSH1 0x1 PUSH1 0x1 PUSH1 0xA0 SHL SUB DUP5 DUP2 AND PUSH1 0x24 DUP4 ADD MSTORE DUP4 DUP2 AND PUSH1 0x44 DUP4 ADD MSTORE PUSH1 0x64 DUP3 ADD DUP4 SWAP1 MSTORE PUSH2 0x1317 SWAP2 DUP7 SWAP2 DUP3 AND SWAP1 PUSH4 0x23B872DD SWAP1 PUSH1 0x84 ADD JUMPDEST PUSH1 0x40 MLOAD PUSH1 0x20 DUP2 DUP4 SUB SUB DUP2 MSTORE SWAP1 PUSH1 0x40 MSTORE SWAP2 POP PUSH1 0xE0 SHL PUSH1 0x20 DUP3 ADD DUP1 MLOAD PUSH1 0x1 PUSH1 0x1 PUSH1 0xE0 SHL SUB DUP4 DUP2 DUP4 AND OR DUP4 MSTORE POP POP POP POP PUSH2 0x13D1 JUMP JUMPDEST POP POP POP POP JUMP JUMPDEST PUSH1 0x1 SLOAD PUSH1 0x1 PUSH1 0x1 PUSH1 0xA0 SHL SUB AND CALLER EQ PUSH2 0x9B5 JUMPI PUSH1 0x40 MLOAD PUSH4 0x118CDAA7 PUSH1 0xE0 SHL DUP2 MSTORE CALLER PUSH1 0x4 DUP3 ADD MSTORE PUSH1 0x24 ADD PUSH2 0x373 JUMP JUMPDEST PUSH1 0x1 DUP1 SLOAD PUSH1 0x1 PUSH1 0x1 PUSH1 0xA0 SHL SUB DUP4 DUP2 AND PUSH1 0x1 PUSH1 0x1 PUSH1 0xA0 SHL SUB NOT DUP4 AND DUP2 OR SWAP1 SWAP4 SSTORE PUSH1 0x40 MLOAD SWAP2 AND SWAP2 SWAP1 DUP3 SWAP1 PUSH32 0x8BE0079C531659141344CD1FD0A4F28419497F9722A3DAAFE3B4186F6B6457E0 SWAP1 PUSH0 SWAP1 LOG3 POP POP JUMP JUMPDEST PUSH1 0x40 MLOAD PUSH1 0x1 PUSH1 0x1 PUSH1 0xA0 SHL SUB DUP4 DUP2 AND PUSH1 0x24 DUP4 ADD MSTORE PUSH1 0x44 DUP3 ADD DUP4 SWAP1 MSTORE PUSH2 0x13CC SWAP2 DUP6 SWAP2 DUP3 AND SWAP1 PUSH4 0xA9059CBB SWAP1 PUSH1 0x64 ADD PUSH2 0x12E5 JUMP JUMPDEST POP POP POP JUMP JUMPDEST PUSH0 DUP1 PUSH1 0x20 PUSH0 DUP5 MLOAD PUSH1 0x20 DUP7 ADD PUSH0 DUP9 GAS CALL DUP1 PUSH2 0x13F0 JUMPI PUSH1 0x40 MLOAD RETURNDATASIZE PUSH0 DUP3 RETURNDATACOPY RETURNDATASIZE DUP2 REVERT JUMPDEST POP POP PUSH0 MLOAD RETURNDATASIZE SWAP2 POP DUP2 ISZERO PUSH2 0x1407 JUMPI DUP1 PUSH1 0x1 EQ ISZERO PUSH2 0x1414 JUMP JUMPDEST PUSH1 0x1 PUSH1 0x1 PUSH1 0xA0 SHL SUB DUP5 AND EXTCODESIZE ISZERO JUMPDEST ISZERO PUSH2 0x1317 JUMPI PUSH1 0x40 MLOAD PUSH4 0x5274AFE7 PUSH1 0xE0 SHL DUP2 MSTORE PUSH1 0x1 PUSH1 0x1 PUSH1 0xA0 SHL SUB DUP6 AND PUSH1 0x4 DUP3 ADD MSTORE PUSH1 0x24 ADD PUSH2 0x373 JUMP JUMPDEST POP DUP1 SLOAD PUSH0 DUP3 SSTORE SWAP1 PUSH0 MSTORE PUSH1 0x20 PUSH0 KECCAK256 SWAP1 DUP2 ADD SWAP1 PUSH2 0x1256 SWAP2 SWAP1 JUMPDEST DUP1 DUP3 GT ISZERO PUSH2 0x1467 JUMPI PUSH0 DUP2 SSTORE PUSH1 0x1 ADD PUSH2 0x1454 JUMP JUMPDEST POP SWAP1 JUMP JUMPDEST PUSH0 DUP1 DUP4 PUSH1 0x1F DUP5 ADD SLT PUSH2 0x147B JUMPI PUSH0 DUP1 REVERT JUMPDEST POP DUP2 CALLDATALOAD PUSH8 0xFFFFFFFFFFFFFFFF DUP2 GT ISZERO PUSH2 0x1492 JUMPI PUSH0 DUP1 REVERT JUMPDEST PUSH1 0x20 DUP4 ADD SWAP2 POP DUP4 PUSH1 0x20 DUP3 DUP6 ADD ADD GT ISZERO PUSH2 0x14A9 JUMPI PUSH0 DUP1 REVERT JUMPDEST SWAP3 POP SWAP3 SWAP1 POP JUMP JUMPDEST DUP1 CALLDATALOAD PUSH1 0x1 PUSH1 0x1 PUSH1 0xA0 SHL SUB DUP2 AND DUP2 EQ PUSH2 0x14C6 JUMPI PUSH0 DUP1 REVERT JUMPDEST SWAP2 SWAP1 POP JUMP JUMPDEST PUSH0 DUP1 PUSH0 DUP1 PUSH0 PUSH1 0x80 DUP7 DUP9 SUB SLT ISZERO PUSH2 0x14DF JUMPI PUSH0 DUP1 REVERT JUMPDEST DUP6 CALLDATALOAD PUSH8 0xFFFFFFFFFFFFFFFF DUP2 GT ISZERO PUSH2 0x14F5 JUMPI PUSH0 DUP1 REVERT JUMPDEST PUSH2 0x1501 DUP9 DUP3 DUP10 ADD PUSH2 0x146B JUMP JUMPDEST SWAP1 SWAP7 POP SWAP5 POP PUSH2 0x1514 SWAP1 POP PUSH1 0x20 DUP8 ADD PUSH2 0x14B0 JUMP JUMPDEST SWAP5 SWAP8 SWAP4 SWAP7 POP SWAP4 SWAP5 PUSH1 0x40 DUP2 ADD CALLDATALOAD SWAP5 POP PUSH1 0x60 ADD CALLDATALOAD SWAP3 SWAP2 POP POP JUMP JUMPDEST PUSH4 0x4E487B71 PUSH1 0xE0 SHL PUSH0 MSTORE PUSH1 0x41 PUSH1 0x4 MSTORE PUSH1 0x24 PUSH0 REVERT JUMPDEST PUSH0 PUSH1 0x20 DUP3 DUP5 SUB SLT ISZERO PUSH2 0x1550 JUMPI PUSH0 DUP1 REVERT JUMPDEST DUP2 CALLDATALOAD PUSH8 0xFFFFFFFFFFFFFFFF DUP2 GT ISZERO PUSH2 0x1566 JUMPI PUSH0 DUP1 REVERT JUMPDEST DUP3 ADD PUSH1 0x1F DUP2 ADD DUP5 SGT PUSH2 0x1576 JUMPI PUSH0 DUP1 REVERT JUMPDEST DUP1 CALLDATALOAD PUSH8 0xFFFFFFFFFFFFFFFF DUP2 GT ISZERO PUSH2 0x1590 JUMPI PUSH2 0x1590 PUSH2 0x152C JUMP JUMPDEST PUSH1 0x40 MLOAD PUSH1 0x1F DUP3 ADD PUSH1 0x1F NOT SWAP1 DUP2 AND PUSH1 0x3F ADD AND DUP2 ADD PUSH8 0xFFFFFFFFFFFFFFFF DUP2 GT DUP3 DUP3 LT OR ISZERO PUSH2 0x15BF JUMPI PUSH2 0x15BF PUSH2 0x152C JUMP JUMPDEST PUSH1 0x40 MSTORE DUP2 DUP2 MSTORE DUP3 DUP3 ADD PUSH1 0x20 ADD DUP7 LT ISZERO PUSH2 0x15D6 JUMPI PUSH0 DUP1 REVERT JUMPDEST DUP2 PUSH1 0x20 DUP5 ADD PUSH1 0x20 DUP4 ADD CALLDATACOPY PUSH0 SWAP2 DUP2 ADD PUSH1 0x20 ADD SWAP2 SWAP1 SWAP2 MSTORE SWAP5 SWAP4 POP POP POP POP JUMP JUMPDEST PUSH0 DUP1 PUSH0 DUP1 PUSH1 0x40 DUP6 DUP8 SUB SLT ISZERO PUSH2 0x1606 JUMPI PUSH0 DUP1 REVERT JUMPDEST DUP5 CALLDATALOAD PUSH8 0xFFFFFFFFFFFFFFFF DUP2 GT ISZERO PUSH2 0x161C JUMPI PUSH0 DUP1 REVERT JUMPDEST PUSH2 0x1628 DUP8 DUP3 DUP9 ADD PUSH2 0x146B JUMP JUMPDEST SWAP1 SWAP6 POP SWAP4 POP POP PUSH1 0x20 DUP6 ADD CALLDATALOAD PUSH8 0xFFFFFFFFFFFFFFFF DUP2 GT ISZERO PUSH2 0x1647 JUMPI PUSH0 DUP1 REVERT JUMPDEST DUP6 ADD PUSH1 0x1F DUP2 ADD DUP8 SGT PUSH2 0x1657 JUMPI PUSH0 DUP1 REVERT JUMPDEST DUP1 CALLDATALOAD PUSH8 0xFFFFFFFFFFFFFFFF DUP2 GT ISZERO PUSH2 0x166D JUMPI PUSH0 DUP1 REVERT JUMPDEST DUP8 PUSH1 0x20 DUP3 PUSH1 0x5 SHL DUP5 ADD ADD GT ISZERO PUSH2 0x1681 JUMPI PUSH0 DUP1 REVERT JUMPDEST SWAP5 SWAP8 SWAP4 SWAP7 POP PUSH1 0x20 ADD SWAP5 POP POP POP JUMP JUMPDEST PUSH0 DUP1 PUSH1 0x20 DUP4 DUP6 SUB SLT ISZERO PUSH2 0x16A0 JUMPI PUSH0 DUP1 REVERT JUMPDEST DUP3 CALLDATALOAD PUSH8 0xFFFFFFFFFFFFFFFF DUP2 GT ISZERO PUSH2 0x16B6 JUMPI PUSH0 DUP1 REVERT JUMPDEST PUSH2 0x16C2 DUP6 DUP3 DUP7 ADD PUSH2 0x146B JUMP JUMPDEST SWAP1 SWAP7 SWAP1 SWAP6 POP SWAP4 POP POP POP POP JUMP JUMPDEST PUSH0 DUP1 PUSH1 0x40 DUP4 DUP6 SUB SLT ISZERO PUSH2 0x16DF JUMPI PUSH0 DUP1 REVERT JUMPDEST PUSH2 0x16E8 DUP4 PUSH2 0x14B0 JUMP JUMPDEST SWAP5 PUSH1 0x20 SWAP4 SWAP1 SWAP4 ADD CALLDATALOAD SWAP4 POP POP POP JUMP JUMPDEST PUSH1 0x20 DUP1 DUP3 MSTORE DUP3 MLOAD DUP3 DUP3 ADD DUP2 SWAP1 MSTORE PUSH0 SWAP2 DUP5 ADD SWAP1 PUSH1 0x40 DUP5 ADD SWAP1 DUP4 JUMPDEST DUP2 DUP2 LT ISZERO PUSH2 0x1736 JUMPI DUP4 MLOAD PUSH1 0x1 PUSH1 0x1 PUSH1 0xA0 SHL SUB AND DUP4 MSTORE PUSH1 0x20 SWAP4 DUP5 ADD SWAP4 SWAP1 SWAP3 ADD SWAP2 PUSH1 0x1 ADD PUSH2 0x170F JUMP JUMPDEST POP SWAP1 SWAP6 SWAP5 POP POP POP POP POP JUMP JUMPDEST PUSH0 PUSH1 0x20 DUP3 DUP5 SUB SLT ISZERO PUSH2 0x1751 JUMPI PUSH0 DUP1 REVERT JUMPDEST POP CALLDATALOAD SWAP2 SWAP1 POP JUMP JUMPDEST PUSH2 0x100 DUP2 MSTORE PUSH0 DUP10 MLOAD DUP1 PUSH2 0x100 DUP5 ADD MSTORE DUP1 PUSH1 0x20 DUP13 ADD PUSH2 0x120 DUP6 ADD MCOPY PUSH0 PUSH2 0x120 DUP3 DUP6 ADD DUP2 ADD SWAP2 SWAP1 SWAP2 MSTORE PUSH1 0x1 PUSH1 0x1 PUSH1 0xA0 SHL SUB SWAP11 DUP12 AND PUSH1 0x20 DUP6 ADD MSTORE SWAP9 SWAP1 SWAP10 AND PUSH1 0x40 DUP4 ADD MSTORE POP PUSH1 0x60 DUP2 ADD SWAP6 SWAP1 SWAP6 MSTORE PUSH1 0x80 DUP6 ADD SWAP4 SWAP1 SWAP4 MSTORE SWAP1 ISZERO ISZERO PUSH1 0xA0 DUP5 ADD MSTORE ISZERO ISZERO PUSH1 0xC0 DUP4 ADD MSTORE PUSH1 0xE0 DUP3 ADD MSTORE PUSH1 0x1F SWAP1 SWAP3 ADD PUSH1 0x1F NOT AND SWAP1 SWAP2 ADD ADD SWAP2 SWAP1 POP JUMP JUMPDEST PUSH0 PUSH1 0x20 DUP3 DUP5 SUB SLT ISZERO PUSH2 0x17DF JUMPI PUSH0 DUP1 REVERT JUMPDEST PUSH2 0x17E8 DUP3 PUSH2 0x14B0 JUMP JUMPDEST SWAP4 SWAP3 POP POP POP JUMP JUMPDEST DUP2 DUP4 DUP3 CALLDATACOPY PUSH0 SWAP2 ADD SWAP1 DUP2 MSTORE SWAP2 SWAP1 POP JUMP JUMPDEST PUSH1 0x1 DUP2 DUP2 SHR SWAP1 DUP3 AND DUP1 PUSH2 0x1812 JUMPI PUSH1 0x7F DUP3 AND SWAP2 POP JUMPDEST PUSH1 0x20 DUP3 LT DUP2 SUB PUSH2 0x1830 JUMPI PUSH4 0x4E487B71 PUSH1 0xE0 SHL PUSH0 MSTORE PUSH1 0x22 PUSH1 0x4 MSTORE PUSH1 0x24 PUSH0 REVERT JUMPDEST POP SWAP2 SWAP1 POP JUMP JUMPDEST PUSH1 0x1F DUP3 GT ISZERO PUSH2 0x13CC JUMPI DUP1 PUSH0 MSTORE PUSH1 0x20 PUSH0 KECCAK256 PUSH1 0x1F DUP5 ADD PUSH1 0x5 SHR DUP2 ADD PUSH1 0x20 DUP6 LT ISZERO PUSH2 0x185B JUMPI POP DUP1 JUMPDEST PUSH1 0x1F DUP5 ADD PUSH1 0x5 SHR DUP3 ADD SWAP2 POP JUMPDEST DUP2 DUP2 LT ISZERO PUSH2 0x593 JUMPI PUSH0 DUP2 SSTORE PUSH1 0x1 ADD PUSH2 0x1867 JUMP JUMPDEST PUSH8 0xFFFFFFFFFFFFFFFF DUP4 GT ISZERO PUSH2 0x1892 JUMPI PUSH2 0x1892 PUSH2 0x152C JUMP JUMPDEST PUSH2 0x18A6 DUP4 PUSH2 0x18A0 DUP4 SLOAD PUSH2 0x17FE JUMP JUMPDEST DUP4 PUSH2 0x1836 JUMP JUMPDEST PUSH0 PUSH1 0x1F DUP5 GT PUSH1 0x1 DUP2 EQ PUSH2 0x18D7 JUMPI PUSH0 DUP6 ISZERO PUSH2 0x18C0 JUMPI POP DUP4 DUP3 ADD CALLDATALOAD JUMPDEST PUSH0 NOT PUSH1 0x3 DUP8 SWAP1 SHL SHR NOT AND PUSH1 0x1 DUP7 SWAP1 SHL OR DUP4 SSTORE PUSH2 0x593 JUMP JUMPDEST PUSH0 DUP4 DUP2 MSTORE PUSH1 0x20 DUP2 KECCAK256 PUSH1 0x1F NOT DUP8 AND SWAP2 JUMPDEST DUP3 DUP2 LT ISZERO PUSH2 0x1906 JUMPI DUP7 DUP6 ADD CALLDATALOAD DUP3 SSTORE PUSH1 0x20 SWAP5 DUP6 ADD SWAP5 PUSH1 0x1 SWAP1 SWAP3 ADD SWAP2 ADD PUSH2 0x18E6 JUMP JUMPDEST POP DUP7 DUP3 LT ISZERO PUSH2 0x1922 JUMPI PUSH0 NOT PUSH1 0xF8 DUP9 PUSH1 0x3 SHL AND SHR NOT DUP5 DUP8 ADD CALLDATALOAD AND DUP2 SSTORE JUMPDEST POP POP PUSH1 0x1 DUP6 PUSH1 0x1 SHL ADD DUP4 SSTORE POP POP POP POP POP JUMP JUMPDEST PUSH1 0x20 DUP1 DUP3 MSTORE PUSH1 0x17 SWAP1 DUP3 ADD MSTORE PUSH32 0x5261696E64726F7020646F6573206E6F74206578697374000000000000000000 PUSH1 0x40 DUP3 ADD MSTORE PUSH1 0x60 ADD SWAP1 JUMP JUMPDEST PUSH1 0x20 DUP1 DUP3 MSTORE PUSH1 0xE SWAP1 DUP3 ADD MSTORE PUSH14 0x139BDD08185D5D1A1BDC9A5E9959 PUSH1 0x92 SHL PUSH1 0x40 DUP3 ADD MSTORE PUSH1 0x60 ADD SWAP1 JUMP JUMPDEST PUSH1 0x20 DUP1 DUP3 MSTORE PUSH1 0x19 SWAP1 DUP3 ADD MSTORE PUSH32 0x5261696E64726F7020616C726561647920657865637574656400000000000000 PUSH1 0x40 DUP3 ADD MSTORE PUSH1 0x60 ADD SWAP1 JUMP JUMPDEST PUSH4 0x4E487B71 PUSH1 0xE0 SHL PUSH0 MSTORE PUSH1 0x32 PUSH1 0x4 MSTORE PUSH1 0x24 PUSH0 REVERT JUMPDEST PUSH4 0x4E487B71 PUSH1 0xE0 SHL PUSH0 MSTORE PUSH1 0x11 PUSH1 0x4 MSTORE PUSH1 0x24 PUSH0 REVERT JUMPDEST PUSH0 DUP3 PUSH2 0x1A0C JUMPI PUSH4 0x4E487B71 PUSH1 0xE0 SHL PUSH0 MSTORE PUSH1 0x12 PUSH1 0x4 MSTORE PUSH1 0x24 PUSH0 REVERT JUMPDEST POP DIV SWAP1 JUMP JUMPDEST DUP1 DUP3 MUL DUP2 ISZERO DUP3 DUP3 DIV DUP5 EQ OR PUSH2 0xB65 JUMPI PUSH2 0xB65 PUSH2 0x19DE JUMP JUMPDEST DUP2 DUP2 SUB DUP2 DUP2 GT ISZERO PUSH2 0xB65 JUMPI PUSH2 0xB65 PUSH2 0x19DE JUMP INVALID LOG2 PUSH5 0x6970667358 0x22 SLT KECCAK256 0xE6 SMOD JUMPI DUP14 MSTORE 0xDD AND SHL 0xE2 XOR SWAP11 DUP9 SELFDESTRUCT 0xC BALANCE MCOPY DUP2 0xC SWAP9 POP LOG3 0x29 0xE7 0xBF 0xEE BASEFEE PUSH22 0x42E4C7747364736F6C634300081A0033000000000000 "
				},
				"gasEstimates": {
					"creation": {
						"codeDepositCost": "1353800",
						"executionCost": "infinite",
						"totalCost": "infinite"
					},
					"external": {
						"MAX_PARTICIPANTS()": "304",
						"MIN_AMOUNT_PER_PARTICIPANT()": "217",
						"cancelRaindrop(string)": "infinite",
						"createRaindrop(string,address,uint256,uint256)": "infinite",
						"emergencyRecoverToken(address,uint256)": "infinite",
						"executeRaindrop(string)": "infinite",
						"feeRecipient()": "2426",
						"getParticipants(string)": "infinite",
						"getRaindropDetails(string)": "infinite",
						"owner()": "2375",
						"platformFeeBps()": "2362",
						"raindropExists(string)": "infinite",
						"raindrops(string)": "infinite",
						"renounceOwnership()": "infinite",
						"transferOwnership(address)": "28421",
						"updateFeeRecipient(address)": "26834",
						"updateParticipants(string,address[])": "infinite",
						"updatePlatformFee(uint256)": "24534"
					}
				},
				"methodIdentifiers": {
					"MAX_PARTICIPANTS()": "f3baf070",
					"MIN_AMOUNT_PER_PARTICIPANT()": "4898ba63",
					"cancelRaindrop(string)": "9b0f14b5",
					"createRaindrop(string,address,uint256,uint256)": "02749be7",
					"emergencyRecoverToken(address,uint256)": "79020194",
					"executeRaindrop(string)": "9a43dc0c",
					"feeRecipient()": "46904840",
					"getParticipants(string)": "7e90def7",
					"getRaindropDetails(string)": "72521d47",
					"owner()": "8da5cb5b",
					"platformFeeBps()": "22dcd13e",
					"raindropExists(string)": "0d12cba2",
					"raindrops(string)": "b28a9d6f",
					"renounceOwnership()": "715018a6",
					"transferOwnership(address)": "f2fde38b",
					"updateFeeRecipient(address)": "f160d369",
					"updateParticipants(string,address[])": "6b0db1fa",
					"updatePlatformFee(uint256)": "aa0b5988"
				}
			},
			"storageLayout": {
				"storage": [
					{
						"astId": 248,
						"contract": "Raindrop.sol:RaindropEscrow",
						"label": "_status",
						"offset": 0,
						"slot": "0",
						"type": "t_uint256"
					},
					{
						"astId": 8,
						"contract": "Raindrop.sol:RaindropEscrow",
						"label": "_owner",
						"offset": 0,
						"slot": "1",
						"type": "t_address"
					},
					{
						"astId": 910,
						"contract": "Raindrop.sol:RaindropEscrow",
						"label": "platformFeeBps",
						"offset": 0,
						"slot": "2",
						"type": "t_uint256"
					},
					{
						"astId": 912,
						"contract": "Raindrop.sol:RaindropEscrow",
						"label": "feeRecipient",
						"offset": 0,
						"slot": "3",
						"type": "t_address"
					},
					{
						"astId": 941,
						"contract": "Raindrop.sol:RaindropEscrow",
						"label": "raindrops",
						"offset": 0,
						"slot": "4",
						"type": "t_mapping(t_string_memory_ptr,t_struct(Raindrop)936_storage)"
					},
					{
						"astId": 945,
						"contract": "Raindrop.sol:RaindropEscrow",
						"label": "raindropExists",
						"offset": 0,
						"slot": "5",
						"type": "t_mapping(t_string_memory_ptr,t_bool)"
					}
				],
				"types": {
					"t_address": {
						"encoding": "inplace",
						"label": "address",
						"numberOfBytes": "20"
					},
					"t_array(t_address)dyn_storage": {
						"base": "t_address",
						"encoding": "dynamic_array",
						"label": "address[]",
						"numberOfBytes": "32"
					},
					"t_bool": {
						"encoding": "inplace",
						"label": "bool",
						"numberOfBytes": "1"
					},
					"t_mapping(t_address,t_bool)": {
						"encoding": "mapping",
						"key": "t_address",
						"label": "mapping(address => bool)",
						"numberOfBytes": "32",
						"value": "t_bool"
					},
					"t_mapping(t_string_memory_ptr,t_bool)": {
						"encoding": "mapping",
						"key": "t_string_memory_ptr",
						"label": "mapping(string => bool)",
						"numberOfBytes": "32",
						"value": "t_bool"
					},
					"t_mapping(t_string_memory_ptr,t_struct(Raindrop)936_storage)": {
						"encoding": "mapping",
						"key": "t_string_memory_ptr",
						"label": "mapping(string => struct RaindropEscrow.Raindrop)",
						"numberOfBytes": "32",
						"value": "t_struct(Raindrop)936_storage"
					},
					"t_string_memory_ptr": {
						"encoding": "bytes",
						"label": "string",
						"numberOfBytes": "32"
					},
					"t_string_storage": {
						"encoding": "bytes",
						"label": "string",
						"numberOfBytes": "32"
					},
					"t_struct(Raindrop)936_storage": {
						"encoding": "inplace",
						"label": "struct RaindropEscrow.Raindrop",
						"members": [
							{
								"astId": 914,
								"contract": "Raindrop.sol:RaindropEscrow",
								"label": "raindropId",
								"offset": 0,
								"slot": "0",
								"type": "t_string_storage"
							},
							{
								"astId": 916,
								"contract": "Raindrop.sol:RaindropEscrow",
								"label": "host",
								"offset": 0,
								"slot": "1",
								"type": "t_address"
							},
							{
								"astId": 918,
								"contract": "Raindrop.sol:RaindropEscrow",
								"label": "token",
								"offset": 0,
								"slot": "2",
								"type": "t_address"
							},
							{
								"astId": 920,
								"contract": "Raindrop.sol:RaindropEscrow",
								"label": "totalAmount",
								"offset": 0,
								"slot": "3",
								"type": "t_uint256"
							},
							{
								"astId": 922,
								"contract": "Raindrop.sol:RaindropEscrow",
								"label": "scheduledTime",
								"offset": 0,
								"slot": "4",
								"type": "t_uint256"
							},
							{
								"astId": 924,
								"contract": "Raindrop.sol:RaindropEscrow",
								"label": "executed",
								"offset": 0,
								"slot": "5",
								"type": "t_bool"
							},
							{
								"astId": 926,
								"contract": "Raindrop.sol:RaindropEscrow",
								"label": "cancelled",
								"offset": 1,
								"slot": "5",
								"type": "t_bool"
							},
							{
								"astId": 928,
								"contract": "Raindrop.sol:RaindropEscrow",
								"label": "participantCount",
								"offset": 0,
								"slot": "6",
								"type": "t_uint256"
							},
							{
								"astId": 932,
								"contract": "Raindrop.sol:RaindropEscrow",
								"label": "participants",
								"offset": 0,
								"slot": "7",
								"type": "t_mapping(t_address,t_bool)"
							},
							{
								"astId": 935,
								"contract": "Raindrop.sol:RaindropEscrow",
								"label": "participantList",
								"offset": 0,
								"slot": "8",
								"type": "t_array(t_address)dyn_storage"
							}
						],
						"numberOfBytes": "288"
					},
					"t_uint256": {
						"encoding": "inplace",
						"label": "uint256",
						"numberOfBytes": "32"
					}
				}
			},
			"userdoc": {
				"kind": "user",
				"methods": {},
				"version": 1
			}
		}
	}
}